{
	"contracts/CrowdFunding.sol": {
		"CrowdFunding": {
			"abi": [
				{
					"inputs": [
						{
							"internalType": "uint256",
							"name": "",
							"type": "uint256"
						}
					],
					"name": "campaigns",
					"outputs": [
						{
							"internalType": "address",
							"name": "owner",
							"type": "address"
						},
						{
							"internalType": "uint256",
							"name": "target",
							"type": "uint256"
						},
						{
							"internalType": "uint256",
							"name": "deadline",
							"type": "uint256"
						},
						{
							"internalType": "uint256",
							"name": "amountCollected",
							"type": "uint256"
						},
						{
							"internalType": "string",
							"name": "campaignURI",
							"type": "string"
						}
					],
					"stateMutability": "view",
					"type": "function"
				},
				{
					"inputs": [
						{
							"internalType": "address",
							"name": "_owner",
							"type": "address"
						},
						{
							"internalType": "uint256",
							"name": "_target",
							"type": "uint256"
						},
						{
							"internalType": "uint256",
							"name": "_deadline",
							"type": "uint256"
						},
						{
							"internalType": "string",
							"name": "_campaignURI",
							"type": "string"
						}
					],
					"name": "createCampaign",
					"outputs": [
						{
							"internalType": "uint256",
							"name": "",
							"type": "uint256"
						}
					],
					"stateMutability": "nonpayable",
					"type": "function"
				},
				{
					"inputs": [
						{
							"internalType": "uint256",
							"name": "_id",
							"type": "uint256"
						}
					],
					"name": "donateToCampaign",
					"outputs": [],
					"stateMutability": "payable",
					"type": "function"
				},
				{
					"inputs": [],
					"name": "getCampaigns",
					"outputs": [
						{
							"components": [
								{
									"internalType": "address",
									"name": "owner",
									"type": "address"
								},
								{
									"internalType": "uint256",
									"name": "target",
									"type": "uint256"
								},
								{
									"internalType": "uint256",
									"name": "deadline",
									"type": "uint256"
								},
								{
									"internalType": "uint256",
									"name": "amountCollected",
									"type": "uint256"
								},
								{
									"internalType": "address[]",
									"name": "donators",
									"type": "address[]"
								},
								{
									"internalType": "uint256[]",
									"name": "donations",
									"type": "uint256[]"
								},
								{
									"internalType": "string",
									"name": "campaignURI",
									"type": "string"
								}
							],
							"internalType": "struct CrowdFunding.Campaign[]",
							"name": "",
							"type": "tuple[]"
						}
					],
					"stateMutability": "view",
					"type": "function"
				},
				{
					"inputs": [
						{
							"internalType": "uint256",
							"name": "_id",
							"type": "uint256"
						}
					],
					"name": "getDonators",
					"outputs": [
						{
							"internalType": "address[]",
							"name": "",
							"type": "address[]"
						},
						{
							"internalType": "uint256[]",
							"name": "",
							"type": "uint256[]"
						}
					],
					"stateMutability": "view",
					"type": "function"
				},
				{
					"inputs": [],
					"name": "numberOfCampaigns",
					"outputs": [
						{
							"internalType": "uint256",
							"name": "",
							"type": "uint256"
						}
					],
					"stateMutability": "view",
					"type": "function"
				}
			],
			"devdoc": {
				"kind": "dev",
				"methods": {},
				"version": 1
			},
			"evm": {
				"assembly": "    /* \"contracts/CrowdFunding.sol\":58:2196  contract CrowdFunding {... */\n  mstore(0x40, 0x80)\n    /* \"contracts/CrowdFunding.sol\":393:394  0 */\n  0x00\n    /* \"contracts/CrowdFunding.sol\":358:394  uint256 public numberOfCampaigns = 0 */\n  0x01\n  sstore\n    /* \"contracts/CrowdFunding.sol\":58:2196  contract CrowdFunding {... */\n  callvalue\n  dup1\n  iszero\n  tag_1\n  jumpi\n  0x00\n  dup1\n  revert\ntag_1:\n  pop\n  dataSize(sub_0)\n  dup1\n  dataOffset(sub_0)\n  0x00\n  codecopy\n  0x00\n  return\nstop\n\nsub_0: assembly {\n        /* \"contracts/CrowdFunding.sol\":58:2196  contract CrowdFunding {... */\n      mstore(0x40, 0x80)\n      jumpi(tag_1, lt(calldatasize, 0x04))\n      shr(0xe0, calldataload(0x00))\n      dup1\n      0x07ca140d\n      eq\n      tag_2\n      jumpi\n      dup1\n      0x0fa91fa9\n      eq\n      tag_3\n      jumpi\n      dup1\n      0x141961bc\n      eq\n      tag_4\n      jumpi\n      dup1\n      0x42a4fda8\n      eq\n      tag_5\n      jumpi\n      dup1\n      0x548ad9ea\n      eq\n      tag_6\n      jumpi\n      dup1\n      0xa6b03633\n      eq\n      tag_7\n      jumpi\n    tag_1:\n      0x00\n      dup1\n      revert\n        /* \"contracts/CrowdFunding.sol\":358:394  uint256 public numberOfCampaigns = 0 */\n    tag_2:\n      callvalue\n      dup1\n      iszero\n      tag_8\n      jumpi\n      0x00\n      dup1\n      revert\n    tag_8:\n      pop\n      tag_9\n      sload(0x01)\n      dup2\n      jump\n    tag_9:\n      mload(0x40)\n        /* \"#utility.yul\":6559:6584   */\n      swap1\n      dup2\n      mstore\n        /* \"#utility.yul\":6547:6549   */\n      0x20\n        /* \"#utility.yul\":6532:6550   */\n      add\n        /* \"contracts/CrowdFunding.sol\":358:394  uint256 public numberOfCampaigns = 0 */\n    tag_11:\n      mload(0x40)\n      dup1\n      swap2\n      sub\n      swap1\n      return\n        /* \"contracts/CrowdFunding.sol\":1624:1818  function getDonators(uint256 _id)... */\n    tag_3:\n      callvalue\n      dup1\n      iszero\n      tag_13\n      jumpi\n      0x00\n      dup1\n      revert\n    tag_13:\n      pop\n      tag_14\n      tag_15\n      calldatasize\n      0x04\n      tag_16\n      jump\t// in\n    tag_15:\n      tag_17\n      jump\t// in\n    tag_14:\n      mload(0x40)\n      tag_11\n      swap3\n      swap2\n      swap1\n      tag_19\n      jump\t// in\n        /* \"contracts/CrowdFunding.sol\":306:351  mapping(uint256 => Campaign) public campaigns */\n    tag_4:\n      callvalue\n      dup1\n      iszero\n      tag_20\n      jumpi\n      0x00\n      dup1\n      revert\n    tag_20:\n      pop\n      tag_21\n      tag_22\n      calldatasize\n      0x04\n      tag_16\n      jump\t// in\n    tag_22:\n      tag_23\n      jump\t// in\n    tag_21:\n      mload(0x40)\n      tag_11\n      swap6\n      swap5\n      swap4\n      swap3\n      swap2\n      swap1\n      tag_25\n      jump\t// in\n        /* \"contracts/CrowdFunding.sol\":1125:1540  function donateToCampaign(uint256 _id) public payable {... */\n    tag_5:\n      tag_26\n      tag_27\n      calldatasize\n      0x04\n      tag_16\n      jump\t// in\n    tag_27:\n      tag_28\n      jump\t// in\n    tag_26:\n      stop\n        /* \"contracts/CrowdFunding.sol\":443:1082  function createCampaign(... */\n    tag_6:\n      callvalue\n      dup1\n      iszero\n      tag_29\n      jumpi\n      0x00\n      dup1\n      revert\n    tag_29:\n      pop\n      tag_9\n      tag_31\n      calldatasize\n      0x04\n      tag_32\n      jump\t// in\n    tag_31:\n      tag_33\n      jump\t// in\n        /* \"contracts/CrowdFunding.sol\":1861:2194  function getCampaigns() public view returns (Campaign[] memory) {... */\n    tag_7:\n      callvalue\n      dup1\n      iszero\n      tag_35\n      jumpi\n      0x00\n      dup1\n      revert\n    tag_35:\n      pop\n      tag_36\n      tag_37\n      jump\t// in\n    tag_36:\n      mload(0x40)\n      tag_11\n      swap2\n      swap1\n      tag_39\n      jump\t// in\n        /* \"contracts/CrowdFunding.sol\":1624:1818  function getDonators(uint256 _id)... */\n    tag_17:\n        /* \"contracts/CrowdFunding.sol\":1761:1770  campaigns */\n      0x00\n        /* \"contracts/CrowdFunding.sol\":1761:1775  campaigns[_id] */\n      dup2\n      dup2\n      mstore\n      0x20\n      dup2\n      dup2\n      mstore\n      0x40\n      swap2\n      dup3\n      swap1\n      keccak256\n        /* \"contracts/CrowdFunding.sol\":1761:1784  campaigns[_id].donators */\n      0x04\n      dup2\n      add\n        /* \"contracts/CrowdFunding.sol\":1753:1811  return (campaigns[_id].donators, campaigns[_id].donations) */\n      dup1\n      sload\n      dup5\n      mload\n      dup2\n      dup6\n      mul\n      dup2\n      add\n      dup6\n      add\n      swap1\n      swap6\n      mstore\n      dup1\n      dup6\n      mstore\n        /* \"contracts/CrowdFunding.sol\":1703:1719  address[] memory */\n      0x60\n      swap5\n      dup6\n      swap5\n        /* \"contracts/CrowdFunding.sol\":1761:1784  campaigns[_id].donators */\n      swap3\n      swap4\n        /* \"contracts/CrowdFunding.sol\":1786:1810  campaigns[_id].donations */\n      0x05\n      add\n      swap3\n        /* \"contracts/CrowdFunding.sol\":1753:1811  return (campaigns[_id].donators, campaigns[_id].donations) */\n      swap1\n      swap2\n        /* \"contracts/CrowdFunding.sol\":1761:1784  campaigns[_id].donators */\n      dup5\n      swap2\n        /* \"contracts/CrowdFunding.sol\":1753:1811  return (campaigns[_id].donators, campaigns[_id].donations) */\n      dup4\n      add\n        /* \"contracts/CrowdFunding.sol\":1761:1784  campaigns[_id].donators */\n      dup3\n        /* \"contracts/CrowdFunding.sol\":1753:1811  return (campaigns[_id].donators, campaigns[_id].donations) */\n      dup3\n      dup1\n      iszero\n      tag_41\n      jumpi\n      0x20\n      mul\n      dup3\n      add\n      swap2\n      swap1\n      0x00\n      mstore\n      keccak256(0x00, 0x20)\n      swap1\n    tag_42:\n      dup2\n      sload\n      sub(shl(0xa0, 0x01), 0x01)\n      and\n      dup2\n      mstore\n      0x01\n      swap1\n      swap2\n      add\n      swap1\n      0x20\n      add\n      dup1\n      dup4\n      gt\n      tag_42\n      jumpi\n    tag_41:\n      pop\n      pop\n      pop\n      pop\n      pop\n      swap2\n      pop\n      dup1\n      dup1\n      sload\n      dup1\n      0x20\n      mul\n      0x20\n      add\n      mload(0x40)\n      swap1\n      dup2\n      add\n      0x40\n      mstore\n      dup1\n      swap3\n      swap2\n      swap1\n      dup2\n      dup2\n      mstore\n      0x20\n      add\n      dup3\n      dup1\n      sload\n      dup1\n      iszero\n      tag_43\n      jumpi\n      0x20\n      mul\n      dup3\n      add\n      swap2\n      swap1\n      0x00\n      mstore\n      keccak256(0x00, 0x20)\n      swap1\n    tag_44:\n      dup2\n      sload\n      dup2\n      mstore\n      0x20\n      add\n      swap1\n      0x01\n      add\n      swap1\n      dup1\n      dup4\n      gt\n      tag_44\n      jumpi\n    tag_43:\n      pop\n      pop\n      pop\n      pop\n      pop\n      swap1\n      pop\n      swap2\n      pop\n      swap2\n      pop\n        /* \"contracts/CrowdFunding.sol\":1624:1818  function getDonators(uint256 _id)... */\n      swap2\n      pop\n      swap2\n      jump\t// out\n        /* \"contracts/CrowdFunding.sol\":306:351  mapping(uint256 => Campaign) public campaigns */\n    tag_23:\n      0x00\n      0x20\n      dup2\n      swap1\n      mstore\n      swap1\n      dup2\n      mstore\n      0x40\n      swap1\n      keccak256\n      dup1\n      sload\n      0x01\n      dup3\n      add\n      sload\n      0x02\n      dup4\n      add\n      sload\n      0x03\n      dup5\n      add\n      sload\n      0x06\n      dup6\n      add\n      dup1\n      sload\n      sub(shl(0xa0, 0x01), 0x01)\n      swap1\n      swap6\n      and\n      swap6\n      swap4\n      swap5\n      swap3\n      swap4\n      swap2\n      swap3\n      tag_45\n      swap1\n      tag_46\n      jump\t// in\n    tag_45:\n      dup1\n      0x1f\n      add\n      0x20\n      dup1\n      swap2\n      div\n      mul\n      0x20\n      add\n      mload(0x40)\n      swap1\n      dup2\n      add\n      0x40\n      mstore\n      dup1\n      swap3\n      swap2\n      swap1\n      dup2\n      dup2\n      mstore\n      0x20\n      add\n      dup3\n      dup1\n      sload\n      tag_47\n      swap1\n      tag_46\n      jump\t// in\n    tag_47:\n      dup1\n      iszero\n      tag_48\n      jumpi\n      dup1\n      0x1f\n      lt\n      tag_49\n      jumpi\n      0x0100\n      dup1\n      dup4\n      sload\n      div\n      mul\n      dup4\n      mstore\n      swap2\n      0x20\n      add\n      swap2\n      jump(tag_48)\n    tag_49:\n      dup3\n      add\n      swap2\n      swap1\n      0x00\n      mstore\n      keccak256(0x00, 0x20)\n      swap1\n    tag_50:\n      dup2\n      sload\n      dup2\n      mstore\n      swap1\n      0x01\n      add\n      swap1\n      0x20\n      add\n      dup1\n      dup4\n      gt\n      tag_50\n      jumpi\n      dup3\n      swap1\n      sub\n      0x1f\n      and\n      dup3\n      add\n      swap2\n    tag_48:\n      pop\n      pop\n      pop\n      pop\n      pop\n      swap1\n      pop\n      dup6\n      jump\t// out\n        /* \"contracts/CrowdFunding.sol\":1125:1540  function donateToCampaign(uint256 _id) public payable {... */\n    tag_28:\n        /* \"contracts/CrowdFunding.sol\":1189:1203  uint256 amount */\n      0x00\n        /* \"contracts/CrowdFunding.sol\":1254:1268  campaigns[_id] */\n      dup2\n      dup2\n      mstore\n      0x20\n      dup2\n      dup2\n      mstore\n      0x40\n      dup1\n      dup4\n      keccak256\n        /* \"contracts/CrowdFunding.sol\":1279:1296  campaign.donators */\n      0x04\n      dup2\n      add\n        /* \"contracts/CrowdFunding.sol\":1279:1313  campaign.donators.push(msg.sender) */\n      dup1\n      sload\n      0x01\n      dup1\n      dup3\n      add\n      dup4\n      sstore\n      swap2\n      dup7\n      mstore\n      dup5\n      dup7\n      keccak256\n      add\n      dup1\n      sload\n      not(sub(shl(0xa0, 0x01), 0x01))\n      and\n        /* \"contracts/CrowdFunding.sol\":1302:1312  msg.sender */\n      caller\n        /* \"contracts/CrowdFunding.sol\":1279:1313  campaign.donators.push(msg.sender) */\n      or\n      swap1\n      sstore\n        /* \"contracts/CrowdFunding.sol\":1323:1341  campaign.donations */\n      0x05\n      dup3\n      add\n        /* \"contracts/CrowdFunding.sol\":1323:1354  campaign.donations.push(amount) */\n      dup1\n      sload\n      swap2\n      dup3\n      add\n      dup2\n      sstore\n      dup6\n      mstore\n      swap3\n      dup5\n      keccak256\n        /* \"contracts/CrowdFunding.sol\":1206:1215  msg.value */\n      callvalue\n        /* \"contracts/CrowdFunding.sol\":1323:1354  campaign.donations.push(amount) */\n      swap4\n      add\n      dup4\n      swap1\n      sstore\n        /* \"contracts/CrowdFunding.sol\":1389:1403  campaign.owner */\n      dup1\n      sload\n        /* \"contracts/CrowdFunding.sol\":1381:1428  payable(campaign.owner).call{value: amount}(\"\") */\n      swap2\n      mload\n        /* \"contracts/CrowdFunding.sol\":1206:1215  msg.value */\n      swap3\n      swap4\n        /* \"contracts/CrowdFunding.sol\":1254:1268  campaigns[_id] */\n      swap1\n      swap3\n        /* \"contracts/CrowdFunding.sol\":1189:1203  uint256 amount */\n      swap1\n      swap2\n      sub(shl(0xa0, 0x01), 0x01)\n        /* \"contracts/CrowdFunding.sol\":1389:1403  campaign.owner */\n      and\n      swap1\n        /* \"contracts/CrowdFunding.sol\":1206:1215  msg.value */\n      dup5\n      swap1\n        /* \"contracts/CrowdFunding.sol\":1189:1203  uint256 amount */\n      dup4\n        /* \"contracts/CrowdFunding.sol\":1381:1428  payable(campaign.owner).call{value: amount}(\"\") */\n      dup2\n        /* \"contracts/CrowdFunding.sol\":1189:1203  uint256 amount */\n      dup2\n        /* \"contracts/CrowdFunding.sol\":1381:1428  payable(campaign.owner).call{value: amount}(\"\") */\n      dup2\n        /* \"contracts/CrowdFunding.sol\":1206:1215  msg.value */\n      dup6\n        /* \"contracts/CrowdFunding.sol\":1389:1403  campaign.owner */\n      dup8\n        /* \"contracts/CrowdFunding.sol\":1381:1428  payable(campaign.owner).call{value: amount}(\"\") */\n      gas\n      call\n      swap3\n      pop\n      pop\n      pop\n      returndatasize\n      dup1\n      0x00\n      dup2\n      eq\n      tag_58\n      jumpi\n      mload(0x40)\n      swap2\n      pop\n      and(add(returndatasize, 0x3f), not(0x1f))\n      dup3\n      add\n      0x40\n      mstore\n      returndatasize\n      dup3\n      mstore\n      returndatasize\n      0x00\n      0x20\n      dup5\n      add\n      returndatacopy\n      jump(tag_57)\n    tag_58:\n      0x60\n      swap2\n      pop\n    tag_57:\n      pop\n        /* \"contracts/CrowdFunding.sol\":1365:1428  (bool sent, ) = payable(campaign.owner).call{value: amount}(\"\") */\n      pop\n      swap1\n      pop\n        /* \"contracts/CrowdFunding.sol\":1443:1447  sent */\n      dup1\n        /* \"contracts/CrowdFunding.sol\":1439:1534  if (sent) {... */\n      iszero\n      tag_59\n      jumpi\n        /* \"contracts/CrowdFunding.sol\":1517:1523  amount */\n      dup3\n        /* \"contracts/CrowdFunding.sol\":1490:1498  campaign */\n      dup3\n        /* \"contracts/CrowdFunding.sol\":1490:1514  campaign.amountCollected */\n      0x03\n      add\n      sload\n        /* \"contracts/CrowdFunding.sol\":1490:1523  campaign.amountCollected + amount */\n      tag_60\n      swap2\n      swap1\n      tag_61\n      jump\t// in\n    tag_60:\n        /* \"contracts/CrowdFunding.sol\":1463:1487  campaign.amountCollected */\n      0x03\n      dup4\n      add\n        /* \"contracts/CrowdFunding.sol\":1463:1523  campaign.amountCollected = campaign.amountCollected + amount */\n      sstore\n        /* \"contracts/CrowdFunding.sol\":1439:1534  if (sent) {... */\n    tag_59:\n        /* \"contracts/CrowdFunding.sol\":1125:1540  function donateToCampaign(uint256 _id) public payable {... */\n      pop\n      pop\n      pop\n      pop\n      jump\t// out\n        /* \"contracts/CrowdFunding.sol\":443:1082  function createCampaign(... */\n    tag_33:\n        /* \"contracts/CrowdFunding.sol\":660:677  numberOfCampaigns */\n      sload(0x01)\n        /* \"contracts/CrowdFunding.sol\":603:610  uint256 */\n      0x00\n        /* \"contracts/CrowdFunding.sol\":650:678  campaigns[numberOfCampaigns] */\n      swap1\n      dup2\n      mstore\n      0x20\n      dup2\n      swap1\n      mstore\n      0x40\n      dup2\n      keccak256\n        /* \"contracts/CrowdFunding.sol\":710:727  campaign.deadline */\n      0x02\n      dup2\n      add\n      sload\n        /* \"contracts/CrowdFunding.sol\":730:745  block.timestamp */\n      timestamp\n      gt\n        /* \"contracts/CrowdFunding.sol\":689:815  require(... */\n      tag_63\n      jumpi\n      mload(0x40)\n      shl(0xe5, 0x461bcd)\n      dup2\n      mstore\n        /* \"#utility.yul\":6202:6204   */\n      0x20\n        /* \"contracts/CrowdFunding.sol\":689:815  require(... */\n      0x04\n      dup3\n      add\n        /* \"#utility.yul\":6184:6205   */\n      mstore\n        /* \"#utility.yul\":6241:6243   */\n      0x2c\n        /* \"#utility.yul\":6221:6239   */\n      0x24\n      dup3\n      add\n        /* \"#utility.yul\":6214:6244   */\n      mstore\n        /* \"#utility.yul\":6280:6314   */\n      0x54686520646561646c696e652073686f756c642062652061206461746520696e\n        /* \"#utility.yul\":6260:6278   */\n      0x44\n      dup3\n      add\n        /* \"#utility.yul\":6253:6315   */\n      mstore\n      shl(0xa1, 0x103a343290333aba3ab93297)\n        /* \"#utility.yul\":6331:6349   */\n      0x64\n      dup3\n      add\n        /* \"#utility.yul\":6324:6366   */\n      mstore\n        /* \"#utility.yul\":6383:6402   */\n      0x84\n      add\n        /* \"contracts/CrowdFunding.sol\":689:815  require(... */\n      mload(0x40)\n      dup1\n      swap2\n      sub\n      swap1\n      revert\n    tag_63:\n        /* \"contracts/CrowdFunding.sol\":826:849  campaign.owner = _owner */\n      dup1\n      sload\n      not(sub(shl(0xa0, 0x01), 0x01))\n      and\n      sub(shl(0xa0, 0x01), 0x01)\n      dup9\n      and\n      or\n      dup2\n      sstore\n      0x01\n        /* \"contracts/CrowdFunding.sol\":859:874  campaign.target */\n      dup2\n      add\n        /* \"contracts/CrowdFunding.sol\":859:884  campaign.target = _target */\n      dup7\n      swap1\n      sstore\n        /* \"contracts/CrowdFunding.sol\":894:911  campaign.deadline */\n      0x02\n      dup2\n      add\n        /* \"contracts/CrowdFunding.sol\":894:923  campaign.deadline = _deadline */\n      dup6\n      swap1\n      sstore\n      0x00\n        /* \"contracts/CrowdFunding.sol\":933:957  campaign.amountCollected */\n      0x03\n      dup3\n      add\n        /* \"contracts/CrowdFunding.sol\":933:961  campaign.amountCollected = 0 */\n      sstore\n        /* \"contracts/CrowdFunding.sol\":971:1006  campaign.campaignURI = _campaignURI */\n      tag_66\n        /* \"contracts/CrowdFunding.sol\":971:991  campaign.campaignURI */\n      0x06\n      dup3\n      add\n        /* \"contracts/CrowdFunding.sol\":994:1006  _campaignURI */\n      dup6\n      dup6\n        /* \"contracts/CrowdFunding.sol\":971:1006  campaign.campaignURI = _campaignURI */\n      tag_67\n      jump\t// in\n    tag_66:\n      pop\n        /* \"contracts/CrowdFunding.sol\":1017:1034  numberOfCampaigns */\n      0x01\n        /* \"contracts/CrowdFunding.sol\":1017:1036  numberOfCampaigns++ */\n      dup1\n      sload\n      swap1\n        /* \"contracts/CrowdFunding.sol\":1017:1034  numberOfCampaigns */\n      0x00\n        /* \"contracts/CrowdFunding.sol\":1017:1036  numberOfCampaigns++ */\n      tag_68\n      dup4\n      tag_69\n      jump\t// in\n    tag_68:\n      swap2\n      swap1\n      pop\n      sstore\n      pop\n        /* \"contracts/CrowdFunding.sol\":1074:1075  1 */\n      0x01\n        /* \"contracts/CrowdFunding.sol\":1054:1071  numberOfCampaigns */\n      dup1\n      sload\n        /* \"contracts/CrowdFunding.sol\":1054:1075  numberOfCampaigns - 1 */\n      tag_70\n      swap2\n      swap1\n      tag_71\n      jump\t// in\n    tag_70:\n        /* \"contracts/CrowdFunding.sol\":1047:1075  return numberOfCampaigns - 1 */\n      swap8\n        /* \"contracts/CrowdFunding.sol\":443:1082  function createCampaign(... */\n      swap7\n      pop\n      pop\n      pop\n      pop\n      pop\n      pop\n      pop\n      jump\t// out\n        /* \"contracts/CrowdFunding.sol\":1861:2194  function getCampaigns() public view returns (Campaign[] memory) {... */\n    tag_37:\n        /* \"contracts/CrowdFunding.sol\":1906:1923  Campaign[] memory */\n      0x60\n        /* \"contracts/CrowdFunding.sol\":1935:1965  Campaign[] memory allCampaigns */\n      0x00\n        /* \"contracts/CrowdFunding.sol\":1983:2000  numberOfCampaigns */\n      sload(0x01)\n        /* \"contracts/CrowdFunding.sol\":1968:2001  new Campaign[](numberOfCampaigns) */\n      0xffffffffffffffff\n      dup2\n      gt\n      iszero\n      tag_73\n      jumpi\n      mstore(0x00, shl(0xe0, 0x4e487b71))\n      mstore(0x04, 0x41)\n      revert(0x00, 0x24)\n    tag_73:\n      mload(0x40)\n      swap1\n      dup1\n      dup3\n      mstore\n      dup1\n      0x20\n      mul\n      0x20\n      add\n      dup3\n      add\n      0x40\n      mstore\n      dup1\n      iszero\n      tag_74\n      jumpi\n      dup2\n      0x20\n      add\n    tag_75:\n      tag_76\n      mload(0x40)\n      dup1\n      0xe0\n      add\n      0x40\n      mstore\n      dup1\n      and(sub(shl(0xa0, 0x01), 0x01), 0x00)\n      dup2\n      mstore\n      0x20\n      add\n      0x00\n      dup2\n      mstore\n      0x20\n      add\n      0x00\n      dup2\n      mstore\n      0x20\n      add\n      0x00\n      dup2\n      mstore\n      0x20\n      add\n      0x60\n      dup2\n      mstore\n      0x20\n      add\n      0x60\n      dup2\n      mstore\n      0x20\n      add\n      0x60\n      dup2\n      mstore\n      pop\n      swap1\n      jump\n    tag_76:\n      dup2\n      mstore\n      0x20\n      add\n      swap1\n      0x01\n      swap1\n      sub\n      swap1\n      dup2\n      tag_75\n      jumpi\n      swap1\n      pop\n    tag_74:\n      pop\n        /* \"contracts/CrowdFunding.sol\":1935:2001  Campaign[] memory allCampaigns = new Campaign[](numberOfCampaigns) */\n      swap1\n      pop\n        /* \"contracts/CrowdFunding.sol\":2017:2026  uint256 i */\n      0x00\n        /* \"contracts/CrowdFunding.sol\":2012:2158  for (uint256 i = 0; i < numberOfCampaigns; i++) {... */\n    tag_78:\n        /* \"contracts/CrowdFunding.sol\":2036:2053  numberOfCampaigns */\n      sload(0x01)\n        /* \"contracts/CrowdFunding.sol\":2032:2033  i */\n      dup2\n        /* \"contracts/CrowdFunding.sol\":2032:2053  i < numberOfCampaigns */\n      lt\n        /* \"contracts/CrowdFunding.sol\":2012:2158  for (uint256 i = 0; i < numberOfCampaigns; i++) {... */\n      iszero\n      tag_79\n      jumpi\n        /* \"contracts/CrowdFunding.sol\":2074:2095  Campaign storage item */\n      0x00\n        /* \"contracts/CrowdFunding.sol\":2098:2110  campaigns[i] */\n      dup2\n      dup2\n      mstore\n      0x20\n      dup2\n      dup2\n      mstore\n      0x40\n      swap2\n      dup3\n      swap1\n      keccak256\n        /* \"contracts/CrowdFunding.sol\":2125:2147  allCampaigns[i] = item */\n      dup3\n      mload\n      0xe0\n      dup2\n      add\n      dup5\n      mstore\n      dup2\n      sload\n      sub(shl(0xa0, 0x01), 0x01)\n      and\n      dup2\n      mstore\n      0x01\n      dup3\n      add\n      sload\n      dup2\n      dup5\n      add\n      mstore\n      0x02\n      dup3\n      add\n      sload\n      dup2\n      dup6\n      add\n      mstore\n      0x03\n      dup3\n      add\n      sload\n      0x60\n      dup3\n      add\n      mstore\n      0x04\n      dup3\n      add\n      dup1\n      sload\n      dup6\n      mload\n      dup2\n      dup7\n      mul\n      dup2\n      add\n      dup7\n      add\n      swap1\n      swap7\n      mstore\n      dup1\n      dup7\n      mstore\n        /* \"contracts/CrowdFunding.sol\":2098:2110  campaigns[i] */\n      swap3\n      swap5\n        /* \"contracts/CrowdFunding.sol\":2125:2147  allCampaigns[i] = item */\n      swap2\n      swap4\n        /* \"contracts/CrowdFunding.sol\":2098:2110  campaigns[i] */\n      dup6\n      swap4\n        /* \"contracts/CrowdFunding.sol\":2125:2147  allCampaigns[i] = item */\n      0x80\n      dup7\n      add\n      swap4\n      swap3\n      swap2\n      dup4\n      add\n      dup3\n      dup3\n      dup1\n      iszero\n      tag_81\n      jumpi\n      0x20\n      mul\n      dup3\n      add\n      swap2\n      swap1\n      0x00\n      mstore\n      keccak256(0x00, 0x20)\n      swap1\n    tag_82:\n      dup2\n      sload\n      sub(shl(0xa0, 0x01), 0x01)\n      and\n      dup2\n      mstore\n      0x01\n      swap1\n      swap2\n      add\n      swap1\n      0x20\n      add\n      dup1\n      dup4\n      gt\n      tag_82\n      jumpi\n    tag_81:\n      pop\n      pop\n      pop\n      pop\n      pop\n      dup2\n      mstore\n      0x20\n      add\n      0x05\n      dup3\n      add\n      dup1\n      sload\n      dup1\n      0x20\n      mul\n      0x20\n      add\n      mload(0x40)\n      swap1\n      dup2\n      add\n      0x40\n      mstore\n      dup1\n      swap3\n      swap2\n      swap1\n      dup2\n      dup2\n      mstore\n      0x20\n      add\n      dup3\n      dup1\n      sload\n      dup1\n      iszero\n      tag_83\n      jumpi\n      0x20\n      mul\n      dup3\n      add\n      swap2\n      swap1\n      0x00\n      mstore\n      keccak256(0x00, 0x20)\n      swap1\n    tag_84:\n      dup2\n      sload\n      dup2\n      mstore\n      0x20\n      add\n      swap1\n      0x01\n      add\n      swap1\n      dup1\n      dup4\n      gt\n      tag_84\n      jumpi\n    tag_83:\n      pop\n      pop\n      pop\n      pop\n      pop\n      dup2\n      mstore\n      0x20\n      add\n      0x06\n      dup3\n      add\n      dup1\n      sload\n      tag_85\n      swap1\n      tag_46\n      jump\t// in\n    tag_85:\n      dup1\n      0x1f\n      add\n      0x20\n      dup1\n      swap2\n      div\n      mul\n      0x20\n      add\n      mload(0x40)\n      swap1\n      dup2\n      add\n      0x40\n      mstore\n      dup1\n      swap3\n      swap2\n      swap1\n      dup2\n      dup2\n      mstore\n      0x20\n      add\n      dup3\n      dup1\n      sload\n      tag_86\n      swap1\n      tag_46\n      jump\t// in\n    tag_86:\n      dup1\n      iszero\n      tag_87\n      jumpi\n      dup1\n      0x1f\n      lt\n      tag_88\n      jumpi\n      0x0100\n      dup1\n      dup4\n      sload\n      div\n      mul\n      dup4\n      mstore\n      swap2\n      0x20\n      add\n      swap2\n      jump(tag_87)\n    tag_88:\n      dup3\n      add\n      swap2\n      swap1\n      0x00\n      mstore\n      keccak256(0x00, 0x20)\n      swap1\n    tag_89:\n      dup2\n      sload\n      dup2\n      mstore\n      swap1\n      0x01\n      add\n      swap1\n      0x20\n      add\n      dup1\n      dup4\n      gt\n      tag_89\n      jumpi\n      dup3\n      swap1\n      sub\n      0x1f\n      and\n      dup3\n      add\n      swap2\n    tag_87:\n      pop\n      pop\n      pop\n      pop\n      pop\n      dup2\n      mstore\n      pop\n      pop\n        /* \"contracts/CrowdFunding.sol\":2125:2137  allCampaigns */\n      dup4\n        /* \"contracts/CrowdFunding.sol\":2138:2139  i */\n      dup4\n        /* \"contracts/CrowdFunding.sol\":2125:2140  allCampaigns[i] */\n      dup2\n      mload\n      dup2\n      lt\n      tag_90\n      jumpi\n      mstore(0x00, shl(0xe0, 0x4e487b71))\n      mstore(0x04, 0x32)\n      revert(0x00, 0x24)\n    tag_90:\n      0x20\n      mul\n      0x20\n      add\n      add\n        /* \"contracts/CrowdFunding.sol\":2125:2147  allCampaigns[i] = item */\n      dup2\n      swap1\n      mstore\n      pop\n        /* \"contracts/CrowdFunding.sol\":2012:2158  for (uint256 i = 0; i < numberOfCampaigns; i++) {... */\n      pop\n        /* \"contracts/CrowdFunding.sol\":2055:2058  i++ */\n      dup1\n      dup1\n      tag_91\n      swap1\n      tag_69\n      jump\t// in\n    tag_91:\n      swap2\n      pop\n      pop\n        /* \"contracts/CrowdFunding.sol\":2012:2158  for (uint256 i = 0; i < numberOfCampaigns; i++) {... */\n      jump(tag_78)\n    tag_79:\n      pop\n        /* \"contracts/CrowdFunding.sol\":2175:2187  allCampaigns */\n      swap2\n        /* \"contracts/CrowdFunding.sol\":1861:2194  function getCampaigns() public view returns (Campaign[] memory) {... */\n      swap1\n      pop\n      jump\t// out\n    tag_67:\n      dup3\n      dup1\n      sload\n      tag_92\n      swap1\n      tag_46\n      jump\t// in\n    tag_92:\n      swap1\n      0x00\n      mstore\n      keccak256(0x00, 0x20)\n      swap1\n      0x1f\n      add\n      0x20\n      swap1\n      div\n      dup2\n      add\n      swap3\n      dup3\n      tag_94\n      jumpi\n      0x00\n      dup6\n      sstore\n      jump(tag_97)\n    tag_94:\n      dup3\n      0x1f\n      lt\n      tag_95\n      jumpi\n      dup3\n      dup1\n      add\n      not(0xff)\n      dup3\n      calldataload\n      and\n      or\n      dup6\n      sstore\n      jump(tag_97)\n    tag_95:\n      dup3\n      dup1\n      add\n      0x01\n      add\n      dup6\n      sstore\n      dup3\n      iszero\n      tag_97\n      jumpi\n      swap2\n      dup3\n      add\n    tag_96:\n      dup3\n      dup2\n      gt\n      iszero\n      tag_97\n      jumpi\n      dup3\n      calldataload\n      dup3\n      sstore\n      swap2\n      0x20\n      add\n      swap2\n      swap1\n      0x01\n      add\n      swap1\n      jump(tag_96)\n    tag_97:\n      pop\n      tag_98\n      swap3\n      swap2\n      pop\n      tag_99\n      jump\t// in\n    tag_98:\n      pop\n      swap1\n      jump\t// out\n    tag_99:\n    tag_100:\n      dup1\n      dup3\n      gt\n      iszero\n      tag_98\n      jumpi\n      0x00\n      dup2\n      sstore\n      0x01\n      add\n      jump(tag_100)\n        /* \"#utility.yul\":14:977   */\n    tag_32:\n        /* \"#utility.yul\":112:118   */\n      0x00\n        /* \"#utility.yul\":120:126   */\n      dup1\n        /* \"#utility.yul\":128:134   */\n      0x00\n        /* \"#utility.yul\":136:142   */\n      dup1\n        /* \"#utility.yul\":144:150   */\n      0x00\n        /* \"#utility.yul\":197:200   */\n      0x80\n        /* \"#utility.yul\":185:194   */\n      dup7\n        /* \"#utility.yul\":176:183   */\n      dup9\n        /* \"#utility.yul\":172:195   */\n      sub\n        /* \"#utility.yul\":168:201   */\n      slt\n        /* \"#utility.yul\":165:167   */\n      iszero\n      tag_104\n      jumpi\n        /* \"#utility.yul\":219:225   */\n      dup1\n        /* \"#utility.yul\":211:217   */\n      dup2\n        /* \"#utility.yul\":204:226   */\n      revert\n        /* \"#utility.yul\":165:167   */\n    tag_104:\n        /* \"#utility.yul\":250:273   */\n      dup6\n      calldataload\n      sub(shl(0xa0, 0x01), 0x01)\n        /* \"#utility.yul\":302:333   */\n      dup2\n      and\n        /* \"#utility.yul\":292:334   */\n      dup2\n      eq\n        /* \"#utility.yul\":282:284   */\n      tag_105\n      jumpi\n        /* \"#utility.yul\":353:359   */\n      dup2\n        /* \"#utility.yul\":345:351   */\n      dup3\n        /* \"#utility.yul\":338:360   */\n      revert\n        /* \"#utility.yul\":282:284   */\n    tag_105:\n        /* \"#utility.yul\":381:386   */\n      swap5\n      pop\n        /* \"#utility.yul\":433:435   */\n      0x20\n        /* \"#utility.yul\":418:436   */\n      dup7\n      add\n        /* \"#utility.yul\":405:437   */\n      calldataload\n      swap4\n      pop\n        /* \"#utility.yul\":484:486   */\n      0x40\n        /* \"#utility.yul\":469:487   */\n      dup7\n      add\n        /* \"#utility.yul\":456:488   */\n      calldataload\n      swap3\n      pop\n        /* \"#utility.yul\":539:541   */\n      0x60\n        /* \"#utility.yul\":524:542   */\n      dup7\n      add\n        /* \"#utility.yul\":511:543   */\n      calldataload\n        /* \"#utility.yul\":562:580   */\n      0xffffffffffffffff\n        /* \"#utility.yul\":592:606   */\n      dup1\n      dup3\n      gt\n        /* \"#utility.yul\":589:591   */\n      iszero\n      tag_106\n      jumpi\n        /* \"#utility.yul\":624:630   */\n      dup3\n        /* \"#utility.yul\":616:622   */\n      dup4\n        /* \"#utility.yul\":609:631   */\n      revert\n        /* \"#utility.yul\":589:591   */\n    tag_106:\n        /* \"#utility.yul\":667:673   */\n      dup2\n        /* \"#utility.yul\":656:665   */\n      dup9\n        /* \"#utility.yul\":652:674   */\n      add\n        /* \"#utility.yul\":642:674   */\n      swap2\n      pop\n        /* \"#utility.yul\":712:719   */\n      dup9\n        /* \"#utility.yul\":705:709   */\n      0x1f\n        /* \"#utility.yul\":701:703   */\n      dup4\n        /* \"#utility.yul\":697:710   */\n      add\n        /* \"#utility.yul\":693:720   */\n      slt\n        /* \"#utility.yul\":683:685   */\n      tag_107\n      jumpi\n        /* \"#utility.yul\":739:745   */\n      dup3\n        /* \"#utility.yul\":731:737   */\n      dup4\n        /* \"#utility.yul\":724:746   */\n      revert\n        /* \"#utility.yul\":683:685   */\n    tag_107:\n        /* \"#utility.yul\":784:786   */\n      dup2\n        /* \"#utility.yul\":771:787   */\n      calldataload\n        /* \"#utility.yul\":810:812   */\n      dup2\n        /* \"#utility.yul\":802:808   */\n      dup2\n        /* \"#utility.yul\":799:813   */\n      gt\n        /* \"#utility.yul\":796:798   */\n      iszero\n      tag_108\n      jumpi\n        /* \"#utility.yul\":831:837   */\n      dup4\n        /* \"#utility.yul\":823:829   */\n      dup5\n        /* \"#utility.yul\":816:838   */\n      revert\n        /* \"#utility.yul\":796:798   */\n    tag_108:\n        /* \"#utility.yul\":881:888   */\n      dup10\n        /* \"#utility.yul\":876:878   */\n      0x20\n        /* \"#utility.yul\":867:873   */\n      dup3\n        /* \"#utility.yul\":863:865   */\n      dup6\n        /* \"#utility.yul\":859:874   */\n      add\n        /* \"#utility.yul\":855:879   */\n      add\n        /* \"#utility.yul\":852:889   */\n      gt\n        /* \"#utility.yul\":849:851   */\n      iszero\n      tag_109\n      jumpi\n        /* \"#utility.yul\":907:913   */\n      dup4\n        /* \"#utility.yul\":899:905   */\n      dup5\n        /* \"#utility.yul\":892:914   */\n      revert\n        /* \"#utility.yul\":849:851   */\n    tag_109:\n        /* \"#utility.yul\":155:977   */\n      swap7\n      swap10\n      swap6\n      swap9\n      pop\n      swap4\n      swap7\n      pop\n        /* \"#utility.yul\":943:945   */\n      0x20\n        /* \"#utility.yul\":935:946   */\n      add\n      swap5\n        /* \"#utility.yul\":965:971   */\n      swap4\n        /* \"#utility.yul\":155:977   */\n      swap3\n      pop\n      pop\n      pop\n      jump\t// out\n        /* \"#utility.yul\":982:1172   */\n    tag_16:\n        /* \"#utility.yul\":1041:1047   */\n      0x00\n        /* \"#utility.yul\":1094:1096   */\n      0x20\n        /* \"#utility.yul\":1082:1091   */\n      dup3\n        /* \"#utility.yul\":1073:1080   */\n      dup5\n        /* \"#utility.yul\":1069:1092   */\n      sub\n        /* \"#utility.yul\":1065:1097   */\n      slt\n        /* \"#utility.yul\":1062:1064   */\n      iszero\n      tag_111\n      jumpi\n        /* \"#utility.yul\":1115:1121   */\n      dup1\n        /* \"#utility.yul\":1107:1113   */\n      dup2\n        /* \"#utility.yul\":1100:1122   */\n      revert\n        /* \"#utility.yul\":1062:1064   */\n    tag_111:\n      pop\n        /* \"#utility.yul\":1143:1166   */\n      calldataload\n      swap2\n        /* \"#utility.yul\":1052:1172   */\n      swap1\n      pop\n      jump\t// out\n        /* \"#utility.yul\":1349:1786   */\n    tag_114:\n        /* \"#utility.yul\":1402:1405   */\n      0x00\n        /* \"#utility.yul\":1440:1445   */\n      dup2\n        /* \"#utility.yul\":1434:1446   */\n      mload\n        /* \"#utility.yul\":1467:1473   */\n      dup1\n        /* \"#utility.yul\":1462:1465   */\n      dup5\n        /* \"#utility.yul\":1455:1474   */\n      mstore\n        /* \"#utility.yul\":1493:1497   */\n      0x20\n        /* \"#utility.yul\":1522:1524   */\n      dup1\n        /* \"#utility.yul\":1517:1520   */\n      dup6\n        /* \"#utility.yul\":1513:1525   */\n      add\n        /* \"#utility.yul\":1506:1525   */\n      swap5\n      pop\n        /* \"#utility.yul\":1559:1561   */\n      dup1\n        /* \"#utility.yul\":1552:1557   */\n      dup5\n        /* \"#utility.yul\":1548:1562   */\n      add\n        /* \"#utility.yul\":1580:1583   */\n      dup4\n        /* \"#utility.yul\":1592:1761   */\n    tag_116:\n        /* \"#utility.yul\":1606:1612   */\n      dup4\n        /* \"#utility.yul\":1603:1604   */\n      dup2\n        /* \"#utility.yul\":1600:1613   */\n      lt\n        /* \"#utility.yul\":1592:1761   */\n      iszero\n      tag_118\n      jumpi\n        /* \"#utility.yul\":1667:1680   */\n      dup2\n      mload\n        /* \"#utility.yul\":1655:1681   */\n      dup8\n      mstore\n        /* \"#utility.yul\":1701:1713   */\n      swap6\n      dup3\n      add\n      swap6\n        /* \"#utility.yul\":1736:1751   */\n      swap1\n      dup3\n      add\n      swap1\n        /* \"#utility.yul\":1628:1629   */\n      0x01\n        /* \"#utility.yul\":1621:1630   */\n      add\n        /* \"#utility.yul\":1592:1761   */\n      jump(tag_116)\n    tag_118:\n      pop\n        /* \"#utility.yul\":1777:1780   */\n      swap5\n      swap6\n        /* \"#utility.yul\":1410:1786   */\n      swap5\n      pop\n      pop\n      pop\n      pop\n      pop\n      jump\t// out\n        /* \"#utility.yul\":1791:2267   */\n    tag_119:\n        /* \"#utility.yul\":1833:1836   */\n      0x00\n        /* \"#utility.yul\":1871:1876   */\n      dup2\n        /* \"#utility.yul\":1865:1877   */\n      mload\n        /* \"#utility.yul\":1898:1904   */\n      dup1\n        /* \"#utility.yul\":1893:1896   */\n      dup5\n        /* \"#utility.yul\":1886:1905   */\n      mstore\n        /* \"#utility.yul\":1923:1926   */\n      dup2\n        /* \"#utility.yul\":1935:2097   */\n    tag_121:\n        /* \"#utility.yul\":1949:1955   */\n      dup2\n        /* \"#utility.yul\":1946:1947   */\n      dup2\n        /* \"#utility.yul\":1943:1956   */\n      lt\n        /* \"#utility.yul\":1935:2097   */\n      iszero\n      tag_123\n      jumpi\n        /* \"#utility.yul\":2011:2015   */\n      0x20\n        /* \"#utility.yul\":2067:2080   */\n      dup2\n      dup6\n      add\n        /* \"#utility.yul\":2063:2085   */\n      dup2\n      add\n        /* \"#utility.yul\":2057:2086   */\n      mload\n        /* \"#utility.yul\":2039:2050   */\n      dup7\n      dup4\n      add\n        /* \"#utility.yul\":2035:2055   */\n      dup3\n      add\n        /* \"#utility.yul\":2028:2087   */\n      mstore\n        /* \"#utility.yul\":1964:1976   */\n      add\n        /* \"#utility.yul\":1935:2097   */\n      jump(tag_121)\n    tag_123:\n        /* \"#utility.yul\":2115:2121   */\n      dup2\n        /* \"#utility.yul\":2112:2113   */\n      dup2\n        /* \"#utility.yul\":2109:2122   */\n      gt\n        /* \"#utility.yul\":2106:2108   */\n      iszero\n      tag_124\n      jumpi\n        /* \"#utility.yul\":2181:2184   */\n      dup3\n        /* \"#utility.yul\":2174:2178   */\n      0x20\n        /* \"#utility.yul\":2165:2171   */\n      dup4\n        /* \"#utility.yul\":2160:2163   */\n      dup8\n        /* \"#utility.yul\":2156:2172   */\n      add\n        /* \"#utility.yul\":2152:2179   */\n      add\n        /* \"#utility.yul\":2145:2185   */\n      mstore\n        /* \"#utility.yul\":2106:2108   */\n    tag_124:\n      pop\n        /* \"#utility.yul\":2249:2251   */\n      0x1f\n        /* \"#utility.yul\":2228:2243   */\n      add\n      not(0x1f)\n        /* \"#utility.yul\":2224:2253   */\n      and\n        /* \"#utility.yul\":2215:2254   */\n      swap3\n      swap1\n      swap3\n      add\n        /* \"#utility.yul\":2256:2260   */\n      0x20\n        /* \"#utility.yul\":2211:2261   */\n      add\n      swap3\n        /* \"#utility.yul\":1841:2267   */\n      swap2\n      pop\n      pop\n      jump\t// out\n        /* \"#utility.yul\":2482:3015   */\n    tag_25:\n        /* \"#utility.yul\":2772:2773   */\n      0x01\n        /* \"#utility.yul\":2768:2769   */\n      dup1\n        /* \"#utility.yul\":2763:2766   */\n      0xa0\n        /* \"#utility.yul\":2759:2770   */\n      shl\n        /* \"#utility.yul\":2755:2774   */\n      sub\n        /* \"#utility.yul\":2747:2753   */\n      dup7\n        /* \"#utility.yul\":2743:2775   */\n      and\n        /* \"#utility.yul\":2732:2741   */\n      dup2\n        /* \"#utility.yul\":2725:2776   */\n      mstore\n        /* \"#utility.yul\":2812:2818   */\n      dup5\n        /* \"#utility.yul\":2807:2809   */\n      0x20\n        /* \"#utility.yul\":2796:2805   */\n      dup3\n        /* \"#utility.yul\":2792:2810   */\n      add\n        /* \"#utility.yul\":2785:2819   */\n      mstore\n        /* \"#utility.yul\":2855:2861   */\n      dup4\n        /* \"#utility.yul\":2850:2852   */\n      0x40\n        /* \"#utility.yul\":2839:2848   */\n      dup3\n        /* \"#utility.yul\":2835:2853   */\n      add\n        /* \"#utility.yul\":2828:2862   */\n      mstore\n        /* \"#utility.yul\":2898:2904   */\n      dup3\n        /* \"#utility.yul\":2893:2895   */\n      0x60\n        /* \"#utility.yul\":2882:2891   */\n      dup3\n        /* \"#utility.yul\":2878:2896   */\n      add\n        /* \"#utility.yul\":2871:2905   */\n      mstore\n        /* \"#utility.yul\":2942:2945   */\n      0xa0\n        /* \"#utility.yul\":2936:2939   */\n      0x80\n        /* \"#utility.yul\":2925:2934   */\n      dup3\n        /* \"#utility.yul\":2921:2940   */\n      add\n        /* \"#utility.yul\":2914:2946   */\n      mstore\n        /* \"#utility.yul\":2706:2710   */\n      0x00\n        /* \"#utility.yul\":2963:3009   */\n      tag_70\n        /* \"#utility.yul\":3004:3007   */\n      0xa0\n        /* \"#utility.yul\":2993:3002   */\n      dup4\n        /* \"#utility.yul\":2989:3008   */\n      add\n        /* \"#utility.yul\":2981:2987   */\n      dup5\n        /* \"#utility.yul\":2963:3009   */\n      tag_119\n      jump\t// in\n        /* \"#utility.yul\":3020:3855   */\n    tag_19:\n        /* \"#utility.yul\":3288:3290   */\n      0x40\n        /* \"#utility.yul\":3300:3321   */\n      dup1\n      dup3\n      mstore\n        /* \"#utility.yul\":3370:3383   */\n      dup4\n      mload\n        /* \"#utility.yul\":3273:3291   */\n      swap1\n      dup3\n      add\n        /* \"#utility.yul\":3392:3414   */\n      dup2\n      swap1\n      mstore\n        /* \"#utility.yul\":3240:3244   */\n      0x00\n      swap1\n        /* \"#utility.yul\":3467:3471   */\n      0x20\n      swap1\n        /* \"#utility.yul\":3445:3447   */\n      0x60\n        /* \"#utility.yul\":3430:3448   */\n      dup5\n      add\n      swap1\n        /* \"#utility.yul\":3494:3509   */\n      dup3\n      dup8\n      add\n        /* \"#utility.yul\":3240:3244   */\n      dup5\n        /* \"#utility.yul\":3540:3735   */\n    tag_129:\n        /* \"#utility.yul\":3554:3560   */\n      dup3\n        /* \"#utility.yul\":3551:3552   */\n      dup2\n        /* \"#utility.yul\":3548:3561   */\n      lt\n        /* \"#utility.yul\":3540:3735   */\n      iszero\n      tag_131\n      jumpi\n        /* \"#utility.yul\":3619:3632   */\n      dup2\n      mload\n      sub(shl(0xa0, 0x01), 0x01)\n        /* \"#utility.yul\":3615:3654   */\n      and\n        /* \"#utility.yul\":3603:3655   */\n      dup5\n      mstore\n        /* \"#utility.yul\":3675:3687   */\n      swap3\n      dup5\n      add\n      swap3\n        /* \"#utility.yul\":3710:3725   */\n      swap1\n      dup5\n      add\n      swap1\n        /* \"#utility.yul\":3651:3652   */\n      0x01\n        /* \"#utility.yul\":3569:3578   */\n      add\n        /* \"#utility.yul\":3540:3735   */\n      jump(tag_129)\n    tag_131:\n        /* \"#utility.yul\":3544:3547   */\n      pop\n      pop\n      pop\n        /* \"#utility.yul\":3780:3789   */\n      dup4\n        /* \"#utility.yul\":3775:3778   */\n      dup2\n        /* \"#utility.yul\":3771:3790   */\n      sub\n        /* \"#utility.yul\":3766:3768   */\n      dup3\n        /* \"#utility.yul\":3755:3764   */\n      dup6\n        /* \"#utility.yul\":3751:3769   */\n      add\n        /* \"#utility.yul\":3744:3791   */\n      mstore\n        /* \"#utility.yul\":3808:3849   */\n      tag_132\n        /* \"#utility.yul\":3845:3848   */\n      dup2\n        /* \"#utility.yul\":3837:3843   */\n      dup7\n        /* \"#utility.yul\":3808:3849   */\n      tag_114\n      jump\t// in\n    tag_132:\n        /* \"#utility.yul\":3800:3849   */\n      swap7\n        /* \"#utility.yul\":3249:3855   */\n      swap6\n      pop\n      pop\n      pop\n      pop\n      pop\n      pop\n      jump\t// out\n        /* \"#utility.yul\":3860:5995   */\n    tag_39:\n        /* \"#utility.yul\":4050:4054   */\n      0x00\n        /* \"#utility.yul\":4079:4081   */\n      0x20\n        /* \"#utility.yul\":4119:4121   */\n      dup1\n        /* \"#utility.yul\":4108:4117   */\n      dup4\n        /* \"#utility.yul\":4104:4122   */\n      add\n        /* \"#utility.yul\":4149:4151   */\n      dup2\n        /* \"#utility.yul\":4138:4147   */\n      dup5\n        /* \"#utility.yul\":4131:4152   */\n      mstore\n        /* \"#utility.yul\":4172:4178   */\n      dup1\n        /* \"#utility.yul\":4207:4213   */\n      dup6\n        /* \"#utility.yul\":4201:4214   */\n      mload\n        /* \"#utility.yul\":4238:4244   */\n      dup1\n        /* \"#utility.yul\":4230:4236   */\n      dup4\n        /* \"#utility.yul\":4223:4245   */\n      mstore\n        /* \"#utility.yul\":4264:4266   */\n      0x40\n        /* \"#utility.yul\":4254:4266   */\n      swap3\n      pop\n        /* \"#utility.yul\":4297:4299   */\n      dup3\n        /* \"#utility.yul\":4286:4295   */\n      dup7\n        /* \"#utility.yul\":4282:4300   */\n      add\n        /* \"#utility.yul\":4275:4300   */\n      swap2\n      pop\n        /* \"#utility.yul\":4359:4361   */\n      dup3\n        /* \"#utility.yul\":4349:4355   */\n      dup2\n        /* \"#utility.yul\":4346:4347   */\n      0x05\n        /* \"#utility.yul\":4342:4356   */\n      shl\n        /* \"#utility.yul\":4331:4340   */\n      dup8\n        /* \"#utility.yul\":4327:4357   */\n      add\n        /* \"#utility.yul\":4323:4362   */\n      add\n        /* \"#utility.yul\":4397:4399   */\n      dup5\n        /* \"#utility.yul\":4389:4395   */\n      dup9\n        /* \"#utility.yul\":4385:4400   */\n      add\n        /* \"#utility.yul\":4418:4422   */\n      dup7\n        /* \"#utility.yul\":4431:5966   */\n    tag_134:\n        /* \"#utility.yul\":4445:4451   */\n      dup4\n        /* \"#utility.yul\":4442:4443   */\n      dup2\n        /* \"#utility.yul\":4439:4452   */\n      lt\n        /* \"#utility.yul\":4431:5966   */\n      iszero\n      tag_136\n      jumpi\n        /* \"#utility.yul\":4510:4532   */\n      dup9\n      dup4\n      sub\n      not(0x3f)\n        /* \"#utility.yul\":4506:4542   */\n      add\n        /* \"#utility.yul\":4494:4543   */\n      dup6\n      mstore\n        /* \"#utility.yul\":4566:4579   */\n      dup2\n      mload\n        /* \"#utility.yul\":4680:4689   */\n      dup1\n      mload\n      sub(shl(0xa0, 0x01), 0x01)\n        /* \"#utility.yul\":4676:4711   */\n      and\n        /* \"#utility.yul\":4661:4712   */\n      dup5\n      mstore\n        /* \"#utility.yul\":4755:4766   */\n      dup8\n      dup2\n      add\n        /* \"#utility.yul\":4749:4767   */\n      mload\n        /* \"#utility.yul\":4732:4747   */\n      dup9\n      dup6\n      add\n        /* \"#utility.yul\":4725:4768   */\n      mstore\n        /* \"#utility.yul\":4811:4822   */\n      dup7\n      dup2\n      add\n        /* \"#utility.yul\":4805:4823   */\n      mload\n        /* \"#utility.yul\":4788:4803   */\n      dup8\n      dup6\n      add\n        /* \"#utility.yul\":4781:4824   */\n      mstore\n        /* \"#utility.yul\":4847:4851   */\n      0x60\n        /* \"#utility.yul\":4894:4905   */\n      dup1\n      dup3\n      add\n        /* \"#utility.yul\":4888:4906   */\n      mload\n        /* \"#utility.yul\":4871:4886   */\n      swap1\n      dup6\n      add\n        /* \"#utility.yul\":4864:4907   */\n      mstore\n        /* \"#utility.yul\":4930:4934   */\n      0x80\n        /* \"#utility.yul\":4973:4984   */\n      dup1\n      dup3\n      add\n        /* \"#utility.yul\":4967:4985   */\n      mload\n        /* \"#utility.yul\":4602:4606   */\n      0xe0\n        /* \"#utility.yul\":5005:5020   */\n      swap2\n      dup7\n      add\n        /* \"#utility.yul\":4998:5025   */\n      dup3\n      swap1\n      mstore\n        /* \"#utility.yul\":5086:5105   */\n      dup1\n      mload\n        /* \"#utility.yul\":4633:4648   */\n      swap2\n      dup7\n      add\n        /* \"#utility.yul\":5118:5142   */\n      dup3\n      swap1\n      mstore\n        /* \"#utility.yul\":5176:5179   */\n      0x0100\n        /* \"#utility.yul\":5164:5180   */\n      dup7\n      add\n      swap2\n        /* \"#utility.yul\":5209:5230   */\n      swap1\n      dup11\n      add\n      swap1\n        /* \"#utility.yul\":5254:5258   */\n      dup12\n        /* \"#utility.yul\":5271:5471   */\n    tag_137:\n        /* \"#utility.yul\":5287:5295   */\n      dup2\n        /* \"#utility.yul\":5282:5285   */\n      dup2\n        /* \"#utility.yul\":5279:5296   */\n      lt\n        /* \"#utility.yul\":5271:5471   */\n      iszero\n      tag_139\n      jumpi\n        /* \"#utility.yul\":5388:5403   */\n      dup3\n      mload\n      sub(shl(0xa0, 0x01), 0x01)\n        /* \"#utility.yul\":1268:1300   */\n      and\n        /* \"#utility.yul\":1256:1301   */\n      dup5\n      mstore\n        /* \"#utility.yul\":1333:1337   */\n      0x20\n        /* \"#utility.yul\":1324:1338   */\n      dup5\n      add\n        /* \"#utility.yul\":5350:5411   */\n      swap4\n      pop\n        /* \"#utility.yul\":5440:5457   */\n      swap2\n      dup12\n      add\n      swap2\n        /* \"#utility.yul\":5315:5316   */\n      0x01\n        /* \"#utility.yul\":5306:5317   */\n      add\n        /* \"#utility.yul\":5271:5471   */\n      jump(tag_137)\n    tag_139:\n        /* \"#utility.yul\":5275:5278   */\n      pop\n      pop\n      pop\n        /* \"#utility.yul\":5494:5498   */\n      0xa0\n        /* \"#utility.yul\":5547:5549   */\n      dup1\n        /* \"#utility.yul\":5543:5545   */\n      dup4\n        /* \"#utility.yul\":5539:5550   */\n      add\n        /* \"#utility.yul\":5533:5551   */\n      mload\n        /* \"#utility.yul\":5599:5605   */\n      dup7\n        /* \"#utility.yul\":5592:5597   */\n      dup4\n        /* \"#utility.yul\":5588:5606   */\n      sub\n        /* \"#utility.yul\":5583:5585   */\n      dup3\n        /* \"#utility.yul\":5575:5581   */\n      dup9\n        /* \"#utility.yul\":5571:5586   */\n      add\n        /* \"#utility.yul\":5564:5607   */\n      mstore\n        /* \"#utility.yul\":5634:5685   */\n      tag_141\n        /* \"#utility.yul\":5679:5684   */\n      dup4\n        /* \"#utility.yul\":5663:5677   */\n      dup3\n        /* \"#utility.yul\":5634:5685   */\n      tag_114\n      jump\t// in\n    tag_141:\n        /* \"#utility.yul\":5620:5685   */\n      swap3\n      pop\n      pop\n      pop\n        /* \"#utility.yul\":5708:5712   */\n      0xc0\n        /* \"#utility.yul\":5761:5763   */\n      dup1\n        /* \"#utility.yul\":5757:5759   */\n      dup4\n        /* \"#utility.yul\":5753:5764   */\n      add\n        /* \"#utility.yul\":5747:5765   */\n      mload\n        /* \"#utility.yul\":5725:5765   */\n      swap3\n      pop\n        /* \"#utility.yul\":5814:5820   */\n      dup6\n        /* \"#utility.yul\":5806:5812   */\n      dup3\n        /* \"#utility.yul\":5802:5821   */\n      sub\n        /* \"#utility.yul\":5797:5799   */\n      dup2\n        /* \"#utility.yul\":5789:5795   */\n      dup8\n        /* \"#utility.yul\":5785:5800   */\n      add\n        /* \"#utility.yul\":5778:5822   */\n      mstore\n      pop\n        /* \"#utility.yul\":5845:5886   */\n      tag_142\n        /* \"#utility.yul\":5879:5885   */\n      dup2\n        /* \"#utility.yul\":5863:5877   */\n      dup4\n        /* \"#utility.yul\":5845:5886   */\n      tag_119\n      jump\t// in\n    tag_142:\n        /* \"#utility.yul\":5944:5956   */\n      swap7\n      dup10\n      add\n      swap7\n        /* \"#utility.yul\":5835:5886   */\n      swap5\n      pop\n      pop\n      pop\n        /* \"#utility.yul\":5909:5924   */\n      swap1\n      dup7\n      add\n      swap1\n        /* \"#utility.yul\":4467:4468   */\n      0x01\n        /* \"#utility.yul\":4460:4469   */\n      add\n        /* \"#utility.yul\":4431:5966   */\n      jump(tag_134)\n    tag_136:\n      pop\n        /* \"#utility.yul\":5983:5989   */\n      swap1\n      swap9\n        /* \"#utility.yul\":4059:5995   */\n      swap8\n      pop\n      pop\n      pop\n      pop\n      pop\n      pop\n      pop\n      pop\n      jump\t// out\n        /* \"#utility.yul\":6595:6723   */\n    tag_61:\n        /* \"#utility.yul\":6635:6638   */\n      0x00\n        /* \"#utility.yul\":6666:6667   */\n      dup3\n        /* \"#utility.yul\":6662:6668   */\n      not\n        /* \"#utility.yul\":6659:6660   */\n      dup3\n        /* \"#utility.yul\":6656:6669   */\n      gt\n        /* \"#utility.yul\":6653:6655   */\n      iszero\n      tag_147\n      jumpi\n        /* \"#utility.yul\":6672:6690   */\n      tag_147\n      tag_148\n      jump\t// in\n    tag_147:\n      pop\n        /* \"#utility.yul\":6708:6717   */\n      add\n      swap1\n        /* \"#utility.yul\":6643:6723   */\n      jump\t// out\n        /* \"#utility.yul\":6728:6853   */\n    tag_71:\n        /* \"#utility.yul\":6768:6772   */\n      0x00\n        /* \"#utility.yul\":6796:6797   */\n      dup3\n        /* \"#utility.yul\":6793:6794   */\n      dup3\n        /* \"#utility.yul\":6790:6798   */\n      lt\n        /* \"#utility.yul\":6787:6789   */\n      iszero\n      tag_151\n      jumpi\n        /* \"#utility.yul\":6801:6819   */\n      tag_151\n      tag_148\n      jump\t// in\n    tag_151:\n      pop\n        /* \"#utility.yul\":6838:6847   */\n      sub\n      swap1\n        /* \"#utility.yul\":6777:6853   */\n      jump\t// out\n        /* \"#utility.yul\":6858:7238   */\n    tag_46:\n        /* \"#utility.yul\":6937:6938   */\n      0x01\n        /* \"#utility.yul\":6933:6945   */\n      dup2\n      dup2\n      shr\n      swap1\n        /* \"#utility.yul\":6980:6992   */\n      dup3\n      and\n      dup1\n        /* \"#utility.yul\":7001:7003   */\n      tag_153\n      jumpi\n        /* \"#utility.yul\":7055:7059   */\n      0x7f\n        /* \"#utility.yul\":7047:7053   */\n      dup3\n        /* \"#utility.yul\":7043:7060   */\n      and\n        /* \"#utility.yul\":7033:7060   */\n      swap2\n      pop\n        /* \"#utility.yul\":7001:7003   */\n    tag_153:\n        /* \"#utility.yul\":7108:7110   */\n      0x20\n        /* \"#utility.yul\":7100:7106   */\n      dup3\n        /* \"#utility.yul\":7097:7111   */\n      lt\n        /* \"#utility.yul\":7077:7095   */\n      dup2\n        /* \"#utility.yul\":7074:7112   */\n      eq\n        /* \"#utility.yul\":7071:7073   */\n      iszero\n      tag_79\n      jumpi\n        /* \"#utility.yul\":7154:7164   */\n      0x4e487b71\n        /* \"#utility.yul\":7149:7152   */\n      0xe0\n        /* \"#utility.yul\":7145:7165   */\n      shl\n        /* \"#utility.yul\":7142:7143   */\n      0x00\n        /* \"#utility.yul\":7135:7166   */\n      mstore\n        /* \"#utility.yul\":7189:7193   */\n      0x22\n        /* \"#utility.yul\":7186:7187   */\n      0x04\n        /* \"#utility.yul\":7179:7194   */\n      mstore\n        /* \"#utility.yul\":7217:7221   */\n      0x24\n        /* \"#utility.yul\":7214:7215   */\n      0x00\n        /* \"#utility.yul\":7207:7222   */\n      revert\n        /* \"#utility.yul\":7243:7378   */\n    tag_69:\n        /* \"#utility.yul\":7282:7285   */\n      0x00\n      not(0x00)\n        /* \"#utility.yul\":7303:7320   */\n      dup3\n      eq\n        /* \"#utility.yul\":7300:7302   */\n      iszero\n      tag_157\n      jumpi\n        /* \"#utility.yul\":7323:7341   */\n      tag_157\n      tag_148\n      jump\t// in\n    tag_157:\n      pop\n        /* \"#utility.yul\":7370:7371   */\n      0x01\n        /* \"#utility.yul\":7359:7372   */\n      add\n      swap1\n        /* \"#utility.yul\":7290:7378   */\n      jump\t// out\n        /* \"#utility.yul\":7383:7510   */\n    tag_148:\n        /* \"#utility.yul\":7444:7454   */\n      0x4e487b71\n        /* \"#utility.yul\":7439:7442   */\n      0xe0\n        /* \"#utility.yul\":7435:7455   */\n      shl\n        /* \"#utility.yul\":7432:7433   */\n      0x00\n        /* \"#utility.yul\":7425:7456   */\n      mstore\n        /* \"#utility.yul\":7475:7479   */\n      0x11\n        /* \"#utility.yul\":7472:7473   */\n      0x04\n        /* \"#utility.yul\":7465:7480   */\n      mstore\n        /* \"#utility.yul\":7499:7503   */\n      0x24\n        /* \"#utility.yul\":7496:7497   */\n      0x00\n        /* \"#utility.yul\":7489:7504   */\n      revert\n\n    auxdata: 0xa2646970667358221220e41ecf06bffd36e963f3b46d588e5fa7555abd4da0f23c4144c1fbe4ff89f2e864736f6c63430008040033\n}\n",
				"bytecode": {
					"linkReferences": {},
					"object": "6080604052600060015534801561001557600080fd5b50610b33806100256000396000f3fe6080604052600436106100555760003560e01c806307ca140d1461005a5780630fa91fa914610083578063141961bc146100b157806342a4fda8146100e2578063548ad9ea146100f7578063a6b0363314610117575b600080fd5b34801561006657600080fd5b5061007060015481565b6040519081526020015b60405180910390f35b34801561008f57600080fd5b506100a361009e366004610835565b610139565b60405161007a929190610905565b3480156100bd57600080fd5b506100d16100cc366004610835565b610208565b60405161007a9594939291906108d2565b6100f56100f0366004610835565b6102cb565b005b34801561010357600080fd5b50610070610112366004610799565b61038d565b34801561012357600080fd5b5061012c610475565b60405161007a9190610965565b600081815260208181526040918290206004810180548451818502810185019095528085526060948594929360050192909184918301828280156101a657602002820191906000526020600020905b81546001600160a01b03168152600190910190602001808311610188575b50505050509150808054806020026020016040519081016040528092919081815260200182805480156101f857602002820191906000526020600020905b8154815260200190600101908083116101e4575b5050505050905091509150915091565b600060208190529081526040902080546001820154600283015460038401546006850180546001600160a01b039095169593949293919261024890610a97565b80601f016020809104026020016040519081016040528092919081815260200182805461027490610a97565b80156102c15780601f10610296576101008083540402835291602001916102c1565b820191906000526020600020905b8154815290600101906020018083116102a457829003601f168201915b5050505050905085565b600081815260208181526040808320600481018054600180820183559186528486200180546001600160a01b0319163317905560058201805491820181558552928420349301839055805491519293909290916001600160a01b03169084908381818185875af1925050503d8060008114610362576040519150601f19603f3d011682016040523d82523d6000602084013e610367565b606091505b505090508015610387578282600301546103819190610a68565b60038301555b50505050565b60015460009081526020819052604081206002810154421161040a5760405162461bcd60e51b815260206004820152602c60248201527f54686520646561646c696e652073686f756c642062652061206461746520696e60448201526b103a343290333aba3ab9329760a11b606482015260840160405180910390fd5b80546001600160a01b0319166001600160a01b038816178155600181018690556002810185905560006003820155610446600682018585610700565b506001805490600061045783610acc565b91905055506001805461046a9190610a80565b979650505050505050565b6060600060015467ffffffffffffffff8111156104a257634e487b7160e01b600052604160045260246000fd5b60405190808252806020026020018201604052801561051c57816020015b6105096040518060e0016040528060006001600160a01b031681526020016000815260200160008152602001600081526020016060815260200160608152602001606081525090565b8152602001906001900390816104c05790505b50905060005b6001548110156106fa5760008181526020818152604091829020825160e08101845281546001600160a01b0316815260018201548184015260028201548185015260038201546060820152600482018054855181860281018601909652808652929491938593608086019392918301828280156105c857602002820191906000526020600020905b81546001600160a01b031681526001909101906020018083116105aa575b505050505081526020016005820180548060200260200160405190810160405280929190818152602001828054801561062057602002820191906000526020600020905b81548152602001906001019080831161060c575b5050505050815260200160068201805461063990610a97565b80601f016020809104026020016040519081016040528092919081815260200182805461066590610a97565b80156106b25780601f10610687576101008083540402835291602001916106b2565b820191906000526020600020905b81548152906001019060200180831161069557829003601f168201915b5050505050815250508383815181106106db57634e487b7160e01b600052603260045260246000fd5b60200260200101819052505080806106f290610acc565b915050610522565b50919050565b82805461070c90610a97565b90600052602060002090601f01602090048101928261072e5760008555610774565b82601f106107475782800160ff19823516178555610774565b82800160010185558215610774579182015b82811115610774578235825591602001919060010190610759565b50610780929150610784565b5090565b5b808211156107805760008155600101610785565b6000806000806000608086880312156107b0578081fd5b85356001600160a01b03811681146107c6578182fd5b94506020860135935060408601359250606086013567ffffffffffffffff808211156107f0578283fd5b818801915088601f830112610803578283fd5b813581811115610811578384fd5b896020828501011115610822578384fd5b9699959850939650602001949392505050565b600060208284031215610846578081fd5b5035919050565b6000815180845260208085019450808401835b8381101561087c57815187529582019590820190600101610860565b509495945050505050565b60008151808452815b818110156108ac57602081850181015186830182015201610890565b818111156108bd5782602083870101525b50601f01601f19169290920160200192915050565b60018060a01b038616815284602082015283604082015282606082015260a06080820152600061046a60a0830184610887565b604080825283519082018190526000906020906060840190828701845b828110156109475781516001600160a01b031684529284019290840190600101610922565b5050508381038285015261095b818661084d565b9695505050505050565b60006020808301818452808551808352604092508286019150828160051b870101848801865b83811015610a5a57888303603f19018552815180516001600160a01b03168452878101518885015286810151878501526060808201519085015260808082015160e09186018290528051918601829052610100860191908a01908b5b81811015610a0e5782516001600160a01b03168452602084019350918b01916001016109e7565b50505060a08083015186830382880152610a28838261084d565b9250505060c08083015192508582038187015250610a468183610887565b96890196945050509086019060010161098b565b509098975050505050505050565b60008219821115610a7b57610a7b610ae7565b500190565b600082821015610a9257610a92610ae7565b500390565b600181811c90821680610aab57607f821691505b602082108114156106fa57634e487b7160e01b600052602260045260246000fd5b6000600019821415610ae057610ae0610ae7565b5060010190565b634e487b7160e01b600052601160045260246000fdfea2646970667358221220e41ecf06bffd36e963f3b46d588e5fa7555abd4da0f23c4144c1fbe4ff89f2e864736f6c63430008040033",
					"opcodes": "PUSH1 0x80 PUSH1 0x40 MSTORE PUSH1 0x0 PUSH1 0x1 SSTORE CALLVALUE DUP1 ISZERO PUSH2 0x15 JUMPI PUSH1 0x0 DUP1 REVERT JUMPDEST POP PUSH2 0xB33 DUP1 PUSH2 0x25 PUSH1 0x0 CODECOPY PUSH1 0x0 RETURN INVALID PUSH1 0x80 PUSH1 0x40 MSTORE PUSH1 0x4 CALLDATASIZE LT PUSH2 0x55 JUMPI PUSH1 0x0 CALLDATALOAD PUSH1 0xE0 SHR DUP1 PUSH4 0x7CA140D EQ PUSH2 0x5A JUMPI DUP1 PUSH4 0xFA91FA9 EQ PUSH2 0x83 JUMPI DUP1 PUSH4 0x141961BC EQ PUSH2 0xB1 JUMPI DUP1 PUSH4 0x42A4FDA8 EQ PUSH2 0xE2 JUMPI DUP1 PUSH4 0x548AD9EA EQ PUSH2 0xF7 JUMPI DUP1 PUSH4 0xA6B03633 EQ PUSH2 0x117 JUMPI JUMPDEST PUSH1 0x0 DUP1 REVERT JUMPDEST CALLVALUE DUP1 ISZERO PUSH2 0x66 JUMPI PUSH1 0x0 DUP1 REVERT JUMPDEST POP PUSH2 0x70 PUSH1 0x1 SLOAD DUP2 JUMP JUMPDEST PUSH1 0x40 MLOAD SWAP1 DUP2 MSTORE PUSH1 0x20 ADD JUMPDEST PUSH1 0x40 MLOAD DUP1 SWAP2 SUB SWAP1 RETURN JUMPDEST CALLVALUE DUP1 ISZERO PUSH2 0x8F JUMPI PUSH1 0x0 DUP1 REVERT JUMPDEST POP PUSH2 0xA3 PUSH2 0x9E CALLDATASIZE PUSH1 0x4 PUSH2 0x835 JUMP JUMPDEST PUSH2 0x139 JUMP JUMPDEST PUSH1 0x40 MLOAD PUSH2 0x7A SWAP3 SWAP2 SWAP1 PUSH2 0x905 JUMP JUMPDEST CALLVALUE DUP1 ISZERO PUSH2 0xBD JUMPI PUSH1 0x0 DUP1 REVERT JUMPDEST POP PUSH2 0xD1 PUSH2 0xCC CALLDATASIZE PUSH1 0x4 PUSH2 0x835 JUMP JUMPDEST PUSH2 0x208 JUMP JUMPDEST PUSH1 0x40 MLOAD PUSH2 0x7A SWAP6 SWAP5 SWAP4 SWAP3 SWAP2 SWAP1 PUSH2 0x8D2 JUMP JUMPDEST PUSH2 0xF5 PUSH2 0xF0 CALLDATASIZE PUSH1 0x4 PUSH2 0x835 JUMP JUMPDEST PUSH2 0x2CB JUMP JUMPDEST STOP JUMPDEST CALLVALUE DUP1 ISZERO PUSH2 0x103 JUMPI PUSH1 0x0 DUP1 REVERT JUMPDEST POP PUSH2 0x70 PUSH2 0x112 CALLDATASIZE PUSH1 0x4 PUSH2 0x799 JUMP JUMPDEST PUSH2 0x38D JUMP JUMPDEST CALLVALUE DUP1 ISZERO PUSH2 0x123 JUMPI PUSH1 0x0 DUP1 REVERT JUMPDEST POP PUSH2 0x12C PUSH2 0x475 JUMP JUMPDEST PUSH1 0x40 MLOAD PUSH2 0x7A SWAP2 SWAP1 PUSH2 0x965 JUMP JUMPDEST PUSH1 0x0 DUP2 DUP2 MSTORE PUSH1 0x20 DUP2 DUP2 MSTORE PUSH1 0x40 SWAP2 DUP3 SWAP1 KECCAK256 PUSH1 0x4 DUP2 ADD DUP1 SLOAD DUP5 MLOAD DUP2 DUP6 MUL DUP2 ADD DUP6 ADD SWAP1 SWAP6 MSTORE DUP1 DUP6 MSTORE PUSH1 0x60 SWAP5 DUP6 SWAP5 SWAP3 SWAP4 PUSH1 0x5 ADD SWAP3 SWAP1 SWAP2 DUP5 SWAP2 DUP4 ADD DUP3 DUP3 DUP1 ISZERO PUSH2 0x1A6 JUMPI PUSH1 0x20 MUL DUP3 ADD SWAP2 SWAP1 PUSH1 0x0 MSTORE PUSH1 0x20 PUSH1 0x0 KECCAK256 SWAP1 JUMPDEST DUP2 SLOAD PUSH1 0x1 PUSH1 0x1 PUSH1 0xA0 SHL SUB AND DUP2 MSTORE PUSH1 0x1 SWAP1 SWAP2 ADD SWAP1 PUSH1 0x20 ADD DUP1 DUP4 GT PUSH2 0x188 JUMPI JUMPDEST POP POP POP POP POP SWAP2 POP DUP1 DUP1 SLOAD DUP1 PUSH1 0x20 MUL PUSH1 0x20 ADD PUSH1 0x40 MLOAD SWAP1 DUP2 ADD PUSH1 0x40 MSTORE DUP1 SWAP3 SWAP2 SWAP1 DUP2 DUP2 MSTORE PUSH1 0x20 ADD DUP3 DUP1 SLOAD DUP1 ISZERO PUSH2 0x1F8 JUMPI PUSH1 0x20 MUL DUP3 ADD SWAP2 SWAP1 PUSH1 0x0 MSTORE PUSH1 0x20 PUSH1 0x0 KECCAK256 SWAP1 JUMPDEST DUP2 SLOAD DUP2 MSTORE PUSH1 0x20 ADD SWAP1 PUSH1 0x1 ADD SWAP1 DUP1 DUP4 GT PUSH2 0x1E4 JUMPI JUMPDEST POP POP POP POP POP SWAP1 POP SWAP2 POP SWAP2 POP SWAP2 POP SWAP2 JUMP JUMPDEST PUSH1 0x0 PUSH1 0x20 DUP2 SWAP1 MSTORE SWAP1 DUP2 MSTORE PUSH1 0x40 SWAP1 KECCAK256 DUP1 SLOAD PUSH1 0x1 DUP3 ADD SLOAD PUSH1 0x2 DUP4 ADD SLOAD PUSH1 0x3 DUP5 ADD SLOAD PUSH1 0x6 DUP6 ADD DUP1 SLOAD PUSH1 0x1 PUSH1 0x1 PUSH1 0xA0 SHL SUB SWAP1 SWAP6 AND SWAP6 SWAP4 SWAP5 SWAP3 SWAP4 SWAP2 SWAP3 PUSH2 0x248 SWAP1 PUSH2 0xA97 JUMP JUMPDEST DUP1 PUSH1 0x1F ADD PUSH1 0x20 DUP1 SWAP2 DIV MUL PUSH1 0x20 ADD PUSH1 0x40 MLOAD SWAP1 DUP2 ADD PUSH1 0x40 MSTORE DUP1 SWAP3 SWAP2 SWAP1 DUP2 DUP2 MSTORE PUSH1 0x20 ADD DUP3 DUP1 SLOAD PUSH2 0x274 SWAP1 PUSH2 0xA97 JUMP JUMPDEST DUP1 ISZERO PUSH2 0x2C1 JUMPI DUP1 PUSH1 0x1F LT PUSH2 0x296 JUMPI PUSH2 0x100 DUP1 DUP4 SLOAD DIV MUL DUP4 MSTORE SWAP2 PUSH1 0x20 ADD SWAP2 PUSH2 0x2C1 JUMP JUMPDEST DUP3 ADD SWAP2 SWAP1 PUSH1 0x0 MSTORE PUSH1 0x20 PUSH1 0x0 KECCAK256 SWAP1 JUMPDEST DUP2 SLOAD DUP2 MSTORE SWAP1 PUSH1 0x1 ADD SWAP1 PUSH1 0x20 ADD DUP1 DUP4 GT PUSH2 0x2A4 JUMPI DUP3 SWAP1 SUB PUSH1 0x1F AND DUP3 ADD SWAP2 JUMPDEST POP POP POP POP POP SWAP1 POP DUP6 JUMP JUMPDEST PUSH1 0x0 DUP2 DUP2 MSTORE PUSH1 0x20 DUP2 DUP2 MSTORE PUSH1 0x40 DUP1 DUP4 KECCAK256 PUSH1 0x4 DUP2 ADD DUP1 SLOAD PUSH1 0x1 DUP1 DUP3 ADD DUP4 SSTORE SWAP2 DUP7 MSTORE DUP5 DUP7 KECCAK256 ADD DUP1 SLOAD PUSH1 0x1 PUSH1 0x1 PUSH1 0xA0 SHL SUB NOT AND CALLER OR SWAP1 SSTORE PUSH1 0x5 DUP3 ADD DUP1 SLOAD SWAP2 DUP3 ADD DUP2 SSTORE DUP6 MSTORE SWAP3 DUP5 KECCAK256 CALLVALUE SWAP4 ADD DUP4 SWAP1 SSTORE DUP1 SLOAD SWAP2 MLOAD SWAP3 SWAP4 SWAP1 SWAP3 SWAP1 SWAP2 PUSH1 0x1 PUSH1 0x1 PUSH1 0xA0 SHL SUB AND SWAP1 DUP5 SWAP1 DUP4 DUP2 DUP2 DUP2 DUP6 DUP8 GAS CALL SWAP3 POP POP POP RETURNDATASIZE DUP1 PUSH1 0x0 DUP2 EQ PUSH2 0x362 JUMPI PUSH1 0x40 MLOAD SWAP2 POP PUSH1 0x1F NOT PUSH1 0x3F RETURNDATASIZE ADD AND DUP3 ADD PUSH1 0x40 MSTORE RETURNDATASIZE DUP3 MSTORE RETURNDATASIZE PUSH1 0x0 PUSH1 0x20 DUP5 ADD RETURNDATACOPY PUSH2 0x367 JUMP JUMPDEST PUSH1 0x60 SWAP2 POP JUMPDEST POP POP SWAP1 POP DUP1 ISZERO PUSH2 0x387 JUMPI DUP3 DUP3 PUSH1 0x3 ADD SLOAD PUSH2 0x381 SWAP2 SWAP1 PUSH2 0xA68 JUMP JUMPDEST PUSH1 0x3 DUP4 ADD SSTORE JUMPDEST POP POP POP POP JUMP JUMPDEST PUSH1 0x1 SLOAD PUSH1 0x0 SWAP1 DUP2 MSTORE PUSH1 0x20 DUP2 SWAP1 MSTORE PUSH1 0x40 DUP2 KECCAK256 PUSH1 0x2 DUP2 ADD SLOAD TIMESTAMP GT PUSH2 0x40A JUMPI PUSH1 0x40 MLOAD PUSH3 0x461BCD PUSH1 0xE5 SHL DUP2 MSTORE PUSH1 0x20 PUSH1 0x4 DUP3 ADD MSTORE PUSH1 0x2C PUSH1 0x24 DUP3 ADD MSTORE PUSH32 0x54686520646561646C696E652073686F756C642062652061206461746520696E PUSH1 0x44 DUP3 ADD MSTORE PUSH12 0x103A343290333ABA3AB93297 PUSH1 0xA1 SHL PUSH1 0x64 DUP3 ADD MSTORE PUSH1 0x84 ADD PUSH1 0x40 MLOAD DUP1 SWAP2 SUB SWAP1 REVERT JUMPDEST DUP1 SLOAD PUSH1 0x1 PUSH1 0x1 PUSH1 0xA0 SHL SUB NOT AND PUSH1 0x1 PUSH1 0x1 PUSH1 0xA0 SHL SUB DUP9 AND OR DUP2 SSTORE PUSH1 0x1 DUP2 ADD DUP7 SWAP1 SSTORE PUSH1 0x2 DUP2 ADD DUP6 SWAP1 SSTORE PUSH1 0x0 PUSH1 0x3 DUP3 ADD SSTORE PUSH2 0x446 PUSH1 0x6 DUP3 ADD DUP6 DUP6 PUSH2 0x700 JUMP JUMPDEST POP PUSH1 0x1 DUP1 SLOAD SWAP1 PUSH1 0x0 PUSH2 0x457 DUP4 PUSH2 0xACC JUMP JUMPDEST SWAP2 SWAP1 POP SSTORE POP PUSH1 0x1 DUP1 SLOAD PUSH2 0x46A SWAP2 SWAP1 PUSH2 0xA80 JUMP JUMPDEST SWAP8 SWAP7 POP POP POP POP POP POP POP JUMP JUMPDEST PUSH1 0x60 PUSH1 0x0 PUSH1 0x1 SLOAD PUSH8 0xFFFFFFFFFFFFFFFF DUP2 GT ISZERO PUSH2 0x4A2 JUMPI PUSH4 0x4E487B71 PUSH1 0xE0 SHL PUSH1 0x0 MSTORE PUSH1 0x41 PUSH1 0x4 MSTORE PUSH1 0x24 PUSH1 0x0 REVERT JUMPDEST PUSH1 0x40 MLOAD SWAP1 DUP1 DUP3 MSTORE DUP1 PUSH1 0x20 MUL PUSH1 0x20 ADD DUP3 ADD PUSH1 0x40 MSTORE DUP1 ISZERO PUSH2 0x51C JUMPI DUP2 PUSH1 0x20 ADD JUMPDEST PUSH2 0x509 PUSH1 0x40 MLOAD DUP1 PUSH1 0xE0 ADD PUSH1 0x40 MSTORE DUP1 PUSH1 0x0 PUSH1 0x1 PUSH1 0x1 PUSH1 0xA0 SHL SUB AND DUP2 MSTORE PUSH1 0x20 ADD PUSH1 0x0 DUP2 MSTORE PUSH1 0x20 ADD PUSH1 0x0 DUP2 MSTORE PUSH1 0x20 ADD PUSH1 0x0 DUP2 MSTORE PUSH1 0x20 ADD PUSH1 0x60 DUP2 MSTORE PUSH1 0x20 ADD PUSH1 0x60 DUP2 MSTORE PUSH1 0x20 ADD PUSH1 0x60 DUP2 MSTORE POP SWAP1 JUMP JUMPDEST DUP2 MSTORE PUSH1 0x20 ADD SWAP1 PUSH1 0x1 SWAP1 SUB SWAP1 DUP2 PUSH2 0x4C0 JUMPI SWAP1 POP JUMPDEST POP SWAP1 POP PUSH1 0x0 JUMPDEST PUSH1 0x1 SLOAD DUP2 LT ISZERO PUSH2 0x6FA JUMPI PUSH1 0x0 DUP2 DUP2 MSTORE PUSH1 0x20 DUP2 DUP2 MSTORE PUSH1 0x40 SWAP2 DUP3 SWAP1 KECCAK256 DUP3 MLOAD PUSH1 0xE0 DUP2 ADD DUP5 MSTORE DUP2 SLOAD PUSH1 0x1 PUSH1 0x1 PUSH1 0xA0 SHL SUB AND DUP2 MSTORE PUSH1 0x1 DUP3 ADD SLOAD DUP2 DUP5 ADD MSTORE PUSH1 0x2 DUP3 ADD SLOAD DUP2 DUP6 ADD MSTORE PUSH1 0x3 DUP3 ADD SLOAD PUSH1 0x60 DUP3 ADD MSTORE PUSH1 0x4 DUP3 ADD DUP1 SLOAD DUP6 MLOAD DUP2 DUP7 MUL DUP2 ADD DUP7 ADD SWAP1 SWAP7 MSTORE DUP1 DUP7 MSTORE SWAP3 SWAP5 SWAP2 SWAP4 DUP6 SWAP4 PUSH1 0x80 DUP7 ADD SWAP4 SWAP3 SWAP2 DUP4 ADD DUP3 DUP3 DUP1 ISZERO PUSH2 0x5C8 JUMPI PUSH1 0x20 MUL DUP3 ADD SWAP2 SWAP1 PUSH1 0x0 MSTORE PUSH1 0x20 PUSH1 0x0 KECCAK256 SWAP1 JUMPDEST DUP2 SLOAD PUSH1 0x1 PUSH1 0x1 PUSH1 0xA0 SHL SUB AND DUP2 MSTORE PUSH1 0x1 SWAP1 SWAP2 ADD SWAP1 PUSH1 0x20 ADD DUP1 DUP4 GT PUSH2 0x5AA JUMPI JUMPDEST POP POP POP POP POP DUP2 MSTORE PUSH1 0x20 ADD PUSH1 0x5 DUP3 ADD DUP1 SLOAD DUP1 PUSH1 0x20 MUL PUSH1 0x20 ADD PUSH1 0x40 MLOAD SWAP1 DUP2 ADD PUSH1 0x40 MSTORE DUP1 SWAP3 SWAP2 SWAP1 DUP2 DUP2 MSTORE PUSH1 0x20 ADD DUP3 DUP1 SLOAD DUP1 ISZERO PUSH2 0x620 JUMPI PUSH1 0x20 MUL DUP3 ADD SWAP2 SWAP1 PUSH1 0x0 MSTORE PUSH1 0x20 PUSH1 0x0 KECCAK256 SWAP1 JUMPDEST DUP2 SLOAD DUP2 MSTORE PUSH1 0x20 ADD SWAP1 PUSH1 0x1 ADD SWAP1 DUP1 DUP4 GT PUSH2 0x60C JUMPI JUMPDEST POP POP POP POP POP DUP2 MSTORE PUSH1 0x20 ADD PUSH1 0x6 DUP3 ADD DUP1 SLOAD PUSH2 0x639 SWAP1 PUSH2 0xA97 JUMP JUMPDEST DUP1 PUSH1 0x1F ADD PUSH1 0x20 DUP1 SWAP2 DIV MUL PUSH1 0x20 ADD PUSH1 0x40 MLOAD SWAP1 DUP2 ADD PUSH1 0x40 MSTORE DUP1 SWAP3 SWAP2 SWAP1 DUP2 DUP2 MSTORE PUSH1 0x20 ADD DUP3 DUP1 SLOAD PUSH2 0x665 SWAP1 PUSH2 0xA97 JUMP JUMPDEST DUP1 ISZERO PUSH2 0x6B2 JUMPI DUP1 PUSH1 0x1F LT PUSH2 0x687 JUMPI PUSH2 0x100 DUP1 DUP4 SLOAD DIV MUL DUP4 MSTORE SWAP2 PUSH1 0x20 ADD SWAP2 PUSH2 0x6B2 JUMP JUMPDEST DUP3 ADD SWAP2 SWAP1 PUSH1 0x0 MSTORE PUSH1 0x20 PUSH1 0x0 KECCAK256 SWAP1 JUMPDEST DUP2 SLOAD DUP2 MSTORE SWAP1 PUSH1 0x1 ADD SWAP1 PUSH1 0x20 ADD DUP1 DUP4 GT PUSH2 0x695 JUMPI DUP3 SWAP1 SUB PUSH1 0x1F AND DUP3 ADD SWAP2 JUMPDEST POP POP POP POP POP DUP2 MSTORE POP POP DUP4 DUP4 DUP2 MLOAD DUP2 LT PUSH2 0x6DB JUMPI PUSH4 0x4E487B71 PUSH1 0xE0 SHL PUSH1 0x0 MSTORE PUSH1 0x32 PUSH1 0x4 MSTORE PUSH1 0x24 PUSH1 0x0 REVERT JUMPDEST PUSH1 0x20 MUL PUSH1 0x20 ADD ADD DUP2 SWAP1 MSTORE POP POP DUP1 DUP1 PUSH2 0x6F2 SWAP1 PUSH2 0xACC JUMP JUMPDEST SWAP2 POP POP PUSH2 0x522 JUMP JUMPDEST POP SWAP2 SWAP1 POP JUMP JUMPDEST DUP3 DUP1 SLOAD PUSH2 0x70C SWAP1 PUSH2 0xA97 JUMP JUMPDEST SWAP1 PUSH1 0x0 MSTORE PUSH1 0x20 PUSH1 0x0 KECCAK256 SWAP1 PUSH1 0x1F ADD PUSH1 0x20 SWAP1 DIV DUP2 ADD SWAP3 DUP3 PUSH2 0x72E JUMPI PUSH1 0x0 DUP6 SSTORE PUSH2 0x774 JUMP JUMPDEST DUP3 PUSH1 0x1F LT PUSH2 0x747 JUMPI DUP3 DUP1 ADD PUSH1 0xFF NOT DUP3 CALLDATALOAD AND OR DUP6 SSTORE PUSH2 0x774 JUMP JUMPDEST DUP3 DUP1 ADD PUSH1 0x1 ADD DUP6 SSTORE DUP3 ISZERO PUSH2 0x774 JUMPI SWAP2 DUP3 ADD JUMPDEST DUP3 DUP2 GT ISZERO PUSH2 0x774 JUMPI DUP3 CALLDATALOAD DUP3 SSTORE SWAP2 PUSH1 0x20 ADD SWAP2 SWAP1 PUSH1 0x1 ADD SWAP1 PUSH2 0x759 JUMP JUMPDEST POP PUSH2 0x780 SWAP3 SWAP2 POP PUSH2 0x784 JUMP JUMPDEST POP SWAP1 JUMP JUMPDEST JUMPDEST DUP1 DUP3 GT ISZERO PUSH2 0x780 JUMPI PUSH1 0x0 DUP2 SSTORE PUSH1 0x1 ADD PUSH2 0x785 JUMP JUMPDEST PUSH1 0x0 DUP1 PUSH1 0x0 DUP1 PUSH1 0x0 PUSH1 0x80 DUP7 DUP9 SUB SLT ISZERO PUSH2 0x7B0 JUMPI DUP1 DUP2 REVERT JUMPDEST DUP6 CALLDATALOAD PUSH1 0x1 PUSH1 0x1 PUSH1 0xA0 SHL SUB DUP2 AND DUP2 EQ PUSH2 0x7C6 JUMPI DUP2 DUP3 REVERT JUMPDEST SWAP5 POP PUSH1 0x20 DUP7 ADD CALLDATALOAD SWAP4 POP PUSH1 0x40 DUP7 ADD CALLDATALOAD SWAP3 POP PUSH1 0x60 DUP7 ADD CALLDATALOAD PUSH8 0xFFFFFFFFFFFFFFFF DUP1 DUP3 GT ISZERO PUSH2 0x7F0 JUMPI DUP3 DUP4 REVERT JUMPDEST DUP2 DUP9 ADD SWAP2 POP DUP9 PUSH1 0x1F DUP4 ADD SLT PUSH2 0x803 JUMPI DUP3 DUP4 REVERT JUMPDEST DUP2 CALLDATALOAD DUP2 DUP2 GT ISZERO PUSH2 0x811 JUMPI DUP4 DUP5 REVERT JUMPDEST DUP10 PUSH1 0x20 DUP3 DUP6 ADD ADD GT ISZERO PUSH2 0x822 JUMPI DUP4 DUP5 REVERT JUMPDEST SWAP7 SWAP10 SWAP6 SWAP9 POP SWAP4 SWAP7 POP PUSH1 0x20 ADD SWAP5 SWAP4 SWAP3 POP POP POP JUMP JUMPDEST PUSH1 0x0 PUSH1 0x20 DUP3 DUP5 SUB SLT ISZERO PUSH2 0x846 JUMPI DUP1 DUP2 REVERT JUMPDEST POP CALLDATALOAD SWAP2 SWAP1 POP JUMP JUMPDEST PUSH1 0x0 DUP2 MLOAD DUP1 DUP5 MSTORE PUSH1 0x20 DUP1 DUP6 ADD SWAP5 POP DUP1 DUP5 ADD DUP4 JUMPDEST DUP4 DUP2 LT ISZERO PUSH2 0x87C JUMPI DUP2 MLOAD DUP8 MSTORE SWAP6 DUP3 ADD SWAP6 SWAP1 DUP3 ADD SWAP1 PUSH1 0x1 ADD PUSH2 0x860 JUMP JUMPDEST POP SWAP5 SWAP6 SWAP5 POP POP POP POP POP JUMP JUMPDEST PUSH1 0x0 DUP2 MLOAD DUP1 DUP5 MSTORE DUP2 JUMPDEST DUP2 DUP2 LT ISZERO PUSH2 0x8AC JUMPI PUSH1 0x20 DUP2 DUP6 ADD DUP2 ADD MLOAD DUP7 DUP4 ADD DUP3 ADD MSTORE ADD PUSH2 0x890 JUMP JUMPDEST DUP2 DUP2 GT ISZERO PUSH2 0x8BD JUMPI DUP3 PUSH1 0x20 DUP4 DUP8 ADD ADD MSTORE JUMPDEST POP PUSH1 0x1F ADD PUSH1 0x1F NOT AND SWAP3 SWAP1 SWAP3 ADD PUSH1 0x20 ADD SWAP3 SWAP2 POP POP JUMP JUMPDEST PUSH1 0x1 DUP1 PUSH1 0xA0 SHL SUB DUP7 AND DUP2 MSTORE DUP5 PUSH1 0x20 DUP3 ADD MSTORE DUP4 PUSH1 0x40 DUP3 ADD MSTORE DUP3 PUSH1 0x60 DUP3 ADD MSTORE PUSH1 0xA0 PUSH1 0x80 DUP3 ADD MSTORE PUSH1 0x0 PUSH2 0x46A PUSH1 0xA0 DUP4 ADD DUP5 PUSH2 0x887 JUMP JUMPDEST PUSH1 0x40 DUP1 DUP3 MSTORE DUP4 MLOAD SWAP1 DUP3 ADD DUP2 SWAP1 MSTORE PUSH1 0x0 SWAP1 PUSH1 0x20 SWAP1 PUSH1 0x60 DUP5 ADD SWAP1 DUP3 DUP8 ADD DUP5 JUMPDEST DUP3 DUP2 LT ISZERO PUSH2 0x947 JUMPI DUP2 MLOAD PUSH1 0x1 PUSH1 0x1 PUSH1 0xA0 SHL SUB AND DUP5 MSTORE SWAP3 DUP5 ADD SWAP3 SWAP1 DUP5 ADD SWAP1 PUSH1 0x1 ADD PUSH2 0x922 JUMP JUMPDEST POP POP POP DUP4 DUP2 SUB DUP3 DUP6 ADD MSTORE PUSH2 0x95B DUP2 DUP7 PUSH2 0x84D JUMP JUMPDEST SWAP7 SWAP6 POP POP POP POP POP POP JUMP JUMPDEST PUSH1 0x0 PUSH1 0x20 DUP1 DUP4 ADD DUP2 DUP5 MSTORE DUP1 DUP6 MLOAD DUP1 DUP4 MSTORE PUSH1 0x40 SWAP3 POP DUP3 DUP7 ADD SWAP2 POP DUP3 DUP2 PUSH1 0x5 SHL DUP8 ADD ADD DUP5 DUP9 ADD DUP7 JUMPDEST DUP4 DUP2 LT ISZERO PUSH2 0xA5A JUMPI DUP9 DUP4 SUB PUSH1 0x3F NOT ADD DUP6 MSTORE DUP2 MLOAD DUP1 MLOAD PUSH1 0x1 PUSH1 0x1 PUSH1 0xA0 SHL SUB AND DUP5 MSTORE DUP8 DUP2 ADD MLOAD DUP9 DUP6 ADD MSTORE DUP7 DUP2 ADD MLOAD DUP8 DUP6 ADD MSTORE PUSH1 0x60 DUP1 DUP3 ADD MLOAD SWAP1 DUP6 ADD MSTORE PUSH1 0x80 DUP1 DUP3 ADD MLOAD PUSH1 0xE0 SWAP2 DUP7 ADD DUP3 SWAP1 MSTORE DUP1 MLOAD SWAP2 DUP7 ADD DUP3 SWAP1 MSTORE PUSH2 0x100 DUP7 ADD SWAP2 SWAP1 DUP11 ADD SWAP1 DUP12 JUMPDEST DUP2 DUP2 LT ISZERO PUSH2 0xA0E JUMPI DUP3 MLOAD PUSH1 0x1 PUSH1 0x1 PUSH1 0xA0 SHL SUB AND DUP5 MSTORE PUSH1 0x20 DUP5 ADD SWAP4 POP SWAP2 DUP12 ADD SWAP2 PUSH1 0x1 ADD PUSH2 0x9E7 JUMP JUMPDEST POP POP POP PUSH1 0xA0 DUP1 DUP4 ADD MLOAD DUP7 DUP4 SUB DUP3 DUP9 ADD MSTORE PUSH2 0xA28 DUP4 DUP3 PUSH2 0x84D JUMP JUMPDEST SWAP3 POP POP POP PUSH1 0xC0 DUP1 DUP4 ADD MLOAD SWAP3 POP DUP6 DUP3 SUB DUP2 DUP8 ADD MSTORE POP PUSH2 0xA46 DUP2 DUP4 PUSH2 0x887 JUMP JUMPDEST SWAP7 DUP10 ADD SWAP7 SWAP5 POP POP POP SWAP1 DUP7 ADD SWAP1 PUSH1 0x1 ADD PUSH2 0x98B JUMP JUMPDEST POP SWAP1 SWAP9 SWAP8 POP POP POP POP POP POP POP POP JUMP JUMPDEST PUSH1 0x0 DUP3 NOT DUP3 GT ISZERO PUSH2 0xA7B JUMPI PUSH2 0xA7B PUSH2 0xAE7 JUMP JUMPDEST POP ADD SWAP1 JUMP JUMPDEST PUSH1 0x0 DUP3 DUP3 LT ISZERO PUSH2 0xA92 JUMPI PUSH2 0xA92 PUSH2 0xAE7 JUMP JUMPDEST POP SUB SWAP1 JUMP JUMPDEST PUSH1 0x1 DUP2 DUP2 SHR SWAP1 DUP3 AND DUP1 PUSH2 0xAAB JUMPI PUSH1 0x7F DUP3 AND SWAP2 POP JUMPDEST PUSH1 0x20 DUP3 LT DUP2 EQ ISZERO PUSH2 0x6FA JUMPI PUSH4 0x4E487B71 PUSH1 0xE0 SHL PUSH1 0x0 MSTORE PUSH1 0x22 PUSH1 0x4 MSTORE PUSH1 0x24 PUSH1 0x0 REVERT JUMPDEST PUSH1 0x0 PUSH1 0x0 NOT DUP3 EQ ISZERO PUSH2 0xAE0 JUMPI PUSH2 0xAE0 PUSH2 0xAE7 JUMP JUMPDEST POP PUSH1 0x1 ADD SWAP1 JUMP JUMPDEST PUSH4 0x4E487B71 PUSH1 0xE0 SHL PUSH1 0x0 MSTORE PUSH1 0x11 PUSH1 0x4 MSTORE PUSH1 0x24 PUSH1 0x0 REVERT INVALID LOG2 PUSH5 0x6970667358 0x22 SLT KECCAK256 0xE4 0x1E 0xCF MOD 0xBF REVERT CALLDATASIZE 0xE9 PUSH4 0xF3B46D58 DUP15 0x5F 0xA7 SSTORE GAS 0xBD 0x4D LOG0 CALLCODE EXTCODECOPY COINBASE DIFFICULTY 0xC1 0xFB 0xE4 SELFDESTRUCT DUP10 CALLCODE 0xE8 PUSH5 0x736F6C6343 STOP ADDMOD DIV STOP CALLER "
				},
				"gasEstimates": {
					"creation": {
						"codeDepositCost": "573400",
						"executionCost": "5612",
						"totalCost": "579012"
					},
					"external": {
						"campaigns(uint256)": "infinite",
						"createCampaign(address,uint256,uint256,string)": "infinite",
						"donateToCampaign(uint256)": "infinite",
						"getCampaigns()": "infinite",
						"getDonators(uint256)": "infinite",
						"numberOfCampaigns()": "962"
					}
				},
				"methodIdentifiers": {
					"campaigns(uint256)": "141961bc",
					"createCampaign(address,uint256,uint256,string)": "548ad9ea",
					"donateToCampaign(uint256)": "42a4fda8",
					"getCampaigns()": "a6b03633",
					"getDonators(uint256)": "0fa91fa9",
					"numberOfCampaigns()": "07ca140d"
				}
			},
			"storageLayout": {
				"storage": [
					{
						"astId": 23,
						"contract": "contracts/CrowdFunding.sol:CrowdFunding",
						"label": "campaigns",
						"offset": 0,
						"slot": "0",
						"type": "t_mapping(t_uint256,t_struct(Campaign)18_storage)"
					},
					{
						"astId": 26,
						"contract": "contracts/CrowdFunding.sol:CrowdFunding",
						"label": "numberOfCampaigns",
						"offset": 0,
						"slot": "1",
						"type": "t_uint256"
					}
				],
				"types": {
					"t_address": {
						"encoding": "inplace",
						"label": "address",
						"numberOfBytes": "20"
					},
					"t_array(t_address)dyn_storage": {
						"base": "t_address",
						"encoding": "dynamic_array",
						"label": "address[]",
						"numberOfBytes": "32"
					},
					"t_array(t_uint256)dyn_storage": {
						"base": "t_uint256",
						"encoding": "dynamic_array",
						"label": "uint256[]",
						"numberOfBytes": "32"
					},
					"t_mapping(t_uint256,t_struct(Campaign)18_storage)": {
						"encoding": "mapping",
						"key": "t_uint256",
						"label": "mapping(uint256 => struct CrowdFunding.Campaign)",
						"numberOfBytes": "32",
						"value": "t_struct(Campaign)18_storage"
					},
					"t_string_storage": {
						"encoding": "bytes",
						"label": "string",
						"numberOfBytes": "32"
					},
					"t_struct(Campaign)18_storage": {
						"encoding": "inplace",
						"label": "struct CrowdFunding.Campaign",
						"members": [
							{
								"astId": 3,
								"contract": "contracts/CrowdFunding.sol:CrowdFunding",
								"label": "owner",
								"offset": 0,
								"slot": "0",
								"type": "t_address"
							},
							{
								"astId": 5,
								"contract": "contracts/CrowdFunding.sol:CrowdFunding",
								"label": "target",
								"offset": 0,
								"slot": "1",
								"type": "t_uint256"
							},
							{
								"astId": 7,
								"contract": "contracts/CrowdFunding.sol:CrowdFunding",
								"label": "deadline",
								"offset": 0,
								"slot": "2",
								"type": "t_uint256"
							},
							{
								"astId": 9,
								"contract": "contracts/CrowdFunding.sol:CrowdFunding",
								"label": "amountCollected",
								"offset": 0,
								"slot": "3",
								"type": "t_uint256"
							},
							{
								"astId": 12,
								"contract": "contracts/CrowdFunding.sol:CrowdFunding",
								"label": "donators",
								"offset": 0,
								"slot": "4",
								"type": "t_array(t_address)dyn_storage"
							},
							{
								"astId": 15,
								"contract": "contracts/CrowdFunding.sol:CrowdFunding",
								"label": "donations",
								"offset": 0,
								"slot": "5",
								"type": "t_array(t_uint256)dyn_storage"
							},
							{
								"astId": 17,
								"contract": "contracts/CrowdFunding.sol:CrowdFunding",
								"label": "campaignURI",
								"offset": 0,
								"slot": "6",
								"type": "t_string_storage"
							}
						],
						"numberOfBytes": "224"
					},
					"t_uint256": {
						"encoding": "inplace",
						"label": "uint256",
						"numberOfBytes": "32"
					}
				}
			},
			"userdoc": {
				"kind": "user",
				"methods": {},
				"version": 1
			}
		}
	}
}