{
	"data": {
		"bytecode": {
			"linkReferences": {},
			"object": "60806040523480156200001157600080fd5b5060405162002719380380620027198339810160408190526200003491620000b1565b601a80546001600160a01b038087166001600160a01b03199283168117909355600080549187169183169190911790556017805490911690911790556200007f6201518042620000f8565b601655601891909155601955506200011d9050565b80516001600160a01b0381168114620000ac57600080fd5b919050565b60008060008060808587031215620000c7578384fd5b620000d28562000094565b9350620000e26020860162000094565b6040860151606090960151949790965092505050565b600082198211156200011857634e487b7160e01b81526011600452602481fd5b500190565b6125ec806200012d6000396000f3fe6080604052600436106101b75760003560e01c80635f8ff8ad116100ec578063d1bb5cf11161008a578063f3f4370311610064578063f3f43703146104f4578063f90773f114610521578063fa2af9da14610541578063fbcdd2971461056157600080fd5b8063d1bb5cf114610481578063e5f9fcc2146104a1578063ef296ff6146104c557600080fd5b80637bf46f97116100c65780637bf46f97146103eb578063b28802dd14610401578063b38884bc14610433578063ce606ee01461044957600080fd5b80635f8ff8ad1461038d57806378bc20a8146103a25780637aa440a2146103d857600080fd5b8063313ec04c1161015957806345f9b5151161013357806345f9b5151461033057806350281c781461034357806350da22441461036357806354e658371461037857600080fd5b8063313ec04c146102dd5780633cf2707d146102fd57806342a9026a1461031057600080fd5b80630f6db440116101955780630f6db440146102715780631102610e1461028857806314b62c9b146102a85780632cb71de7146102c857600080fd5b806301ca78f4146101bc5780630833c2be146101f25780630b32ba1914610216575b600080fd5b3480156101c857600080fd5b506101dc6101d7366004612085565b610581565b6040516101e99190612287565b60405180910390f35b3480156101fe57600080fd5b5061020860195481565b6040519081526020016101e9565b34801561022257600080fd5b50610254610231366004612153565b60009081526014602052604090206003810154815460019092015460ff90911692565b6040805193151584526020840192909252908201526060016101e9565b34801561027d57600080fd5b5061028661082a565b005b34801561029457600080fd5b506102866102a3366004612085565b61099f565b3480156102b457600080fd5b506102866102c3366004612153565b6109eb565b3480156102d457600080fd5b506101dc610a1a565b3480156102e957600080fd5b506102866102f8366004612153565b610b2b565b61028661030b36600461216b565b610b5a565b34801561031c57600080fd5b5061028661032b366004612153565b610cbe565b61028661033e366004612118565b610e71565b34801561034f57600080fd5b5061028661035e3660046120c4565b611144565b34801561036f57600080fd5b506102866114f2565b34801561038457600080fd5b50600254610208565b34801561039957600080fd5b50610286611652565b3480156103ae57600080fd5b506102086103bd366004612085565b6001600160a01b031660009081526015602052604090205490565b6102866103e63660046121b0565b6116ee565b3480156103f757600080fd5b5061020860185481565b34801561040d57600080fd5b5061042161041c366004612085565b6119d9565b6040516101e9969594939291906122e8565b34801561043f57600080fd5b5061020860165481565b34801561045557600080fd5b50601a54610469906001600160a01b031681565b6040516001600160a01b0390911681526020016101e9565b34801561048d57600080fd5b50600054610469906001600160a01b031681565b3480156104ad57600080fd5b506104b6611bc7565b6040516101e99392919061243c565b3480156104d157600080fd5b506104e56104e0366004612153565b611cd5565b6040516101e993929190612257565b34801561050057600080fd5b5061020861050f366004612085565b60156020526000908152604090205481565b34801561052d57600080fd5b506104e561053c366004612153565b611d92565b34801561054d57600080fd5b50601754610469906001600160a01b031681565b34801561056d57600080fd5b506104e561057c366004612153565b611da2565b60606000805b6013548110156105fc57836001600160a01b0316601382815481106105bc57634e487b7160e01b600052603260045260246000fd5b60009182526020909120600390910201546001600160a01b031614156105ea57816105e68161255a565b9250505b806105f48161255a565b915050610587565b5060008167ffffffffffffffff81111561062657634e487b7160e01b600052604160045260246000fd5b60405190808252806020026020018201604052801561067357816020015b604080516060808201835260008083526020830152918101919091528152602001906001900390816106445790505b5090506000805b60135481101561082057856001600160a01b0316601382815481106106af57634e487b7160e01b600052603260045260246000fd5b60009182526020909120600390910201546001600160a01b0316141561080e57601381815481106106f057634e487b7160e01b600052603260045260246000fd5b90600052602060002090600302016040518060600160405290816000820160009054906101000a90046001600160a01b03166001600160a01b03166001600160a01b03168152602001600182015481526020016002820180546107529061251f565b80601f016020809104026020016040519081016040528092919081815260200182805461077e9061251f565b80156107cb5780601f106107a0576101008083540402835291602001916107cb565b820191906000526020600020905b8154815290600101906020018083116107ae57829003601f168201915b5050505050815250508383815181106107f457634e487b7160e01b600052603260045260246000fd5b6020026020010181905250818061080a9061255a565b9250505b806108188161255a565b91505061067a565b5090949350505050565b601a546001600160a01b0316331461085d5760405162461bcd60e51b81526004016108549061233d565b60405180910390fd5b60005b6003811015610963576001816003811061088a57634e487b7160e01b600052603260045260246000fd5b60030201600a82600381106108af57634e487b7160e01b600052603260045260246000fd5b82546003919091029190910180546001600160a01b0319166001600160a01b039092169190911781556001808301549082015560028083018054918301916108f69061251f565b610901929190611e6c565b509050506001816003811061092657634e487b7160e01b600052603260045260246000fd5b6003020180546001600160a01b031916815560006001820181905561094e6002830182611ef7565b5050808061095b9061255a565b915050610860565b50610971620151804261249a565b6016556040517f5598f0aa498d639142e121784b3886b87366682ea5297e229bae79bbc376398b90600090a1565b601a546001600160a01b031633146109c95760405162461bcd60e51b81526004016108549061233d565b600080546001600160a01b0319166001600160a01b0392909216919091179055565b601a546001600160a01b03163314610a155760405162461bcd60e51b81526004016108549061233d565b601955565b60606013805480602002602001604051908101604052809291908181526020016000905b82821015610b22576000848152602090819020604080516060810182526003860290920180546001600160a01b0316835260018101549383019390935260028301805492939291840191610a919061251f565b80601f0160208091040260200160405190810160405280929190818152602001828054610abd9061251f565b8015610b0a5780601f10610adf57610100808354040283529160200191610b0a565b820191906000526020600020905b815481529060010190602001808311610aed57829003601f168201915b50505050508152505081526020019060010190610a3e565b50505050905090565b601a546001600160a01b03163314610b555760405162461bcd60e51b81526004016108549061233d565b601855565b600060195483610b6a91906124d2565b9050803414610bae5760405162461bcd60e51b815260206004820152601060248201526f0a0c2f2dacadce840dad2e6dac2e8c6d60831b6044820152606401610854565b6040805160608101825233815260208082018681529282018581526013805460018101825560009190915283517f66de8ffda797e3de9c05e8fc57b3bf0ec28a930d40b0d285d93c06501cf6a090600390920291820180546001600160a01b0319166001600160a01b0390921691909117815594517f66de8ffda797e3de9c05e8fc57b3bf0ec28a930d40b0d285d93c06501cf6a09182015590518051939485949093610c7f937f66de8ffda797e3de9c05e8fc57b3bf0ec28a930d40b0d285d93c06501cf6a09201920190611f34565b50506040518581523391507fa9fb4e738ff0624c7d891a648c37a92c85f214a7a6f3c2e098c247dd7019e67c906020015b60405180910390a250505050565b6000818152601460205260409020600381015460ff16610d205760405162461bcd60e51b815260206004820152601860248201527f54686973204e4654206973206e6f7420626f6f737465642e00000000000000006044820152606401610854565b6000816001015411610d745760405162461bcd60e51b815260206004820152601f60248201527f4e6f206d6f7265207669657773206c65667420666f7220726577617264732e006044820152606401610854565b6001816001016000828254610d8991906124f1565b909155505060028101546001820154610da95760038201805460ff191690555b604051600090339083908381818185875af1925050503d8060008114610deb576040519150601f19603f3d011682016040523d82523d6000602084013e610df0565b606091505b5050905080610e395760405162461bcd60e51b815260206004820152601560248201527408cc2d2d8cac840e8de40e6cadcc8408ca4b08aa89605b1b6044820152606401610854565b604080513381526020810184905285917f20e28d0ec25cd6e7b3ce931db96b9a33e940a54a32e1c0b8379e7660a2828c699101610cb0565b6016544210610eb65760405162461bcd60e51b8152602060048201526011602482015270105d58dd1a5bdb881a185cc8195b991959607a1b6044820152606401610854565b601854341015610f085760405162461bcd60e51b815260206004820181905260248201527f4269642069732062656c6f772074686520726571756972656420616d6f756e746044820152606401610854565b60008060005b60038110156111015760018160038110610f3857634e487b7160e01b600052603260045260246000fd5b60030201600101543411156110ef5780610f62576007546008546001600160a01b03909116935091505b60025b81811115611025576001610f7981836124f1565b60038110610f9757634e487b7160e01b600052603260045260246000fd5b6003020160018260038110610fbc57634e487b7160e01b600052603260045260246000fd5b82546003919091029190910180546001600160a01b0319166001600160a01b039092169190911781556001808301549082015560028083018054918301916110039061251f565b61100e929190611e6c565b50905050808061101d90612508565b915050610f65565b50604080516060810182523381523460208201529081018590526001826003811061106057634e487b7160e01b600052603260045260246000fd5b82516003919091029190910180546001600160a01b0319166001600160a01b039092169190911781556020808301516001830155604083015180516110ab9260028501920190611f34565b50506040513391507ff3f0e40baf8c4982f7b8dcdb71801bc5d48093c485a4c77ac29b0770743646ed906110e29034908890612374565b60405180910390a2611101565b806110f98161255a565b915050610f0e565b506001600160a01b0382161561113f576001600160a01b0382166000908152601560205260408120805483929061113990849061249a565b90915550505b505050565b600081116111945760405162461bcd60e51b815260206004820152601d60248201527f4e6f2073706f747320617661696c61626c6520666f72207468652061640000006044820152606401610854565b600060646111a36014856124d2565b6111ad91906124b2565b905060006111bb82856124f1565b6017546001600160a01b03166000908152601560205260408120805492935084929091906111ea90849061249a565b90915550506001600160a01b0385166000908152601560205260408120805483929061121790849061249a565b90915550506013805460009061123d57634e487b7160e01b600052603260045260246000fd5b60009182526020822060016003909202010180549161125b83612508565b9190505550601360008154811061128257634e487b7160e01b600052603260045260246000fd5b60009182526020822060039091020154601380546001600160a01b03909216927f8b7070842f49f82e644aa4997ae182c3bf7d2c5b00a056c8d458b72b1f5c52d2926112de57634e487b7160e01b600052603260045260246000fd5b906000526020600020906003020160010154601360008154811061131257634e487b7160e01b600052603260045260246000fd5b906000526020600020906003020160020160405161133192919061238d565b60405180910390a2601360008154811061135b57634e487b7160e01b600052603260045260246000fd5b9060005260206000209060030201600101546000141561148b5760138054611385906001906124f1565b815481106113a357634e487b7160e01b600052603260045260246000fd5b906000526020600020906003020160136000815481106113d357634e487b7160e01b600052603260045260246000fd5b60009182526020909120825460039092020180546001600160a01b0319166001600160a01b039092169190911781556001808301549082015560028083018054918301916114209061251f565b61142b929190611e6c565b50905050601380548061144e57634e487b7160e01b600052603160045260246000fd5b60008281526020812060036000199093019283020180546001600160a01b031916815560018101829055906114866002830182611ef7565b505090555b846001600160a01b03167fbfac1f4efc0f40c5e2a6d93573c756badca1be5f0268f0a18df4ce164f7bf0686040516114e3906020808252600c908201526b105908191a5cdc1b185e595960a21b604082015260600190565b60405180910390a25050505050565b6016544210156115395760405162461bcd60e51b815260206004820152601260248201527141756374696f6e206973206f6e676f696e6760701b6044820152606401610854565b60005b600381101561163f576001816003811061156657634e487b7160e01b600052603260045260246000fd5b60030201600a826003811061158b57634e487b7160e01b600052603260045260246000fd5b82546003919091029190910180546001600160a01b0319166001600160a01b039092169190911781556001808301549082015560028083018054918301916115d29061251f565b6115dd929190611e6c565b509050506001816003811061160257634e487b7160e01b600052603260045260246000fd5b6003020180546001600160a01b031916815560006001820181905561162a6002830182611ef7565b505080806116379061255a565b91505061153c565b5061164d620151804261249a565b601655565b33600090815260156020526040902054806116af5760405162461bcd60e51b815260206004820152601760248201527f4e6f206561726e696e677320746f2077697468647261770000000000000000006044820152606401610854565b336000818152601560205260408082208290555183156108fc0291849190818181858888f193505050501580156116ea573d6000803e3d6000fd5b5050565b6000546040516331a9108f60e11b81526004810185905233916001600160a01b031690636352211e9060240160206040518083038186803b15801561173257600080fd5b505afa158015611746573d6000803e3d6000fd5b505050506040513d601f19601f8201168201806040525081019061176a91906120a8565b6001600160a01b0316146117c05760405162461bcd60e51b815260206004820181905260248201527f4f6e6c7920746865204e4654206f776e65722063616e20626f6f73742069742e6044820152606401610854565b81341461181a5760405162461bcd60e51b815260206004820152602260248201527f5472616e736665722074686520636f727265637420626f6f737420616d6f756e6044820152613a1760f11b6064820152608401610854565b600081116118765760405162461bcd60e51b815260206004820152602360248201527f546f74616c207669657773206d7573742062652067726561746572207468616e60448201526210181760e91b6064820152608401610854565b60008381526014602052604090206003015460ff16156118d85760405162461bcd60e51b815260206004820152601c60248201527f54686973204e465420697320616c726561647920626f6f737465642e000000006044820152606401610854565b600060646118e784600a6124d2565b6118f191906124b2565b905060006118ff82856124f1565b9050600061190d84836124b2565b60408051608081018252848152602080820188815282840185815260016060850181815260008e8152601486528781209651875593519186019190915590516002850155516003909301805460ff1916931515939093179092556017546001600160a01b03168252601590529081208054929350859290919061199190849061249a565b9091555050604080518681526020810186905287917f13c501034ada2469d38d3bd2929b0089951cb3d1b9818ca0c77332d86b9e9da9910160405180910390a2505050505050565b600060606000806060600060138054905060001415611a3b575050604080518082018252601081526f4e6f2061647320617661696c61626c6560801b602080830191909152825190810190925260008083529550935084925082915081611bbe565b611a4487611de8565b15611a8f575050604080518082018252600d81526c2b30b63ab0b13632903ab9b2b960991b602080830191909152825190810190925260008083529550935084925082915081611bbe565b60006013600081548110611ab357634e487b7160e01b600052603260045260246000fd5b906000526020600020906003020190506019548160010154611ad591906124d2565b94506001858260010154836002018460000160009054906101000a90046001600160a01b03166040518060400160405280600c81526020016b416420617661696c61626c6560a01b81525093929190818054611b309061251f565b80601f0160208091040260200160405190810160405280929190818152602001828054611b5c9061251f565b8015611ba95780601f10611b7e57610100808354040283529160200191611ba9565b820191906000526020600020905b815481529060010190602001808311611b8c57829003601f168201915b50505050509150965096509650965096509650505b91939550919395565b600080611bd2611fa8565b60165460185460408051606081019091526001908160036000835b82821015611cc4576040805160608101825260038402860180546001600160a01b03168252600181015460208301526002810180549293919291840191611c339061251f565b80601f0160208091040260200160405190810160405280929190818152602001828054611c5f9061251f565b8015611cac5780601f10611c8157610100808354040283529160200191611cac565b820191906000526020600020905b815481529060010190602001808311611c8f57829003601f168201915b50505050508152505081526020019060010190611bed565b505050509050925092509250909192565b600a8160038110611ce557600080fd5b60030201805460018201546002830180546001600160a01b039093169450909291611d0f9061251f565b80601f0160208091040260200160405190810160405280929190818152602001828054611d3b9061251f565b8015611d885780601f10611d5d57610100808354040283529160200191611d88565b820191906000526020600020905b815481529060010190602001808311611d6b57829003601f168201915b5050505050905083565b60018160038110611ce557600080fd5b60138181548110611db257600080fd5b60009182526020909120600390910201805460018201546002830180546001600160a01b039093169450909291611d0f9061251f565b60008054604051633abc236760e11b81526001600160a01b0384811660048301529091169063757846ce9060240160206040518083038186803b158015611e2e57600080fd5b505afa158015611e42573d6000803e3d6000fd5b505050506040513d601f19601f82011682018060405250810190611e6691906120f8565b92915050565b828054611e789061251f565b90600052602060002090601f016020900481019282611e9a5760008555611ee7565b82601f10611eab5780548555611ee7565b82800160010185558215611ee757600052602060002091601f016020900482015b82811115611ee7578254825591600101919060010190611ecc565b50611ef3929150611fe9565b5090565b508054611f039061251f565b6000825580601f10611f13575050565b601f016020900490600052602060002090810190611f319190611fe9565b50565b828054611f409061251f565b90600052602060002090601f016020900481019282611f625760008555611ee7565b82601f10611f7b57805160ff1916838001178555611ee7565b82800160010185558215611ee7579182015b82811115611ee7578251825591602001919060010190611f8d565b60405180606001604052806003905b60408051606080820183526000808352602083015291810191909152815260200190600190039081611fb75790505090565b5b80821115611ef35760008155600101611fea565b600082601f83011261200e578081fd5b813567ffffffffffffffff808211156120295761202961258b565b604051601f8301601f19908116603f011681019082821181831017156120515761205161258b565b81604052838152866020858801011115612069578485fd5b8360208701602083013792830160200193909352509392505050565b600060208284031215612096578081fd5b81356120a1816125a1565b9392505050565b6000602082840312156120b9578081fd5b81516120a1816125a1565b6000806000606084860312156120d8578182fd5b83356120e3816125a1565b95602085013595506040909401359392505050565b600060208284031215612109578081fd5b815180151581146120a1578182fd5b600060208284031215612129578081fd5b813567ffffffffffffffff81111561213f578182fd5b61214b84828501611ffe565b949350505050565b600060208284031215612164578081fd5b5035919050565b6000806040838503121561217d578182fd5b82359150602083013567ffffffffffffffff81111561219a578182fd5b6121a685828601611ffe565b9150509250929050565b6000806000606084860312156121c4578283fd5b505081359360208301359350604090920135919050565b60008151808452815b81811015612200576020818501810151868301820152016121e4565b818111156122115782602083870101525b50601f01601f19169290920160200192915050565b60018060a01b03815116825260208101516020830152600060408201516060604085015261214b60608501826121db565b60018060a01b038416815282602082015260606040820152600061227e60608301846121db565b95945050505050565b6000602080830181845280855180835260408601915060408160051b8701019250838701855b828110156122db57603f198886030184526122c9858351612226565b945092850192908501906001016122ad565b5092979650505050505050565b861515815260c06020820152600061230360c08301886121db565b866040840152856060840152828103608084015261232181866121db565b91505060018060a01b03831660a0830152979650505050505050565b60208082526018908201527f4f6e6c79206f776e65722063616e2063616c6c20746869730000000000000000604082015260600190565b82815260406020820152600061214b60408301846121db565b8281526000602060408184015281845483600182811c9150808316806123b457607f831692505b8583108114156123d257634e487b7160e01b87526022600452602487fd5b60408801839052606088018180156123f157600181146124025761242c565b60ff1986168252878201965061242c565b60008b815260209020895b868110156124265781548482015290850190890161240d565b83019750505b50949a9950505050505050505050565b838152602080820184905260606040830181905260009160c0840191840185845b600381101561248c57605f1987860301835261247a858351612226565b9450918301919083019060010161245d565b509298975050505050505050565b600082198211156124ad576124ad612575565b500190565b6000826124cd57634e487b7160e01b81526012600452602481fd5b500490565b60008160001904831182151516156124ec576124ec612575565b500290565b60008282101561250357612503612575565b500390565b60008161251757612517612575565b506000190190565b600181811c9082168061253357607f821691505b6020821081141561255457634e487b7160e01b600052602260045260246000fd5b50919050565b600060001982141561256e5761256e612575565b5060010190565b634e487b7160e01b600052601160045260246000fd5b634e487b7160e01b600052604160045260246000fd5b6001600160a01b0381168114611f3157600080fdfea264697066735822122083343779d0704034008b4b4c4e3d95f28fa03cbc64ecfdae0a1ba0b64dbf32f664736f6c63430008040033",
			"opcodes": "PUSH1 0x80 PUSH1 0x40 MSTORE CALLVALUE DUP1 ISZERO PUSH3 0x11 JUMPI PUSH1 0x0 DUP1 REVERT JUMPDEST POP PUSH1 0x40 MLOAD PUSH3 0x2719 CODESIZE SUB DUP1 PUSH3 0x2719 DUP4 CODECOPY DUP2 ADD PUSH1 0x40 DUP2 SWAP1 MSTORE PUSH3 0x34 SWAP2 PUSH3 0xB1 JUMP JUMPDEST PUSH1 0x1A DUP1 SLOAD PUSH1 0x1 PUSH1 0x1 PUSH1 0xA0 SHL SUB DUP1 DUP8 AND PUSH1 0x1 PUSH1 0x1 PUSH1 0xA0 SHL SUB NOT SWAP3 DUP4 AND DUP2 OR SWAP1 SWAP4 SSTORE PUSH1 0x0 DUP1 SLOAD SWAP2 DUP8 AND SWAP2 DUP4 AND SWAP2 SWAP1 SWAP2 OR SWAP1 SSTORE PUSH1 0x17 DUP1 SLOAD SWAP1 SWAP2 AND SWAP1 SWAP2 OR SWAP1 SSTORE PUSH3 0x7F PUSH3 0x15180 TIMESTAMP PUSH3 0xF8 JUMP JUMPDEST PUSH1 0x16 SSTORE PUSH1 0x18 SWAP2 SWAP1 SWAP2 SSTORE PUSH1 0x19 SSTORE POP PUSH3 0x11D SWAP1 POP JUMP JUMPDEST DUP1 MLOAD PUSH1 0x1 PUSH1 0x1 PUSH1 0xA0 SHL SUB DUP2 AND DUP2 EQ PUSH3 0xAC JUMPI PUSH1 0x0 DUP1 REVERT JUMPDEST SWAP2 SWAP1 POP JUMP JUMPDEST PUSH1 0x0 DUP1 PUSH1 0x0 DUP1 PUSH1 0x80 DUP6 DUP8 SUB SLT ISZERO PUSH3 0xC7 JUMPI DUP4 DUP5 REVERT JUMPDEST PUSH3 0xD2 DUP6 PUSH3 0x94 JUMP JUMPDEST SWAP4 POP PUSH3 0xE2 PUSH1 0x20 DUP7 ADD PUSH3 0x94 JUMP JUMPDEST PUSH1 0x40 DUP7 ADD MLOAD PUSH1 0x60 SWAP1 SWAP7 ADD MLOAD SWAP5 SWAP8 SWAP1 SWAP7 POP SWAP3 POP POP POP JUMP JUMPDEST PUSH1 0x0 DUP3 NOT DUP3 GT ISZERO PUSH3 0x118 JUMPI PUSH4 0x4E487B71 PUSH1 0xE0 SHL DUP2 MSTORE PUSH1 0x11 PUSH1 0x4 MSTORE PUSH1 0x24 DUP2 REVERT JUMPDEST POP ADD SWAP1 JUMP JUMPDEST PUSH2 0x25EC DUP1 PUSH3 0x12D PUSH1 0x0 CODECOPY PUSH1 0x0 RETURN INVALID PUSH1 0x80 PUSH1 0x40 MSTORE PUSH1 0x4 CALLDATASIZE LT PUSH2 0x1B7 JUMPI PUSH1 0x0 CALLDATALOAD PUSH1 0xE0 SHR DUP1 PUSH4 0x5F8FF8AD GT PUSH2 0xEC JUMPI DUP1 PUSH4 0xD1BB5CF1 GT PUSH2 0x8A JUMPI DUP1 PUSH4 0xF3F43703 GT PUSH2 0x64 JUMPI DUP1 PUSH4 0xF3F43703 EQ PUSH2 0x4F4 JUMPI DUP1 PUSH4 0xF90773F1 EQ PUSH2 0x521 JUMPI DUP1 PUSH4 0xFA2AF9DA EQ PUSH2 0x541 JUMPI DUP1 PUSH4 0xFBCDD297 EQ PUSH2 0x561 JUMPI PUSH1 0x0 DUP1 REVERT JUMPDEST DUP1 PUSH4 0xD1BB5CF1 EQ PUSH2 0x481 JUMPI DUP1 PUSH4 0xE5F9FCC2 EQ PUSH2 0x4A1 JUMPI DUP1 PUSH4 0xEF296FF6 EQ PUSH2 0x4C5 JUMPI PUSH1 0x0 DUP1 REVERT JUMPDEST DUP1 PUSH4 0x7BF46F97 GT PUSH2 0xC6 JUMPI DUP1 PUSH4 0x7BF46F97 EQ PUSH2 0x3EB JUMPI DUP1 PUSH4 0xB28802DD EQ PUSH2 0x401 JUMPI DUP1 PUSH4 0xB38884BC EQ PUSH2 0x433 JUMPI DUP1 PUSH4 0xCE606EE0 EQ PUSH2 0x449 JUMPI PUSH1 0x0 DUP1 REVERT JUMPDEST DUP1 PUSH4 0x5F8FF8AD EQ PUSH2 0x38D JUMPI DUP1 PUSH4 0x78BC20A8 EQ PUSH2 0x3A2 JUMPI DUP1 PUSH4 0x7AA440A2 EQ PUSH2 0x3D8 JUMPI PUSH1 0x0 DUP1 REVERT JUMPDEST DUP1 PUSH4 0x313EC04C GT PUSH2 0x159 JUMPI DUP1 PUSH4 0x45F9B515 GT PUSH2 0x133 JUMPI DUP1 PUSH4 0x45F9B515 EQ PUSH2 0x330 JUMPI DUP1 PUSH4 0x50281C78 EQ PUSH2 0x343 JUMPI DUP1 PUSH4 0x50DA2244 EQ PUSH2 0x363 JUMPI DUP1 PUSH4 0x54E65837 EQ PUSH2 0x378 JUMPI PUSH1 0x0 DUP1 REVERT JUMPDEST DUP1 PUSH4 0x313EC04C EQ PUSH2 0x2DD JUMPI DUP1 PUSH4 0x3CF2707D EQ PUSH2 0x2FD JUMPI DUP1 PUSH4 0x42A9026A EQ PUSH2 0x310 JUMPI PUSH1 0x0 DUP1 REVERT JUMPDEST DUP1 PUSH4 0xF6DB440 GT PUSH2 0x195 JUMPI DUP1 PUSH4 0xF6DB440 EQ PUSH2 0x271 JUMPI DUP1 PUSH4 0x1102610E EQ PUSH2 0x288 JUMPI DUP1 PUSH4 0x14B62C9B EQ PUSH2 0x2A8 JUMPI DUP1 PUSH4 0x2CB71DE7 EQ PUSH2 0x2C8 JUMPI PUSH1 0x0 DUP1 REVERT JUMPDEST DUP1 PUSH4 0x1CA78F4 EQ PUSH2 0x1BC JUMPI DUP1 PUSH4 0x833C2BE EQ PUSH2 0x1F2 JUMPI DUP1 PUSH4 0xB32BA19 EQ PUSH2 0x216 JUMPI JUMPDEST PUSH1 0x0 DUP1 REVERT JUMPDEST CALLVALUE DUP1 ISZERO PUSH2 0x1C8 JUMPI PUSH1 0x0 DUP1 REVERT JUMPDEST POP PUSH2 0x1DC PUSH2 0x1D7 CALLDATASIZE PUSH1 0x4 PUSH2 0x2085 JUMP JUMPDEST PUSH2 0x581 JUMP JUMPDEST PUSH1 0x40 MLOAD PUSH2 0x1E9 SWAP2 SWAP1 PUSH2 0x2287 JUMP JUMPDEST PUSH1 0x40 MLOAD DUP1 SWAP2 SUB SWAP1 RETURN JUMPDEST CALLVALUE DUP1 ISZERO PUSH2 0x1FE JUMPI PUSH1 0x0 DUP1 REVERT JUMPDEST POP PUSH2 0x208 PUSH1 0x19 SLOAD DUP2 JUMP JUMPDEST PUSH1 0x40 MLOAD SWAP1 DUP2 MSTORE PUSH1 0x20 ADD PUSH2 0x1E9 JUMP JUMPDEST CALLVALUE DUP1 ISZERO PUSH2 0x222 JUMPI PUSH1 0x0 DUP1 REVERT JUMPDEST POP PUSH2 0x254 PUSH2 0x231 CALLDATASIZE PUSH1 0x4 PUSH2 0x2153 JUMP JUMPDEST PUSH1 0x0 SWAP1 DUP2 MSTORE PUSH1 0x14 PUSH1 0x20 MSTORE PUSH1 0x40 SWAP1 KECCAK256 PUSH1 0x3 DUP2 ADD SLOAD DUP2 SLOAD PUSH1 0x1 SWAP1 SWAP3 ADD SLOAD PUSH1 0xFF SWAP1 SWAP2 AND SWAP3 JUMP JUMPDEST PUSH1 0x40 DUP1 MLOAD SWAP4 ISZERO ISZERO DUP5 MSTORE PUSH1 0x20 DUP5 ADD SWAP3 SWAP1 SWAP3 MSTORE SWAP1 DUP3 ADD MSTORE PUSH1 0x60 ADD PUSH2 0x1E9 JUMP JUMPDEST CALLVALUE DUP1 ISZERO PUSH2 0x27D JUMPI PUSH1 0x0 DUP1 REVERT JUMPDEST POP PUSH2 0x286 PUSH2 0x82A JUMP JUMPDEST STOP JUMPDEST CALLVALUE DUP1 ISZERO PUSH2 0x294 JUMPI PUSH1 0x0 DUP1 REVERT JUMPDEST POP PUSH2 0x286 PUSH2 0x2A3 CALLDATASIZE PUSH1 0x4 PUSH2 0x2085 JUMP JUMPDEST PUSH2 0x99F JUMP JUMPDEST CALLVALUE DUP1 ISZERO PUSH2 0x2B4 JUMPI PUSH1 0x0 DUP1 REVERT JUMPDEST POP PUSH2 0x286 PUSH2 0x2C3 CALLDATASIZE PUSH1 0x4 PUSH2 0x2153 JUMP JUMPDEST PUSH2 0x9EB JUMP JUMPDEST CALLVALUE DUP1 ISZERO PUSH2 0x2D4 JUMPI PUSH1 0x0 DUP1 REVERT JUMPDEST POP PUSH2 0x1DC PUSH2 0xA1A JUMP JUMPDEST CALLVALUE DUP1 ISZERO PUSH2 0x2E9 JUMPI PUSH1 0x0 DUP1 REVERT JUMPDEST POP PUSH2 0x286 PUSH2 0x2F8 CALLDATASIZE PUSH1 0x4 PUSH2 0x2153 JUMP JUMPDEST PUSH2 0xB2B JUMP JUMPDEST PUSH2 0x286 PUSH2 0x30B CALLDATASIZE PUSH1 0x4 PUSH2 0x216B JUMP JUMPDEST PUSH2 0xB5A JUMP JUMPDEST CALLVALUE DUP1 ISZERO PUSH2 0x31C JUMPI PUSH1 0x0 DUP1 REVERT JUMPDEST POP PUSH2 0x286 PUSH2 0x32B CALLDATASIZE PUSH1 0x4 PUSH2 0x2153 JUMP JUMPDEST PUSH2 0xCBE JUMP JUMPDEST PUSH2 0x286 PUSH2 0x33E CALLDATASIZE PUSH1 0x4 PUSH2 0x2118 JUMP JUMPDEST PUSH2 0xE71 JUMP JUMPDEST CALLVALUE DUP1 ISZERO PUSH2 0x34F JUMPI PUSH1 0x0 DUP1 REVERT JUMPDEST POP PUSH2 0x286 PUSH2 0x35E CALLDATASIZE PUSH1 0x4 PUSH2 0x20C4 JUMP JUMPDEST PUSH2 0x1144 JUMP JUMPDEST CALLVALUE DUP1 ISZERO PUSH2 0x36F JUMPI PUSH1 0x0 DUP1 REVERT JUMPDEST POP PUSH2 0x286 PUSH2 0x14F2 JUMP JUMPDEST CALLVALUE DUP1 ISZERO PUSH2 0x384 JUMPI PUSH1 0x0 DUP1 REVERT JUMPDEST POP PUSH1 0x2 SLOAD PUSH2 0x208 JUMP JUMPDEST CALLVALUE DUP1 ISZERO PUSH2 0x399 JUMPI PUSH1 0x0 DUP1 REVERT JUMPDEST POP PUSH2 0x286 PUSH2 0x1652 JUMP JUMPDEST CALLVALUE DUP1 ISZERO PUSH2 0x3AE JUMPI PUSH1 0x0 DUP1 REVERT JUMPDEST POP PUSH2 0x208 PUSH2 0x3BD CALLDATASIZE PUSH1 0x4 PUSH2 0x2085 JUMP JUMPDEST PUSH1 0x1 PUSH1 0x1 PUSH1 0xA0 SHL SUB AND PUSH1 0x0 SWAP1 DUP2 MSTORE PUSH1 0x15 PUSH1 0x20 MSTORE PUSH1 0x40 SWAP1 KECCAK256 SLOAD SWAP1 JUMP JUMPDEST PUSH2 0x286 PUSH2 0x3E6 CALLDATASIZE PUSH1 0x4 PUSH2 0x21B0 JUMP JUMPDEST PUSH2 0x16EE JUMP JUMPDEST CALLVALUE DUP1 ISZERO PUSH2 0x3F7 JUMPI PUSH1 0x0 DUP1 REVERT JUMPDEST POP PUSH2 0x208 PUSH1 0x18 SLOAD DUP2 JUMP JUMPDEST CALLVALUE DUP1 ISZERO PUSH2 0x40D JUMPI PUSH1 0x0 DUP1 REVERT JUMPDEST POP PUSH2 0x421 PUSH2 0x41C CALLDATASIZE PUSH1 0x4 PUSH2 0x2085 JUMP JUMPDEST PUSH2 0x19D9 JUMP JUMPDEST PUSH1 0x40 MLOAD PUSH2 0x1E9 SWAP7 SWAP6 SWAP5 SWAP4 SWAP3 SWAP2 SWAP1 PUSH2 0x22E8 JUMP JUMPDEST CALLVALUE DUP1 ISZERO PUSH2 0x43F JUMPI PUSH1 0x0 DUP1 REVERT JUMPDEST POP PUSH2 0x208 PUSH1 0x16 SLOAD DUP2 JUMP JUMPDEST CALLVALUE DUP1 ISZERO PUSH2 0x455 JUMPI PUSH1 0x0 DUP1 REVERT JUMPDEST POP PUSH1 0x1A SLOAD PUSH2 0x469 SWAP1 PUSH1 0x1 PUSH1 0x1 PUSH1 0xA0 SHL SUB AND DUP2 JUMP JUMPDEST PUSH1 0x40 MLOAD PUSH1 0x1 PUSH1 0x1 PUSH1 0xA0 SHL SUB SWAP1 SWAP2 AND DUP2 MSTORE PUSH1 0x20 ADD PUSH2 0x1E9 JUMP JUMPDEST CALLVALUE DUP1 ISZERO PUSH2 0x48D JUMPI PUSH1 0x0 DUP1 REVERT JUMPDEST POP PUSH1 0x0 SLOAD PUSH2 0x469 SWAP1 PUSH1 0x1 PUSH1 0x1 PUSH1 0xA0 SHL SUB AND DUP2 JUMP JUMPDEST CALLVALUE DUP1 ISZERO PUSH2 0x4AD JUMPI PUSH1 0x0 DUP1 REVERT JUMPDEST POP PUSH2 0x4B6 PUSH2 0x1BC7 JUMP JUMPDEST PUSH1 0x40 MLOAD PUSH2 0x1E9 SWAP4 SWAP3 SWAP2 SWAP1 PUSH2 0x243C JUMP JUMPDEST CALLVALUE DUP1 ISZERO PUSH2 0x4D1 JUMPI PUSH1 0x0 DUP1 REVERT JUMPDEST POP PUSH2 0x4E5 PUSH2 0x4E0 CALLDATASIZE PUSH1 0x4 PUSH2 0x2153 JUMP JUMPDEST PUSH2 0x1CD5 JUMP JUMPDEST PUSH1 0x40 MLOAD PUSH2 0x1E9 SWAP4 SWAP3 SWAP2 SWAP1 PUSH2 0x2257 JUMP JUMPDEST CALLVALUE DUP1 ISZERO PUSH2 0x500 JUMPI PUSH1 0x0 DUP1 REVERT JUMPDEST POP PUSH2 0x208 PUSH2 0x50F CALLDATASIZE PUSH1 0x4 PUSH2 0x2085 JUMP JUMPDEST PUSH1 0x15 PUSH1 0x20 MSTORE PUSH1 0x0 SWAP1 DUP2 MSTORE PUSH1 0x40 SWAP1 KECCAK256 SLOAD DUP2 JUMP JUMPDEST CALLVALUE DUP1 ISZERO PUSH2 0x52D JUMPI PUSH1 0x0 DUP1 REVERT JUMPDEST POP PUSH2 0x4E5 PUSH2 0x53C CALLDATASIZE PUSH1 0x4 PUSH2 0x2153 JUMP JUMPDEST PUSH2 0x1D92 JUMP JUMPDEST CALLVALUE DUP1 ISZERO PUSH2 0x54D JUMPI PUSH1 0x0 DUP1 REVERT JUMPDEST POP PUSH1 0x17 SLOAD PUSH2 0x469 SWAP1 PUSH1 0x1 PUSH1 0x1 PUSH1 0xA0 SHL SUB AND DUP2 JUMP JUMPDEST CALLVALUE DUP1 ISZERO PUSH2 0x56D JUMPI PUSH1 0x0 DUP1 REVERT JUMPDEST POP PUSH2 0x4E5 PUSH2 0x57C CALLDATASIZE PUSH1 0x4 PUSH2 0x2153 JUMP JUMPDEST PUSH2 0x1DA2 JUMP JUMPDEST PUSH1 0x60 PUSH1 0x0 DUP1 JUMPDEST PUSH1 0x13 SLOAD DUP2 LT ISZERO PUSH2 0x5FC JUMPI DUP4 PUSH1 0x1 PUSH1 0x1 PUSH1 0xA0 SHL SUB AND PUSH1 0x13 DUP3 DUP2 SLOAD DUP2 LT PUSH2 0x5BC JUMPI PUSH4 0x4E487B71 PUSH1 0xE0 SHL PUSH1 0x0 MSTORE PUSH1 0x32 PUSH1 0x4 MSTORE PUSH1 0x24 PUSH1 0x0 REVERT JUMPDEST PUSH1 0x0 SWAP2 DUP3 MSTORE PUSH1 0x20 SWAP1 SWAP2 KECCAK256 PUSH1 0x3 SWAP1 SWAP2 MUL ADD SLOAD PUSH1 0x1 PUSH1 0x1 PUSH1 0xA0 SHL SUB AND EQ ISZERO PUSH2 0x5EA JUMPI DUP2 PUSH2 0x5E6 DUP2 PUSH2 0x255A JUMP JUMPDEST SWAP3 POP POP JUMPDEST DUP1 PUSH2 0x5F4 DUP2 PUSH2 0x255A JUMP JUMPDEST SWAP2 POP POP PUSH2 0x587 JUMP JUMPDEST POP PUSH1 0x0 DUP2 PUSH8 0xFFFFFFFFFFFFFFFF DUP2 GT ISZERO PUSH2 0x626 JUMPI PUSH4 0x4E487B71 PUSH1 0xE0 SHL PUSH1 0x0 MSTORE PUSH1 0x41 PUSH1 0x4 MSTORE PUSH1 0x24 PUSH1 0x0 REVERT JUMPDEST PUSH1 0x40 MLOAD SWAP1 DUP1 DUP3 MSTORE DUP1 PUSH1 0x20 MUL PUSH1 0x20 ADD DUP3 ADD PUSH1 0x40 MSTORE DUP1 ISZERO PUSH2 0x673 JUMPI DUP2 PUSH1 0x20 ADD JUMPDEST PUSH1 0x40 DUP1 MLOAD PUSH1 0x60 DUP1 DUP3 ADD DUP4 MSTORE PUSH1 0x0 DUP1 DUP4 MSTORE PUSH1 0x20 DUP4 ADD MSTORE SWAP2 DUP2 ADD SWAP2 SWAP1 SWAP2 MSTORE DUP2 MSTORE PUSH1 0x20 ADD SWAP1 PUSH1 0x1 SWAP1 SUB SWAP1 DUP2 PUSH2 0x644 JUMPI SWAP1 POP JUMPDEST POP SWAP1 POP PUSH1 0x0 DUP1 JUMPDEST PUSH1 0x13 SLOAD DUP2 LT ISZERO PUSH2 0x820 JUMPI DUP6 PUSH1 0x1 PUSH1 0x1 PUSH1 0xA0 SHL SUB AND PUSH1 0x13 DUP3 DUP2 SLOAD DUP2 LT PUSH2 0x6AF JUMPI PUSH4 0x4E487B71 PUSH1 0xE0 SHL PUSH1 0x0 MSTORE PUSH1 0x32 PUSH1 0x4 MSTORE PUSH1 0x24 PUSH1 0x0 REVERT JUMPDEST PUSH1 0x0 SWAP2 DUP3 MSTORE PUSH1 0x20 SWAP1 SWAP2 KECCAK256 PUSH1 0x3 SWAP1 SWAP2 MUL ADD SLOAD PUSH1 0x1 PUSH1 0x1 PUSH1 0xA0 SHL SUB AND EQ ISZERO PUSH2 0x80E JUMPI PUSH1 0x13 DUP2 DUP2 SLOAD DUP2 LT PUSH2 0x6F0 JUMPI PUSH4 0x4E487B71 PUSH1 0xE0 SHL PUSH1 0x0 MSTORE PUSH1 0x32 PUSH1 0x4 MSTORE PUSH1 0x24 PUSH1 0x0 REVERT JUMPDEST SWAP1 PUSH1 0x0 MSTORE PUSH1 0x20 PUSH1 0x0 KECCAK256 SWAP1 PUSH1 0x3 MUL ADD PUSH1 0x40 MLOAD DUP1 PUSH1 0x60 ADD PUSH1 0x40 MSTORE SWAP1 DUP2 PUSH1 0x0 DUP3 ADD PUSH1 0x0 SWAP1 SLOAD SWAP1 PUSH2 0x100 EXP SWAP1 DIV PUSH1 0x1 PUSH1 0x1 PUSH1 0xA0 SHL SUB AND PUSH1 0x1 PUSH1 0x1 PUSH1 0xA0 SHL SUB AND PUSH1 0x1 PUSH1 0x1 PUSH1 0xA0 SHL SUB AND DUP2 MSTORE PUSH1 0x20 ADD PUSH1 0x1 DUP3 ADD SLOAD DUP2 MSTORE PUSH1 0x20 ADD PUSH1 0x2 DUP3 ADD DUP1 SLOAD PUSH2 0x752 SWAP1 PUSH2 0x251F JUMP JUMPDEST DUP1 PUSH1 0x1F ADD PUSH1 0x20 DUP1 SWAP2 DIV MUL PUSH1 0x20 ADD PUSH1 0x40 MLOAD SWAP1 DUP2 ADD PUSH1 0x40 MSTORE DUP1 SWAP3 SWAP2 SWAP1 DUP2 DUP2 MSTORE PUSH1 0x20 ADD DUP3 DUP1 SLOAD PUSH2 0x77E SWAP1 PUSH2 0x251F JUMP JUMPDEST DUP1 ISZERO PUSH2 0x7CB JUMPI DUP1 PUSH1 0x1F LT PUSH2 0x7A0 JUMPI PUSH2 0x100 DUP1 DUP4 SLOAD DIV MUL DUP4 MSTORE SWAP2 PUSH1 0x20 ADD SWAP2 PUSH2 0x7CB JUMP JUMPDEST DUP3 ADD SWAP2 SWAP1 PUSH1 0x0 MSTORE PUSH1 0x20 PUSH1 0x0 KECCAK256 SWAP1 JUMPDEST DUP2 SLOAD DUP2 MSTORE SWAP1 PUSH1 0x1 ADD SWAP1 PUSH1 0x20 ADD DUP1 DUP4 GT PUSH2 0x7AE JUMPI DUP3 SWAP1 SUB PUSH1 0x1F AND DUP3 ADD SWAP2 JUMPDEST POP POP POP POP POP DUP2 MSTORE POP POP DUP4 DUP4 DUP2 MLOAD DUP2 LT PUSH2 0x7F4 JUMPI PUSH4 0x4E487B71 PUSH1 0xE0 SHL PUSH1 0x0 MSTORE PUSH1 0x32 PUSH1 0x4 MSTORE PUSH1 0x24 PUSH1 0x0 REVERT JUMPDEST PUSH1 0x20 MUL PUSH1 0x20 ADD ADD DUP2 SWAP1 MSTORE POP DUP2 DUP1 PUSH2 0x80A SWAP1 PUSH2 0x255A JUMP JUMPDEST SWAP3 POP POP JUMPDEST DUP1 PUSH2 0x818 DUP2 PUSH2 0x255A JUMP JUMPDEST SWAP2 POP POP PUSH2 0x67A JUMP JUMPDEST POP SWAP1 SWAP5 SWAP4 POP POP POP POP JUMP JUMPDEST PUSH1 0x1A SLOAD PUSH1 0x1 PUSH1 0x1 PUSH1 0xA0 SHL SUB AND CALLER EQ PUSH2 0x85D JUMPI PUSH1 0x40 MLOAD PUSH3 0x461BCD PUSH1 0xE5 SHL DUP2 MSTORE PUSH1 0x4 ADD PUSH2 0x854 SWAP1 PUSH2 0x233D JUMP JUMPDEST PUSH1 0x40 MLOAD DUP1 SWAP2 SUB SWAP1 REVERT JUMPDEST PUSH1 0x0 JUMPDEST PUSH1 0x3 DUP2 LT ISZERO PUSH2 0x963 JUMPI PUSH1 0x1 DUP2 PUSH1 0x3 DUP2 LT PUSH2 0x88A JUMPI PUSH4 0x4E487B71 PUSH1 0xE0 SHL PUSH1 0x0 MSTORE PUSH1 0x32 PUSH1 0x4 MSTORE PUSH1 0x24 PUSH1 0x0 REVERT JUMPDEST PUSH1 0x3 MUL ADD PUSH1 0xA DUP3 PUSH1 0x3 DUP2 LT PUSH2 0x8AF JUMPI PUSH4 0x4E487B71 PUSH1 0xE0 SHL PUSH1 0x0 MSTORE PUSH1 0x32 PUSH1 0x4 MSTORE PUSH1 0x24 PUSH1 0x0 REVERT JUMPDEST DUP3 SLOAD PUSH1 0x3 SWAP2 SWAP1 SWAP2 MUL SWAP2 SWAP1 SWAP2 ADD DUP1 SLOAD PUSH1 0x1 PUSH1 0x1 PUSH1 0xA0 SHL SUB NOT AND PUSH1 0x1 PUSH1 0x1 PUSH1 0xA0 SHL SUB SWAP1 SWAP3 AND SWAP2 SWAP1 SWAP2 OR DUP2 SSTORE PUSH1 0x1 DUP1 DUP4 ADD SLOAD SWAP1 DUP3 ADD SSTORE PUSH1 0x2 DUP1 DUP4 ADD DUP1 SLOAD SWAP2 DUP4 ADD SWAP2 PUSH2 0x8F6 SWAP1 PUSH2 0x251F JUMP JUMPDEST PUSH2 0x901 SWAP3 SWAP2 SWAP1 PUSH2 0x1E6C JUMP JUMPDEST POP SWAP1 POP POP PUSH1 0x1 DUP2 PUSH1 0x3 DUP2 LT PUSH2 0x926 JUMPI PUSH4 0x4E487B71 PUSH1 0xE0 SHL PUSH1 0x0 MSTORE PUSH1 0x32 PUSH1 0x4 MSTORE PUSH1 0x24 PUSH1 0x0 REVERT JUMPDEST PUSH1 0x3 MUL ADD DUP1 SLOAD PUSH1 0x1 PUSH1 0x1 PUSH1 0xA0 SHL SUB NOT AND DUP2 SSTORE PUSH1 0x0 PUSH1 0x1 DUP3 ADD DUP2 SWAP1 SSTORE PUSH2 0x94E PUSH1 0x2 DUP4 ADD DUP3 PUSH2 0x1EF7 JUMP JUMPDEST POP POP DUP1 DUP1 PUSH2 0x95B SWAP1 PUSH2 0x255A JUMP JUMPDEST SWAP2 POP POP PUSH2 0x860 JUMP JUMPDEST POP PUSH2 0x971 PUSH3 0x15180 TIMESTAMP PUSH2 0x249A JUMP JUMPDEST PUSH1 0x16 SSTORE PUSH1 0x40 MLOAD PUSH32 0x5598F0AA498D639142E121784B3886B87366682EA5297E229BAE79BBC376398B SWAP1 PUSH1 0x0 SWAP1 LOG1 JUMP JUMPDEST PUSH1 0x1A SLOAD PUSH1 0x1 PUSH1 0x1 PUSH1 0xA0 SHL SUB AND CALLER EQ PUSH2 0x9C9 JUMPI PUSH1 0x40 MLOAD PUSH3 0x461BCD PUSH1 0xE5 SHL DUP2 MSTORE PUSH1 0x4 ADD PUSH2 0x854 SWAP1 PUSH2 0x233D JUMP JUMPDEST PUSH1 0x0 DUP1 SLOAD PUSH1 0x1 PUSH1 0x1 PUSH1 0xA0 SHL SUB NOT AND PUSH1 0x1 PUSH1 0x1 PUSH1 0xA0 SHL SUB SWAP3 SWAP1 SWAP3 AND SWAP2 SWAP1 SWAP2 OR SWAP1 SSTORE JUMP JUMPDEST PUSH1 0x1A SLOAD PUSH1 0x1 PUSH1 0x1 PUSH1 0xA0 SHL SUB AND CALLER EQ PUSH2 0xA15 JUMPI PUSH1 0x40 MLOAD PUSH3 0x461BCD PUSH1 0xE5 SHL DUP2 MSTORE PUSH1 0x4 ADD PUSH2 0x854 SWAP1 PUSH2 0x233D JUMP JUMPDEST PUSH1 0x19 SSTORE JUMP JUMPDEST PUSH1 0x60 PUSH1 0x13 DUP1 SLOAD DUP1 PUSH1 0x20 MUL PUSH1 0x20 ADD PUSH1 0x40 MLOAD SWAP1 DUP2 ADD PUSH1 0x40 MSTORE DUP1 SWAP3 SWAP2 SWAP1 DUP2 DUP2 MSTORE PUSH1 0x20 ADD PUSH1 0x0 SWAP1 JUMPDEST DUP3 DUP3 LT ISZERO PUSH2 0xB22 JUMPI PUSH1 0x0 DUP5 DUP2 MSTORE PUSH1 0x20 SWAP1 DUP2 SWAP1 KECCAK256 PUSH1 0x40 DUP1 MLOAD PUSH1 0x60 DUP2 ADD DUP3 MSTORE PUSH1 0x3 DUP7 MUL SWAP1 SWAP3 ADD DUP1 SLOAD PUSH1 0x1 PUSH1 0x1 PUSH1 0xA0 SHL SUB AND DUP4 MSTORE PUSH1 0x1 DUP2 ADD SLOAD SWAP4 DUP4 ADD SWAP4 SWAP1 SWAP4 MSTORE PUSH1 0x2 DUP4 ADD DUP1 SLOAD SWAP3 SWAP4 SWAP3 SWAP2 DUP5 ADD SWAP2 PUSH2 0xA91 SWAP1 PUSH2 0x251F JUMP JUMPDEST DUP1 PUSH1 0x1F ADD PUSH1 0x20 DUP1 SWAP2 DIV MUL PUSH1 0x20 ADD PUSH1 0x40 MLOAD SWAP1 DUP2 ADD PUSH1 0x40 MSTORE DUP1 SWAP3 SWAP2 SWAP1 DUP2 DUP2 MSTORE PUSH1 0x20 ADD DUP3 DUP1 SLOAD PUSH2 0xABD SWAP1 PUSH2 0x251F JUMP JUMPDEST DUP1 ISZERO PUSH2 0xB0A JUMPI DUP1 PUSH1 0x1F LT PUSH2 0xADF JUMPI PUSH2 0x100 DUP1 DUP4 SLOAD DIV MUL DUP4 MSTORE SWAP2 PUSH1 0x20 ADD SWAP2 PUSH2 0xB0A JUMP JUMPDEST DUP3 ADD SWAP2 SWAP1 PUSH1 0x0 MSTORE PUSH1 0x20 PUSH1 0x0 KECCAK256 SWAP1 JUMPDEST DUP2 SLOAD DUP2 MSTORE SWAP1 PUSH1 0x1 ADD SWAP1 PUSH1 0x20 ADD DUP1 DUP4 GT PUSH2 0xAED JUMPI DUP3 SWAP1 SUB PUSH1 0x1F AND DUP3 ADD SWAP2 JUMPDEST POP POP POP POP POP DUP2 MSTORE POP POP DUP2 MSTORE PUSH1 0x20 ADD SWAP1 PUSH1 0x1 ADD SWAP1 PUSH2 0xA3E JUMP JUMPDEST POP POP POP POP SWAP1 POP SWAP1 JUMP JUMPDEST PUSH1 0x1A SLOAD PUSH1 0x1 PUSH1 0x1 PUSH1 0xA0 SHL SUB AND CALLER EQ PUSH2 0xB55 JUMPI PUSH1 0x40 MLOAD PUSH3 0x461BCD PUSH1 0xE5 SHL DUP2 MSTORE PUSH1 0x4 ADD PUSH2 0x854 SWAP1 PUSH2 0x233D JUMP JUMPDEST PUSH1 0x18 SSTORE JUMP JUMPDEST PUSH1 0x0 PUSH1 0x19 SLOAD DUP4 PUSH2 0xB6A SWAP2 SWAP1 PUSH2 0x24D2 JUMP JUMPDEST SWAP1 POP DUP1 CALLVALUE EQ PUSH2 0xBAE JUMPI PUSH1 0x40 MLOAD PUSH3 0x461BCD PUSH1 0xE5 SHL DUP2 MSTORE PUSH1 0x20 PUSH1 0x4 DUP3 ADD MSTORE PUSH1 0x10 PUSH1 0x24 DUP3 ADD MSTORE PUSH16 0xA0C2F2DACADCE840DAD2E6DAC2E8C6D PUSH1 0x83 SHL PUSH1 0x44 DUP3 ADD MSTORE PUSH1 0x64 ADD PUSH2 0x854 JUMP JUMPDEST PUSH1 0x40 DUP1 MLOAD PUSH1 0x60 DUP2 ADD DUP3 MSTORE CALLER DUP2 MSTORE PUSH1 0x20 DUP1 DUP3 ADD DUP7 DUP2 MSTORE SWAP3 DUP3 ADD DUP6 DUP2 MSTORE PUSH1 0x13 DUP1 SLOAD PUSH1 0x1 DUP2 ADD DUP3 SSTORE PUSH1 0x0 SWAP2 SWAP1 SWAP2 MSTORE DUP4 MLOAD PUSH32 0x66DE8FFDA797E3DE9C05E8FC57B3BF0EC28A930D40B0D285D93C06501CF6A090 PUSH1 0x3 SWAP1 SWAP3 MUL SWAP2 DUP3 ADD DUP1 SLOAD PUSH1 0x1 PUSH1 0x1 PUSH1 0xA0 SHL SUB NOT AND PUSH1 0x1 PUSH1 0x1 PUSH1 0xA0 SHL SUB SWAP1 SWAP3 AND SWAP2 SWAP1 SWAP2 OR DUP2 SSTORE SWAP5 MLOAD PUSH32 0x66DE8FFDA797E3DE9C05E8FC57B3BF0EC28A930D40B0D285D93C06501CF6A091 DUP3 ADD SSTORE SWAP1 MLOAD DUP1 MLOAD SWAP4 SWAP5 DUP6 SWAP5 SWAP1 SWAP4 PUSH2 0xC7F SWAP4 PUSH32 0x66DE8FFDA797E3DE9C05E8FC57B3BF0EC28A930D40B0D285D93C06501CF6A092 ADD SWAP3 ADD SWAP1 PUSH2 0x1F34 JUMP JUMPDEST POP POP PUSH1 0x40 MLOAD DUP6 DUP2 MSTORE CALLER SWAP2 POP PUSH32 0xA9FB4E738FF0624C7D891A648C37A92C85F214A7A6F3C2E098C247DD7019E67C SWAP1 PUSH1 0x20 ADD JUMPDEST PUSH1 0x40 MLOAD DUP1 SWAP2 SUB SWAP1 LOG2 POP POP POP POP JUMP JUMPDEST PUSH1 0x0 DUP2 DUP2 MSTORE PUSH1 0x14 PUSH1 0x20 MSTORE PUSH1 0x40 SWAP1 KECCAK256 PUSH1 0x3 DUP2 ADD SLOAD PUSH1 0xFF AND PUSH2 0xD20 JUMPI PUSH1 0x40 MLOAD PUSH3 0x461BCD PUSH1 0xE5 SHL DUP2 MSTORE PUSH1 0x20 PUSH1 0x4 DUP3 ADD MSTORE PUSH1 0x18 PUSH1 0x24 DUP3 ADD MSTORE PUSH32 0x54686973204E4654206973206E6F7420626F6F737465642E0000000000000000 PUSH1 0x44 DUP3 ADD MSTORE PUSH1 0x64 ADD PUSH2 0x854 JUMP JUMPDEST PUSH1 0x0 DUP2 PUSH1 0x1 ADD SLOAD GT PUSH2 0xD74 JUMPI PUSH1 0x40 MLOAD PUSH3 0x461BCD PUSH1 0xE5 SHL DUP2 MSTORE PUSH1 0x20 PUSH1 0x4 DUP3 ADD MSTORE PUSH1 0x1F PUSH1 0x24 DUP3 ADD MSTORE PUSH32 0x4E6F206D6F7265207669657773206C65667420666F7220726577617264732E00 PUSH1 0x44 DUP3 ADD MSTORE PUSH1 0x64 ADD PUSH2 0x854 JUMP JUMPDEST PUSH1 0x1 DUP2 PUSH1 0x1 ADD PUSH1 0x0 DUP3 DUP3 SLOAD PUSH2 0xD89 SWAP2 SWAP1 PUSH2 0x24F1 JUMP JUMPDEST SWAP1 SWAP2 SSTORE POP POP PUSH1 0x2 DUP2 ADD SLOAD PUSH1 0x1 DUP3 ADD SLOAD PUSH2 0xDA9 JUMPI PUSH1 0x3 DUP3 ADD DUP1 SLOAD PUSH1 0xFF NOT AND SWAP1 SSTORE JUMPDEST PUSH1 0x40 MLOAD PUSH1 0x0 SWAP1 CALLER SWAP1 DUP4 SWAP1 DUP4 DUP2 DUP2 DUP2 DUP6 DUP8 GAS CALL SWAP3 POP POP POP RETURNDATASIZE DUP1 PUSH1 0x0 DUP2 EQ PUSH2 0xDEB JUMPI PUSH1 0x40 MLOAD SWAP2 POP PUSH1 0x1F NOT PUSH1 0x3F RETURNDATASIZE ADD AND DUP3 ADD PUSH1 0x40 MSTORE RETURNDATASIZE DUP3 MSTORE RETURNDATASIZE PUSH1 0x0 PUSH1 0x20 DUP5 ADD RETURNDATACOPY PUSH2 0xDF0 JUMP JUMPDEST PUSH1 0x60 SWAP2 POP JUMPDEST POP POP SWAP1 POP DUP1 PUSH2 0xE39 JUMPI PUSH1 0x40 MLOAD PUSH3 0x461BCD PUSH1 0xE5 SHL DUP2 MSTORE PUSH1 0x20 PUSH1 0x4 DUP3 ADD MSTORE PUSH1 0x15 PUSH1 0x24 DUP3 ADD MSTORE PUSH21 0x8CC2D2D8CAC840E8DE40E6CADCC8408CA4B08AA89 PUSH1 0x5B SHL PUSH1 0x44 DUP3 ADD MSTORE PUSH1 0x64 ADD PUSH2 0x854 JUMP JUMPDEST PUSH1 0x40 DUP1 MLOAD CALLER DUP2 MSTORE PUSH1 0x20 DUP2 ADD DUP5 SWAP1 MSTORE DUP6 SWAP2 PUSH32 0x20E28D0EC25CD6E7B3CE931DB96B9A33E940A54A32E1C0B8379E7660A2828C69 SWAP2 ADD PUSH2 0xCB0 JUMP JUMPDEST PUSH1 0x16 SLOAD TIMESTAMP LT PUSH2 0xEB6 JUMPI PUSH1 0x40 MLOAD PUSH3 0x461BCD PUSH1 0xE5 SHL DUP2 MSTORE PUSH1 0x20 PUSH1 0x4 DUP3 ADD MSTORE PUSH1 0x11 PUSH1 0x24 DUP3 ADD MSTORE PUSH17 0x105D58DD1A5BDB881A185CC8195B991959 PUSH1 0x7A SHL PUSH1 0x44 DUP3 ADD MSTORE PUSH1 0x64 ADD PUSH2 0x854 JUMP JUMPDEST PUSH1 0x18 SLOAD CALLVALUE LT ISZERO PUSH2 0xF08 JUMPI PUSH1 0x40 MLOAD PUSH3 0x461BCD PUSH1 0xE5 SHL DUP2 MSTORE PUSH1 0x20 PUSH1 0x4 DUP3 ADD DUP2 SWAP1 MSTORE PUSH1 0x24 DUP3 ADD MSTORE PUSH32 0x4269642069732062656C6F772074686520726571756972656420616D6F756E74 PUSH1 0x44 DUP3 ADD MSTORE PUSH1 0x64 ADD PUSH2 0x854 JUMP JUMPDEST PUSH1 0x0 DUP1 PUSH1 0x0 JUMPDEST PUSH1 0x3 DUP2 LT ISZERO PUSH2 0x1101 JUMPI PUSH1 0x1 DUP2 PUSH1 0x3 DUP2 LT PUSH2 0xF38 JUMPI PUSH4 0x4E487B71 PUSH1 0xE0 SHL PUSH1 0x0 MSTORE PUSH1 0x32 PUSH1 0x4 MSTORE PUSH1 0x24 PUSH1 0x0 REVERT JUMPDEST PUSH1 0x3 MUL ADD PUSH1 0x1 ADD SLOAD CALLVALUE GT ISZERO PUSH2 0x10EF JUMPI DUP1 PUSH2 0xF62 JUMPI PUSH1 0x7 SLOAD PUSH1 0x8 SLOAD PUSH1 0x1 PUSH1 0x1 PUSH1 0xA0 SHL SUB SWAP1 SWAP2 AND SWAP4 POP SWAP2 POP JUMPDEST PUSH1 0x2 JUMPDEST DUP2 DUP2 GT ISZERO PUSH2 0x1025 JUMPI PUSH1 0x1 PUSH2 0xF79 DUP2 DUP4 PUSH2 0x24F1 JUMP JUMPDEST PUSH1 0x3 DUP2 LT PUSH2 0xF97 JUMPI PUSH4 0x4E487B71 PUSH1 0xE0 SHL PUSH1 0x0 MSTORE PUSH1 0x32 PUSH1 0x4 MSTORE PUSH1 0x24 PUSH1 0x0 REVERT JUMPDEST PUSH1 0x3 MUL ADD PUSH1 0x1 DUP3 PUSH1 0x3 DUP2 LT PUSH2 0xFBC JUMPI PUSH4 0x4E487B71 PUSH1 0xE0 SHL PUSH1 0x0 MSTORE PUSH1 0x32 PUSH1 0x4 MSTORE PUSH1 0x24 PUSH1 0x0 REVERT JUMPDEST DUP3 SLOAD PUSH1 0x3 SWAP2 SWAP1 SWAP2 MUL SWAP2 SWAP1 SWAP2 ADD DUP1 SLOAD PUSH1 0x1 PUSH1 0x1 PUSH1 0xA0 SHL SUB NOT AND PUSH1 0x1 PUSH1 0x1 PUSH1 0xA0 SHL SUB SWAP1 SWAP3 AND SWAP2 SWAP1 SWAP2 OR DUP2 SSTORE PUSH1 0x1 DUP1 DUP4 ADD SLOAD SWAP1 DUP3 ADD SSTORE PUSH1 0x2 DUP1 DUP4 ADD DUP1 SLOAD SWAP2 DUP4 ADD SWAP2 PUSH2 0x1003 SWAP1 PUSH2 0x251F JUMP JUMPDEST PUSH2 0x100E SWAP3 SWAP2 SWAP1 PUSH2 0x1E6C JUMP JUMPDEST POP SWAP1 POP POP DUP1 DUP1 PUSH2 0x101D SWAP1 PUSH2 0x2508 JUMP JUMPDEST SWAP2 POP POP PUSH2 0xF65 JUMP JUMPDEST POP PUSH1 0x40 DUP1 MLOAD PUSH1 0x60 DUP2 ADD DUP3 MSTORE CALLER DUP2 MSTORE CALLVALUE PUSH1 0x20 DUP3 ADD MSTORE SWAP1 DUP2 ADD DUP6 SWAP1 MSTORE PUSH1 0x1 DUP3 PUSH1 0x3 DUP2 LT PUSH2 0x1060 JUMPI PUSH4 0x4E487B71 PUSH1 0xE0 SHL PUSH1 0x0 MSTORE PUSH1 0x32 PUSH1 0x4 MSTORE PUSH1 0x24 PUSH1 0x0 REVERT JUMPDEST DUP3 MLOAD PUSH1 0x3 SWAP2 SWAP1 SWAP2 MUL SWAP2 SWAP1 SWAP2 ADD DUP1 SLOAD PUSH1 0x1 PUSH1 0x1 PUSH1 0xA0 SHL SUB NOT AND PUSH1 0x1 PUSH1 0x1 PUSH1 0xA0 SHL SUB SWAP1 SWAP3 AND SWAP2 SWAP1 SWAP2 OR DUP2 SSTORE PUSH1 0x20 DUP1 DUP4 ADD MLOAD PUSH1 0x1 DUP4 ADD SSTORE PUSH1 0x40 DUP4 ADD MLOAD DUP1 MLOAD PUSH2 0x10AB SWAP3 PUSH1 0x2 DUP6 ADD SWAP3 ADD SWAP1 PUSH2 0x1F34 JUMP JUMPDEST POP POP PUSH1 0x40 MLOAD CALLER SWAP2 POP PUSH32 0xF3F0E40BAF8C4982F7B8DCDB71801BC5D48093C485A4C77AC29B0770743646ED SWAP1 PUSH2 0x10E2 SWAP1 CALLVALUE SWAP1 DUP9 SWAP1 PUSH2 0x2374 JUMP JUMPDEST PUSH1 0x40 MLOAD DUP1 SWAP2 SUB SWAP1 LOG2 PUSH2 0x1101 JUMP JUMPDEST DUP1 PUSH2 0x10F9 DUP2 PUSH2 0x255A JUMP JUMPDEST SWAP2 POP POP PUSH2 0xF0E JUMP JUMPDEST POP PUSH1 0x1 PUSH1 0x1 PUSH1 0xA0 SHL SUB DUP3 AND ISZERO PUSH2 0x113F JUMPI PUSH1 0x1 PUSH1 0x1 PUSH1 0xA0 SHL SUB DUP3 AND PUSH1 0x0 SWAP1 DUP2 MSTORE PUSH1 0x15 PUSH1 0x20 MSTORE PUSH1 0x40 DUP2 KECCAK256 DUP1 SLOAD DUP4 SWAP3 SWAP1 PUSH2 0x1139 SWAP1 DUP5 SWAP1 PUSH2 0x249A JUMP JUMPDEST SWAP1 SWAP2 SSTORE POP POP JUMPDEST POP POP POP JUMP JUMPDEST PUSH1 0x0 DUP2 GT PUSH2 0x1194 JUMPI PUSH1 0x40 MLOAD PUSH3 0x461BCD PUSH1 0xE5 SHL DUP2 MSTORE PUSH1 0x20 PUSH1 0x4 DUP3 ADD MSTORE PUSH1 0x1D PUSH1 0x24 DUP3 ADD MSTORE PUSH32 0x4E6F2073706F747320617661696C61626C6520666F7220746865206164000000 PUSH1 0x44 DUP3 ADD MSTORE PUSH1 0x64 ADD PUSH2 0x854 JUMP JUMPDEST PUSH1 0x0 PUSH1 0x64 PUSH2 0x11A3 PUSH1 0x14 DUP6 PUSH2 0x24D2 JUMP JUMPDEST PUSH2 0x11AD SWAP2 SWAP1 PUSH2 0x24B2 JUMP JUMPDEST SWAP1 POP PUSH1 0x0 PUSH2 0x11BB DUP3 DUP6 PUSH2 0x24F1 JUMP JUMPDEST PUSH1 0x17 SLOAD PUSH1 0x1 PUSH1 0x1 PUSH1 0xA0 SHL SUB AND PUSH1 0x0 SWAP1 DUP2 MSTORE PUSH1 0x15 PUSH1 0x20 MSTORE PUSH1 0x40 DUP2 KECCAK256 DUP1 SLOAD SWAP3 SWAP4 POP DUP5 SWAP3 SWAP1 SWAP2 SWAP1 PUSH2 0x11EA SWAP1 DUP5 SWAP1 PUSH2 0x249A JUMP JUMPDEST SWAP1 SWAP2 SSTORE POP POP PUSH1 0x1 PUSH1 0x1 PUSH1 0xA0 SHL SUB DUP6 AND PUSH1 0x0 SWAP1 DUP2 MSTORE PUSH1 0x15 PUSH1 0x20 MSTORE PUSH1 0x40 DUP2 KECCAK256 DUP1 SLOAD DUP4 SWAP3 SWAP1 PUSH2 0x1217 SWAP1 DUP5 SWAP1 PUSH2 0x249A JUMP JUMPDEST SWAP1 SWAP2 SSTORE POP POP PUSH1 0x13 DUP1 SLOAD PUSH1 0x0 SWAP1 PUSH2 0x123D JUMPI PUSH4 0x4E487B71 PUSH1 0xE0 SHL PUSH1 0x0 MSTORE PUSH1 0x32 PUSH1 0x4 MSTORE PUSH1 0x24 PUSH1 0x0 REVERT JUMPDEST PUSH1 0x0 SWAP2 DUP3 MSTORE PUSH1 0x20 DUP3 KECCAK256 PUSH1 0x1 PUSH1 0x3 SWAP1 SWAP3 MUL ADD ADD DUP1 SLOAD SWAP2 PUSH2 0x125B DUP4 PUSH2 0x2508 JUMP JUMPDEST SWAP2 SWAP1 POP SSTORE POP PUSH1 0x13 PUSH1 0x0 DUP2 SLOAD DUP2 LT PUSH2 0x1282 JUMPI PUSH4 0x4E487B71 PUSH1 0xE0 SHL PUSH1 0x0 MSTORE PUSH1 0x32 PUSH1 0x4 MSTORE PUSH1 0x24 PUSH1 0x0 REVERT JUMPDEST PUSH1 0x0 SWAP2 DUP3 MSTORE PUSH1 0x20 DUP3 KECCAK256 PUSH1 0x3 SWAP1 SWAP2 MUL ADD SLOAD PUSH1 0x13 DUP1 SLOAD PUSH1 0x1 PUSH1 0x1 PUSH1 0xA0 SHL SUB SWAP1 SWAP3 AND SWAP3 PUSH32 0x8B7070842F49F82E644AA4997AE182C3BF7D2C5B00A056C8D458B72B1F5C52D2 SWAP3 PUSH2 0x12DE JUMPI PUSH4 0x4E487B71 PUSH1 0xE0 SHL PUSH1 0x0 MSTORE PUSH1 0x32 PUSH1 0x4 MSTORE PUSH1 0x24 PUSH1 0x0 REVERT JUMPDEST SWAP1 PUSH1 0x0 MSTORE PUSH1 0x20 PUSH1 0x0 KECCAK256 SWAP1 PUSH1 0x3 MUL ADD PUSH1 0x1 ADD SLOAD PUSH1 0x13 PUSH1 0x0 DUP2 SLOAD DUP2 LT PUSH2 0x1312 JUMPI PUSH4 0x4E487B71 PUSH1 0xE0 SHL PUSH1 0x0 MSTORE PUSH1 0x32 PUSH1 0x4 MSTORE PUSH1 0x24 PUSH1 0x0 REVERT JUMPDEST SWAP1 PUSH1 0x0 MSTORE PUSH1 0x20 PUSH1 0x0 KECCAK256 SWAP1 PUSH1 0x3 MUL ADD PUSH1 0x2 ADD PUSH1 0x40 MLOAD PUSH2 0x1331 SWAP3 SWAP2 SWAP1 PUSH2 0x238D JUMP JUMPDEST PUSH1 0x40 MLOAD DUP1 SWAP2 SUB SWAP1 LOG2 PUSH1 0x13 PUSH1 0x0 DUP2 SLOAD DUP2 LT PUSH2 0x135B JUMPI PUSH4 0x4E487B71 PUSH1 0xE0 SHL PUSH1 0x0 MSTORE PUSH1 0x32 PUSH1 0x4 MSTORE PUSH1 0x24 PUSH1 0x0 REVERT JUMPDEST SWAP1 PUSH1 0x0 MSTORE PUSH1 0x20 PUSH1 0x0 KECCAK256 SWAP1 PUSH1 0x3 MUL ADD PUSH1 0x1 ADD SLOAD PUSH1 0x0 EQ ISZERO PUSH2 0x148B JUMPI PUSH1 0x13 DUP1 SLOAD PUSH2 0x1385 SWAP1 PUSH1 0x1 SWAP1 PUSH2 0x24F1 JUMP JUMPDEST DUP2 SLOAD DUP2 LT PUSH2 0x13A3 JUMPI PUSH4 0x4E487B71 PUSH1 0xE0 SHL PUSH1 0x0 MSTORE PUSH1 0x32 PUSH1 0x4 MSTORE PUSH1 0x24 PUSH1 0x0 REVERT JUMPDEST SWAP1 PUSH1 0x0 MSTORE PUSH1 0x20 PUSH1 0x0 KECCAK256 SWAP1 PUSH1 0x3 MUL ADD PUSH1 0x13 PUSH1 0x0 DUP2 SLOAD DUP2 LT PUSH2 0x13D3 JUMPI PUSH4 0x4E487B71 PUSH1 0xE0 SHL PUSH1 0x0 MSTORE PUSH1 0x32 PUSH1 0x4 MSTORE PUSH1 0x24 PUSH1 0x0 REVERT JUMPDEST PUSH1 0x0 SWAP2 DUP3 MSTORE PUSH1 0x20 SWAP1 SWAP2 KECCAK256 DUP3 SLOAD PUSH1 0x3 SWAP1 SWAP3 MUL ADD DUP1 SLOAD PUSH1 0x1 PUSH1 0x1 PUSH1 0xA0 SHL SUB NOT AND PUSH1 0x1 PUSH1 0x1 PUSH1 0xA0 SHL SUB SWAP1 SWAP3 AND SWAP2 SWAP1 SWAP2 OR DUP2 SSTORE PUSH1 0x1 DUP1 DUP4 ADD SLOAD SWAP1 DUP3 ADD SSTORE PUSH1 0x2 DUP1 DUP4 ADD DUP1 SLOAD SWAP2 DUP4 ADD SWAP2 PUSH2 0x1420 SWAP1 PUSH2 0x251F JUMP JUMPDEST PUSH2 0x142B SWAP3 SWAP2 SWAP1 PUSH2 0x1E6C JUMP JUMPDEST POP SWAP1 POP POP PUSH1 0x13 DUP1 SLOAD DUP1 PUSH2 0x144E JUMPI PUSH4 0x4E487B71 PUSH1 0xE0 SHL PUSH1 0x0 MSTORE PUSH1 0x31 PUSH1 0x4 MSTORE PUSH1 0x24 PUSH1 0x0 REVERT JUMPDEST PUSH1 0x0 DUP3 DUP2 MSTORE PUSH1 0x20 DUP2 KECCAK256 PUSH1 0x3 PUSH1 0x0 NOT SWAP1 SWAP4 ADD SWAP3 DUP4 MUL ADD DUP1 SLOAD PUSH1 0x1 PUSH1 0x1 PUSH1 0xA0 SHL SUB NOT AND DUP2 SSTORE PUSH1 0x1 DUP2 ADD DUP3 SWAP1 SSTORE SWAP1 PUSH2 0x1486 PUSH1 0x2 DUP4 ADD DUP3 PUSH2 0x1EF7 JUMP JUMPDEST POP POP SWAP1 SSTORE JUMPDEST DUP5 PUSH1 0x1 PUSH1 0x1 PUSH1 0xA0 SHL SUB AND PUSH32 0xBFAC1F4EFC0F40C5E2A6D93573C756BADCA1BE5F0268F0A18DF4CE164F7BF068 PUSH1 0x40 MLOAD PUSH2 0x14E3 SWAP1 PUSH1 0x20 DUP1 DUP3 MSTORE PUSH1 0xC SWAP1 DUP3 ADD MSTORE PUSH12 0x105908191A5CDC1B185E5959 PUSH1 0xA2 SHL PUSH1 0x40 DUP3 ADD MSTORE PUSH1 0x60 ADD SWAP1 JUMP JUMPDEST PUSH1 0x40 MLOAD DUP1 SWAP2 SUB SWAP1 LOG2 POP POP POP POP POP JUMP JUMPDEST PUSH1 0x16 SLOAD TIMESTAMP LT ISZERO PUSH2 0x1539 JUMPI PUSH1 0x40 MLOAD PUSH3 0x461BCD PUSH1 0xE5 SHL DUP2 MSTORE PUSH1 0x20 PUSH1 0x4 DUP3 ADD MSTORE PUSH1 0x12 PUSH1 0x24 DUP3 ADD MSTORE PUSH18 0x41756374696F6E206973206F6E676F696E67 PUSH1 0x70 SHL PUSH1 0x44 DUP3 ADD MSTORE PUSH1 0x64 ADD PUSH2 0x854 JUMP JUMPDEST PUSH1 0x0 JUMPDEST PUSH1 0x3 DUP2 LT ISZERO PUSH2 0x163F JUMPI PUSH1 0x1 DUP2 PUSH1 0x3 DUP2 LT PUSH2 0x1566 JUMPI PUSH4 0x4E487B71 PUSH1 0xE0 SHL PUSH1 0x0 MSTORE PUSH1 0x32 PUSH1 0x4 MSTORE PUSH1 0x24 PUSH1 0x0 REVERT JUMPDEST PUSH1 0x3 MUL ADD PUSH1 0xA DUP3 PUSH1 0x3 DUP2 LT PUSH2 0x158B JUMPI PUSH4 0x4E487B71 PUSH1 0xE0 SHL PUSH1 0x0 MSTORE PUSH1 0x32 PUSH1 0x4 MSTORE PUSH1 0x24 PUSH1 0x0 REVERT JUMPDEST DUP3 SLOAD PUSH1 0x3 SWAP2 SWAP1 SWAP2 MUL SWAP2 SWAP1 SWAP2 ADD DUP1 SLOAD PUSH1 0x1 PUSH1 0x1 PUSH1 0xA0 SHL SUB NOT AND PUSH1 0x1 PUSH1 0x1 PUSH1 0xA0 SHL SUB SWAP1 SWAP3 AND SWAP2 SWAP1 SWAP2 OR DUP2 SSTORE PUSH1 0x1 DUP1 DUP4 ADD SLOAD SWAP1 DUP3 ADD SSTORE PUSH1 0x2 DUP1 DUP4 ADD DUP1 SLOAD SWAP2 DUP4 ADD SWAP2 PUSH2 0x15D2 SWAP1 PUSH2 0x251F JUMP JUMPDEST PUSH2 0x15DD SWAP3 SWAP2 SWAP1 PUSH2 0x1E6C JUMP JUMPDEST POP SWAP1 POP POP PUSH1 0x1 DUP2 PUSH1 0x3 DUP2 LT PUSH2 0x1602 JUMPI PUSH4 0x4E487B71 PUSH1 0xE0 SHL PUSH1 0x0 MSTORE PUSH1 0x32 PUSH1 0x4 MSTORE PUSH1 0x24 PUSH1 0x0 REVERT JUMPDEST PUSH1 0x3 MUL ADD DUP1 SLOAD PUSH1 0x1 PUSH1 0x1 PUSH1 0xA0 SHL SUB NOT AND DUP2 SSTORE PUSH1 0x0 PUSH1 0x1 DUP3 ADD DUP2 SWAP1 SSTORE PUSH2 0x162A PUSH1 0x2 DUP4 ADD DUP3 PUSH2 0x1EF7 JUMP JUMPDEST POP POP DUP1 DUP1 PUSH2 0x1637 SWAP1 PUSH2 0x255A JUMP JUMPDEST SWAP2 POP POP PUSH2 0x153C JUMP JUMPDEST POP PUSH2 0x164D PUSH3 0x15180 TIMESTAMP PUSH2 0x249A JUMP JUMPDEST PUSH1 0x16 SSTORE JUMP JUMPDEST CALLER PUSH1 0x0 SWAP1 DUP2 MSTORE PUSH1 0x15 PUSH1 0x20 MSTORE PUSH1 0x40 SWAP1 KECCAK256 SLOAD DUP1 PUSH2 0x16AF JUMPI PUSH1 0x40 MLOAD PUSH3 0x461BCD PUSH1 0xE5 SHL DUP2 MSTORE PUSH1 0x20 PUSH1 0x4 DUP3 ADD MSTORE PUSH1 0x17 PUSH1 0x24 DUP3 ADD MSTORE PUSH32 0x4E6F206561726E696E677320746F207769746864726177000000000000000000 PUSH1 0x44 DUP3 ADD MSTORE PUSH1 0x64 ADD PUSH2 0x854 JUMP JUMPDEST CALLER PUSH1 0x0 DUP2 DUP2 MSTORE PUSH1 0x15 PUSH1 0x20 MSTORE PUSH1 0x40 DUP1 DUP3 KECCAK256 DUP3 SWAP1 SSTORE MLOAD DUP4 ISZERO PUSH2 0x8FC MUL SWAP2 DUP5 SWAP2 SWAP1 DUP2 DUP2 DUP2 DUP6 DUP9 DUP9 CALL SWAP4 POP POP POP POP ISZERO DUP1 ISZERO PUSH2 0x16EA JUMPI RETURNDATASIZE PUSH1 0x0 DUP1 RETURNDATACOPY RETURNDATASIZE PUSH1 0x0 REVERT JUMPDEST POP POP JUMP JUMPDEST PUSH1 0x0 SLOAD PUSH1 0x40 MLOAD PUSH4 0x31A9108F PUSH1 0xE1 SHL DUP2 MSTORE PUSH1 0x4 DUP2 ADD DUP6 SWAP1 MSTORE CALLER SWAP2 PUSH1 0x1 PUSH1 0x1 PUSH1 0xA0 SHL SUB AND SWAP1 PUSH4 0x6352211E SWAP1 PUSH1 0x24 ADD PUSH1 0x20 PUSH1 0x40 MLOAD DUP1 DUP4 SUB DUP2 DUP7 DUP1 EXTCODESIZE ISZERO DUP1 ISZERO PUSH2 0x1732 JUMPI PUSH1 0x0 DUP1 REVERT JUMPDEST POP GAS STATICCALL ISZERO DUP1 ISZERO PUSH2 0x1746 JUMPI RETURNDATASIZE PUSH1 0x0 DUP1 RETURNDATACOPY RETURNDATASIZE PUSH1 0x0 REVERT JUMPDEST POP POP POP POP PUSH1 0x40 MLOAD RETURNDATASIZE PUSH1 0x1F NOT PUSH1 0x1F DUP3 ADD AND DUP3 ADD DUP1 PUSH1 0x40 MSTORE POP DUP2 ADD SWAP1 PUSH2 0x176A SWAP2 SWAP1 PUSH2 0x20A8 JUMP JUMPDEST PUSH1 0x1 PUSH1 0x1 PUSH1 0xA0 SHL SUB AND EQ PUSH2 0x17C0 JUMPI PUSH1 0x40 MLOAD PUSH3 0x461BCD PUSH1 0xE5 SHL DUP2 MSTORE PUSH1 0x20 PUSH1 0x4 DUP3 ADD DUP2 SWAP1 MSTORE PUSH1 0x24 DUP3 ADD MSTORE PUSH32 0x4F6E6C7920746865204E4654206F776E65722063616E20626F6F73742069742E PUSH1 0x44 DUP3 ADD MSTORE PUSH1 0x64 ADD PUSH2 0x854 JUMP JUMPDEST DUP2 CALLVALUE EQ PUSH2 0x181A JUMPI PUSH1 0x40 MLOAD PUSH3 0x461BCD PUSH1 0xE5 SHL DUP2 MSTORE PUSH1 0x20 PUSH1 0x4 DUP3 ADD MSTORE PUSH1 0x22 PUSH1 0x24 DUP3 ADD MSTORE PUSH32 0x5472616E736665722074686520636F727265637420626F6F737420616D6F756E PUSH1 0x44 DUP3 ADD MSTORE PUSH2 0x3A17 PUSH1 0xF1 SHL PUSH1 0x64 DUP3 ADD MSTORE PUSH1 0x84 ADD PUSH2 0x854 JUMP JUMPDEST PUSH1 0x0 DUP2 GT PUSH2 0x1876 JUMPI PUSH1 0x40 MLOAD PUSH3 0x461BCD PUSH1 0xE5 SHL DUP2 MSTORE PUSH1 0x20 PUSH1 0x4 DUP3 ADD MSTORE PUSH1 0x23 PUSH1 0x24 DUP3 ADD MSTORE PUSH32 0x546F74616C207669657773206D7573742062652067726561746572207468616E PUSH1 0x44 DUP3 ADD MSTORE PUSH3 0x101817 PUSH1 0xE9 SHL PUSH1 0x64 DUP3 ADD MSTORE PUSH1 0x84 ADD PUSH2 0x854 JUMP JUMPDEST PUSH1 0x0 DUP4 DUP2 MSTORE PUSH1 0x14 PUSH1 0x20 MSTORE PUSH1 0x40 SWAP1 KECCAK256 PUSH1 0x3 ADD SLOAD PUSH1 0xFF AND ISZERO PUSH2 0x18D8 JUMPI PUSH1 0x40 MLOAD PUSH3 0x461BCD PUSH1 0xE5 SHL DUP2 MSTORE PUSH1 0x20 PUSH1 0x4 DUP3 ADD MSTORE PUSH1 0x1C PUSH1 0x24 DUP3 ADD MSTORE PUSH32 0x54686973204E465420697320616C726561647920626F6F737465642E00000000 PUSH1 0x44 DUP3 ADD MSTORE PUSH1 0x64 ADD PUSH2 0x854 JUMP JUMPDEST PUSH1 0x0 PUSH1 0x64 PUSH2 0x18E7 DUP5 PUSH1 0xA PUSH2 0x24D2 JUMP JUMPDEST PUSH2 0x18F1 SWAP2 SWAP1 PUSH2 0x24B2 JUMP JUMPDEST SWAP1 POP PUSH1 0x0 PUSH2 0x18FF DUP3 DUP6 PUSH2 0x24F1 JUMP JUMPDEST SWAP1 POP PUSH1 0x0 PUSH2 0x190D DUP5 DUP4 PUSH2 0x24B2 JUMP JUMPDEST PUSH1 0x40 DUP1 MLOAD PUSH1 0x80 DUP2 ADD DUP3 MSTORE DUP5 DUP2 MSTORE PUSH1 0x20 DUP1 DUP3 ADD DUP9 DUP2 MSTORE DUP3 DUP5 ADD DUP6 DUP2 MSTORE PUSH1 0x1 PUSH1 0x60 DUP6 ADD DUP2 DUP2 MSTORE PUSH1 0x0 DUP15 DUP2 MSTORE PUSH1 0x14 DUP7 MSTORE DUP8 DUP2 KECCAK256 SWAP7 MLOAD DUP8 SSTORE SWAP4 MLOAD SWAP2 DUP7 ADD SWAP2 SWAP1 SWAP2 SSTORE SWAP1 MLOAD PUSH1 0x2 DUP6 ADD SSTORE MLOAD PUSH1 0x3 SWAP1 SWAP4 ADD DUP1 SLOAD PUSH1 0xFF NOT AND SWAP4 ISZERO ISZERO SWAP4 SWAP1 SWAP4 OR SWAP1 SWAP3 SSTORE PUSH1 0x17 SLOAD PUSH1 0x1 PUSH1 0x1 PUSH1 0xA0 SHL SUB AND DUP3 MSTORE PUSH1 0x15 SWAP1 MSTORE SWAP1 DUP2 KECCAK256 DUP1 SLOAD SWAP3 SWAP4 POP DUP6 SWAP3 SWAP1 SWAP2 SWAP1 PUSH2 0x1991 SWAP1 DUP5 SWAP1 PUSH2 0x249A JUMP JUMPDEST SWAP1 SWAP2 SSTORE POP POP PUSH1 0x40 DUP1 MLOAD DUP7 DUP2 MSTORE PUSH1 0x20 DUP2 ADD DUP7 SWAP1 MSTORE DUP8 SWAP2 PUSH32 0x13C501034ADA2469D38D3BD2929B0089951CB3D1B9818CA0C77332D86B9E9DA9 SWAP2 ADD PUSH1 0x40 MLOAD DUP1 SWAP2 SUB SWAP1 LOG2 POP POP POP POP POP POP JUMP JUMPDEST PUSH1 0x0 PUSH1 0x60 PUSH1 0x0 DUP1 PUSH1 0x60 PUSH1 0x0 PUSH1 0x13 DUP1 SLOAD SWAP1 POP PUSH1 0x0 EQ ISZERO PUSH2 0x1A3B JUMPI POP POP PUSH1 0x40 DUP1 MLOAD DUP1 DUP3 ADD DUP3 MSTORE PUSH1 0x10 DUP2 MSTORE PUSH16 0x4E6F2061647320617661696C61626C65 PUSH1 0x80 SHL PUSH1 0x20 DUP1 DUP4 ADD SWAP2 SWAP1 SWAP2 MSTORE DUP3 MLOAD SWAP1 DUP2 ADD SWAP1 SWAP3 MSTORE PUSH1 0x0 DUP1 DUP4 MSTORE SWAP6 POP SWAP4 POP DUP5 SWAP3 POP DUP3 SWAP2 POP DUP2 PUSH2 0x1BBE JUMP JUMPDEST PUSH2 0x1A44 DUP8 PUSH2 0x1DE8 JUMP JUMPDEST ISZERO PUSH2 0x1A8F JUMPI POP POP PUSH1 0x40 DUP1 MLOAD DUP1 DUP3 ADD DUP3 MSTORE PUSH1 0xD DUP2 MSTORE PUSH13 0x2B30B63AB0B13632903AB9B2B9 PUSH1 0x99 SHL PUSH1 0x20 DUP1 DUP4 ADD SWAP2 SWAP1 SWAP2 MSTORE DUP3 MLOAD SWAP1 DUP2 ADD SWAP1 SWAP3 MSTORE PUSH1 0x0 DUP1 DUP4 MSTORE SWAP6 POP SWAP4 POP DUP5 SWAP3 POP DUP3 SWAP2 POP DUP2 PUSH2 0x1BBE JUMP JUMPDEST PUSH1 0x0 PUSH1 0x13 PUSH1 0x0 DUP2 SLOAD DUP2 LT PUSH2 0x1AB3 JUMPI PUSH4 0x4E487B71 PUSH1 0xE0 SHL PUSH1 0x0 MSTORE PUSH1 0x32 PUSH1 0x4 MSTORE PUSH1 0x24 PUSH1 0x0 REVERT JUMPDEST SWAP1 PUSH1 0x0 MSTORE PUSH1 0x20 PUSH1 0x0 KECCAK256 SWAP1 PUSH1 0x3 MUL ADD SWAP1 POP PUSH1 0x19 SLOAD DUP2 PUSH1 0x1 ADD SLOAD PUSH2 0x1AD5 SWAP2 SWAP1 PUSH2 0x24D2 JUMP JUMPDEST SWAP5 POP PUSH1 0x1 DUP6 DUP3 PUSH1 0x1 ADD SLOAD DUP4 PUSH1 0x2 ADD DUP5 PUSH1 0x0 ADD PUSH1 0x0 SWAP1 SLOAD SWAP1 PUSH2 0x100 EXP SWAP1 DIV PUSH1 0x1 PUSH1 0x1 PUSH1 0xA0 SHL SUB AND PUSH1 0x40 MLOAD DUP1 PUSH1 0x40 ADD PUSH1 0x40 MSTORE DUP1 PUSH1 0xC DUP2 MSTORE PUSH1 0x20 ADD PUSH12 0x416420617661696C61626C65 PUSH1 0xA0 SHL DUP2 MSTORE POP SWAP4 SWAP3 SWAP2 SWAP1 DUP2 DUP1 SLOAD PUSH2 0x1B30 SWAP1 PUSH2 0x251F JUMP JUMPDEST DUP1 PUSH1 0x1F ADD PUSH1 0x20 DUP1 SWAP2 DIV MUL PUSH1 0x20 ADD PUSH1 0x40 MLOAD SWAP1 DUP2 ADD PUSH1 0x40 MSTORE DUP1 SWAP3 SWAP2 SWAP1 DUP2 DUP2 MSTORE PUSH1 0x20 ADD DUP3 DUP1 SLOAD PUSH2 0x1B5C SWAP1 PUSH2 0x251F JUMP JUMPDEST DUP1 ISZERO PUSH2 0x1BA9 JUMPI DUP1 PUSH1 0x1F LT PUSH2 0x1B7E JUMPI PUSH2 0x100 DUP1 DUP4 SLOAD DIV MUL DUP4 MSTORE SWAP2 PUSH1 0x20 ADD SWAP2 PUSH2 0x1BA9 JUMP JUMPDEST DUP3 ADD SWAP2 SWAP1 PUSH1 0x0 MSTORE PUSH1 0x20 PUSH1 0x0 KECCAK256 SWAP1 JUMPDEST DUP2 SLOAD DUP2 MSTORE SWAP1 PUSH1 0x1 ADD SWAP1 PUSH1 0x20 ADD DUP1 DUP4 GT PUSH2 0x1B8C JUMPI DUP3 SWAP1 SUB PUSH1 0x1F AND DUP3 ADD SWAP2 JUMPDEST POP POP POP POP POP SWAP2 POP SWAP7 POP SWAP7 POP SWAP7 POP SWAP7 POP SWAP7 POP SWAP7 POP POP JUMPDEST SWAP2 SWAP4 SWAP6 POP SWAP2 SWAP4 SWAP6 JUMP JUMPDEST PUSH1 0x0 DUP1 PUSH2 0x1BD2 PUSH2 0x1FA8 JUMP JUMPDEST PUSH1 0x16 SLOAD PUSH1 0x18 SLOAD PUSH1 0x40 DUP1 MLOAD PUSH1 0x60 DUP2 ADD SWAP1 SWAP2 MSTORE PUSH1 0x1 SWAP1 DUP2 PUSH1 0x3 PUSH1 0x0 DUP4 JUMPDEST DUP3 DUP3 LT ISZERO PUSH2 0x1CC4 JUMPI PUSH1 0x40 DUP1 MLOAD PUSH1 0x60 DUP2 ADD DUP3 MSTORE PUSH1 0x3 DUP5 MUL DUP7 ADD DUP1 SLOAD PUSH1 0x1 PUSH1 0x1 PUSH1 0xA0 SHL SUB AND DUP3 MSTORE PUSH1 0x1 DUP2 ADD SLOAD PUSH1 0x20 DUP4 ADD MSTORE PUSH1 0x2 DUP2 ADD DUP1 SLOAD SWAP3 SWAP4 SWAP2 SWAP3 SWAP2 DUP5 ADD SWAP2 PUSH2 0x1C33 SWAP1 PUSH2 0x251F JUMP JUMPDEST DUP1 PUSH1 0x1F ADD PUSH1 0x20 DUP1 SWAP2 DIV MUL PUSH1 0x20 ADD PUSH1 0x40 MLOAD SWAP1 DUP2 ADD PUSH1 0x40 MSTORE DUP1 SWAP3 SWAP2 SWAP1 DUP2 DUP2 MSTORE PUSH1 0x20 ADD DUP3 DUP1 SLOAD PUSH2 0x1C5F SWAP1 PUSH2 0x251F JUMP JUMPDEST DUP1 ISZERO PUSH2 0x1CAC JUMPI DUP1 PUSH1 0x1F LT PUSH2 0x1C81 JUMPI PUSH2 0x100 DUP1 DUP4 SLOAD DIV MUL DUP4 MSTORE SWAP2 PUSH1 0x20 ADD SWAP2 PUSH2 0x1CAC JUMP JUMPDEST DUP3 ADD SWAP2 SWAP1 PUSH1 0x0 MSTORE PUSH1 0x20 PUSH1 0x0 KECCAK256 SWAP1 JUMPDEST DUP2 SLOAD DUP2 MSTORE SWAP1 PUSH1 0x1 ADD SWAP1 PUSH1 0x20 ADD DUP1 DUP4 GT PUSH2 0x1C8F JUMPI DUP3 SWAP1 SUB PUSH1 0x1F AND DUP3 ADD SWAP2 JUMPDEST POP POP POP POP POP DUP2 MSTORE POP POP DUP2 MSTORE PUSH1 0x20 ADD SWAP1 PUSH1 0x1 ADD SWAP1 PUSH2 0x1BED JUMP JUMPDEST POP POP POP POP SWAP1 POP SWAP3 POP SWAP3 POP SWAP3 POP SWAP1 SWAP2 SWAP3 JUMP JUMPDEST PUSH1 0xA DUP2 PUSH1 0x3 DUP2 LT PUSH2 0x1CE5 JUMPI PUSH1 0x0 DUP1 REVERT JUMPDEST PUSH1 0x3 MUL ADD DUP1 SLOAD PUSH1 0x1 DUP3 ADD SLOAD PUSH1 0x2 DUP4 ADD DUP1 SLOAD PUSH1 0x1 PUSH1 0x1 PUSH1 0xA0 SHL SUB SWAP1 SWAP4 AND SWAP5 POP SWAP1 SWAP3 SWAP2 PUSH2 0x1D0F SWAP1 PUSH2 0x251F JUMP JUMPDEST DUP1 PUSH1 0x1F ADD PUSH1 0x20 DUP1 SWAP2 DIV MUL PUSH1 0x20 ADD PUSH1 0x40 MLOAD SWAP1 DUP2 ADD PUSH1 0x40 MSTORE DUP1 SWAP3 SWAP2 SWAP1 DUP2 DUP2 MSTORE PUSH1 0x20 ADD DUP3 DUP1 SLOAD PUSH2 0x1D3B SWAP1 PUSH2 0x251F JUMP JUMPDEST DUP1 ISZERO PUSH2 0x1D88 JUMPI DUP1 PUSH1 0x1F LT PUSH2 0x1D5D JUMPI PUSH2 0x100 DUP1 DUP4 SLOAD DIV MUL DUP4 MSTORE SWAP2 PUSH1 0x20 ADD SWAP2 PUSH2 0x1D88 JUMP JUMPDEST DUP3 ADD SWAP2 SWAP1 PUSH1 0x0 MSTORE PUSH1 0x20 PUSH1 0x0 KECCAK256 SWAP1 JUMPDEST DUP2 SLOAD DUP2 MSTORE SWAP1 PUSH1 0x1 ADD SWAP1 PUSH1 0x20 ADD DUP1 DUP4 GT PUSH2 0x1D6B JUMPI DUP3 SWAP1 SUB PUSH1 0x1F AND DUP3 ADD SWAP2 JUMPDEST POP POP POP POP POP SWAP1 POP DUP4 JUMP JUMPDEST PUSH1 0x1 DUP2 PUSH1 0x3 DUP2 LT PUSH2 0x1CE5 JUMPI PUSH1 0x0 DUP1 REVERT JUMPDEST PUSH1 0x13 DUP2 DUP2 SLOAD DUP2 LT PUSH2 0x1DB2 JUMPI PUSH1 0x0 DUP1 REVERT JUMPDEST PUSH1 0x0 SWAP2 DUP3 MSTORE PUSH1 0x20 SWAP1 SWAP2 KECCAK256 PUSH1 0x3 SWAP1 SWAP2 MUL ADD DUP1 SLOAD PUSH1 0x1 DUP3 ADD SLOAD PUSH1 0x2 DUP4 ADD DUP1 SLOAD PUSH1 0x1 PUSH1 0x1 PUSH1 0xA0 SHL SUB SWAP1 SWAP4 AND SWAP5 POP SWAP1 SWAP3 SWAP2 PUSH2 0x1D0F SWAP1 PUSH2 0x251F JUMP JUMPDEST PUSH1 0x0 DUP1 SLOAD PUSH1 0x40 MLOAD PUSH4 0x3ABC2367 PUSH1 0xE1 SHL DUP2 MSTORE PUSH1 0x1 PUSH1 0x1 PUSH1 0xA0 SHL SUB DUP5 DUP2 AND PUSH1 0x4 DUP4 ADD MSTORE SWAP1 SWAP2 AND SWAP1 PUSH4 0x757846CE SWAP1 PUSH1 0x24 ADD PUSH1 0x20 PUSH1 0x40 MLOAD DUP1 DUP4 SUB DUP2 DUP7 DUP1 EXTCODESIZE ISZERO DUP1 ISZERO PUSH2 0x1E2E JUMPI PUSH1 0x0 DUP1 REVERT JUMPDEST POP GAS STATICCALL ISZERO DUP1 ISZERO PUSH2 0x1E42 JUMPI RETURNDATASIZE PUSH1 0x0 DUP1 RETURNDATACOPY RETURNDATASIZE PUSH1 0x0 REVERT JUMPDEST POP POP POP POP PUSH1 0x40 MLOAD RETURNDATASIZE PUSH1 0x1F NOT PUSH1 0x1F DUP3 ADD AND DUP3 ADD DUP1 PUSH1 0x40 MSTORE POP DUP2 ADD SWAP1 PUSH2 0x1E66 SWAP2 SWAP1 PUSH2 0x20F8 JUMP JUMPDEST SWAP3 SWAP2 POP POP JUMP JUMPDEST DUP3 DUP1 SLOAD PUSH2 0x1E78 SWAP1 PUSH2 0x251F JUMP JUMPDEST SWAP1 PUSH1 0x0 MSTORE PUSH1 0x20 PUSH1 0x0 KECCAK256 SWAP1 PUSH1 0x1F ADD PUSH1 0x20 SWAP1 DIV DUP2 ADD SWAP3 DUP3 PUSH2 0x1E9A JUMPI PUSH1 0x0 DUP6 SSTORE PUSH2 0x1EE7 JUMP JUMPDEST DUP3 PUSH1 0x1F LT PUSH2 0x1EAB JUMPI DUP1 SLOAD DUP6 SSTORE PUSH2 0x1EE7 JUMP JUMPDEST DUP3 DUP1 ADD PUSH1 0x1 ADD DUP6 SSTORE DUP3 ISZERO PUSH2 0x1EE7 JUMPI PUSH1 0x0 MSTORE PUSH1 0x20 PUSH1 0x0 KECCAK256 SWAP2 PUSH1 0x1F ADD PUSH1 0x20 SWAP1 DIV DUP3 ADD JUMPDEST DUP3 DUP2 GT ISZERO PUSH2 0x1EE7 JUMPI DUP3 SLOAD DUP3 SSTORE SWAP2 PUSH1 0x1 ADD SWAP2 SWAP1 PUSH1 0x1 ADD SWAP1 PUSH2 0x1ECC JUMP JUMPDEST POP PUSH2 0x1EF3 SWAP3 SWAP2 POP PUSH2 0x1FE9 JUMP JUMPDEST POP SWAP1 JUMP JUMPDEST POP DUP1 SLOAD PUSH2 0x1F03 SWAP1 PUSH2 0x251F JUMP JUMPDEST PUSH1 0x0 DUP3 SSTORE DUP1 PUSH1 0x1F LT PUSH2 0x1F13 JUMPI POP POP JUMP JUMPDEST PUSH1 0x1F ADD PUSH1 0x20 SWAP1 DIV SWAP1 PUSH1 0x0 MSTORE PUSH1 0x20 PUSH1 0x0 KECCAK256 SWAP1 DUP2 ADD SWAP1 PUSH2 0x1F31 SWAP2 SWAP1 PUSH2 0x1FE9 JUMP JUMPDEST POP JUMP JUMPDEST DUP3 DUP1 SLOAD PUSH2 0x1F40 SWAP1 PUSH2 0x251F JUMP JUMPDEST SWAP1 PUSH1 0x0 MSTORE PUSH1 0x20 PUSH1 0x0 KECCAK256 SWAP1 PUSH1 0x1F ADD PUSH1 0x20 SWAP1 DIV DUP2 ADD SWAP3 DUP3 PUSH2 0x1F62 JUMPI PUSH1 0x0 DUP6 SSTORE PUSH2 0x1EE7 JUMP JUMPDEST DUP3 PUSH1 0x1F LT PUSH2 0x1F7B JUMPI DUP1 MLOAD PUSH1 0xFF NOT AND DUP4 DUP1 ADD OR DUP6 SSTORE PUSH2 0x1EE7 JUMP JUMPDEST DUP3 DUP1 ADD PUSH1 0x1 ADD DUP6 SSTORE DUP3 ISZERO PUSH2 0x1EE7 JUMPI SWAP2 DUP3 ADD JUMPDEST DUP3 DUP2 GT ISZERO PUSH2 0x1EE7 JUMPI DUP3 MLOAD DUP3 SSTORE SWAP2 PUSH1 0x20 ADD SWAP2 SWAP1 PUSH1 0x1 ADD SWAP1 PUSH2 0x1F8D JUMP JUMPDEST PUSH1 0x40 MLOAD DUP1 PUSH1 0x60 ADD PUSH1 0x40 MSTORE DUP1 PUSH1 0x3 SWAP1 JUMPDEST PUSH1 0x40 DUP1 MLOAD PUSH1 0x60 DUP1 DUP3 ADD DUP4 MSTORE PUSH1 0x0 DUP1 DUP4 MSTORE PUSH1 0x20 DUP4 ADD MSTORE SWAP2 DUP2 ADD SWAP2 SWAP1 SWAP2 MSTORE DUP2 MSTORE PUSH1 0x20 ADD SWAP1 PUSH1 0x1 SWAP1 SUB SWAP1 DUP2 PUSH2 0x1FB7 JUMPI SWAP1 POP POP SWAP1 JUMP JUMPDEST JUMPDEST DUP1 DUP3 GT ISZERO PUSH2 0x1EF3 JUMPI PUSH1 0x0 DUP2 SSTORE PUSH1 0x1 ADD PUSH2 0x1FEA JUMP JUMPDEST PUSH1 0x0 DUP3 PUSH1 0x1F DUP4 ADD SLT PUSH2 0x200E JUMPI DUP1 DUP2 REVERT JUMPDEST DUP2 CALLDATALOAD PUSH8 0xFFFFFFFFFFFFFFFF DUP1 DUP3 GT ISZERO PUSH2 0x2029 JUMPI PUSH2 0x2029 PUSH2 0x258B JUMP JUMPDEST PUSH1 0x40 MLOAD PUSH1 0x1F DUP4 ADD PUSH1 0x1F NOT SWAP1 DUP2 AND PUSH1 0x3F ADD AND DUP2 ADD SWAP1 DUP3 DUP3 GT DUP2 DUP4 LT OR ISZERO PUSH2 0x2051 JUMPI PUSH2 0x2051 PUSH2 0x258B JUMP JUMPDEST DUP2 PUSH1 0x40 MSTORE DUP4 DUP2 MSTORE DUP7 PUSH1 0x20 DUP6 DUP9 ADD ADD GT ISZERO PUSH2 0x2069 JUMPI DUP5 DUP6 REVERT JUMPDEST DUP4 PUSH1 0x20 DUP8 ADD PUSH1 0x20 DUP4 ADD CALLDATACOPY SWAP3 DUP4 ADD PUSH1 0x20 ADD SWAP4 SWAP1 SWAP4 MSTORE POP SWAP4 SWAP3 POP POP POP JUMP JUMPDEST PUSH1 0x0 PUSH1 0x20 DUP3 DUP5 SUB SLT ISZERO PUSH2 0x2096 JUMPI DUP1 DUP2 REVERT JUMPDEST DUP2 CALLDATALOAD PUSH2 0x20A1 DUP2 PUSH2 0x25A1 JUMP JUMPDEST SWAP4 SWAP3 POP POP POP JUMP JUMPDEST PUSH1 0x0 PUSH1 0x20 DUP3 DUP5 SUB SLT ISZERO PUSH2 0x20B9 JUMPI DUP1 DUP2 REVERT JUMPDEST DUP2 MLOAD PUSH2 0x20A1 DUP2 PUSH2 0x25A1 JUMP JUMPDEST PUSH1 0x0 DUP1 PUSH1 0x0 PUSH1 0x60 DUP5 DUP7 SUB SLT ISZERO PUSH2 0x20D8 JUMPI DUP2 DUP3 REVERT JUMPDEST DUP4 CALLDATALOAD PUSH2 0x20E3 DUP2 PUSH2 0x25A1 JUMP JUMPDEST SWAP6 PUSH1 0x20 DUP6 ADD CALLDATALOAD SWAP6 POP PUSH1 0x40 SWAP1 SWAP5 ADD CALLDATALOAD SWAP4 SWAP3 POP POP POP JUMP JUMPDEST PUSH1 0x0 PUSH1 0x20 DUP3 DUP5 SUB SLT ISZERO PUSH2 0x2109 JUMPI DUP1 DUP2 REVERT JUMPDEST DUP2 MLOAD DUP1 ISZERO ISZERO DUP2 EQ PUSH2 0x20A1 JUMPI DUP2 DUP3 REVERT JUMPDEST PUSH1 0x0 PUSH1 0x20 DUP3 DUP5 SUB SLT ISZERO PUSH2 0x2129 JUMPI DUP1 DUP2 REVERT JUMPDEST DUP2 CALLDATALOAD PUSH8 0xFFFFFFFFFFFFFFFF DUP2 GT ISZERO PUSH2 0x213F JUMPI DUP2 DUP3 REVERT JUMPDEST PUSH2 0x214B DUP5 DUP3 DUP6 ADD PUSH2 0x1FFE JUMP JUMPDEST SWAP5 SWAP4 POP POP POP POP JUMP JUMPDEST PUSH1 0x0 PUSH1 0x20 DUP3 DUP5 SUB SLT ISZERO PUSH2 0x2164 JUMPI DUP1 DUP2 REVERT JUMPDEST POP CALLDATALOAD SWAP2 SWAP1 POP JUMP JUMPDEST PUSH1 0x0 DUP1 PUSH1 0x40 DUP4 DUP6 SUB SLT ISZERO PUSH2 0x217D JUMPI DUP2 DUP3 REVERT JUMPDEST DUP3 CALLDATALOAD SWAP2 POP PUSH1 0x20 DUP4 ADD CALLDATALOAD PUSH8 0xFFFFFFFFFFFFFFFF DUP2 GT ISZERO PUSH2 0x219A JUMPI DUP2 DUP3 REVERT JUMPDEST PUSH2 0x21A6 DUP6 DUP3 DUP7 ADD PUSH2 0x1FFE JUMP JUMPDEST SWAP2 POP POP SWAP3 POP SWAP3 SWAP1 POP JUMP JUMPDEST PUSH1 0x0 DUP1 PUSH1 0x0 PUSH1 0x60 DUP5 DUP7 SUB SLT ISZERO PUSH2 0x21C4 JUMPI DUP3 DUP4 REVERT JUMPDEST POP POP DUP2 CALLDATALOAD SWAP4 PUSH1 0x20 DUP4 ADD CALLDATALOAD SWAP4 POP PUSH1 0x40 SWAP1 SWAP3 ADD CALLDATALOAD SWAP2 SWAP1 POP JUMP JUMPDEST PUSH1 0x0 DUP2 MLOAD DUP1 DUP5 MSTORE DUP2 JUMPDEST DUP2 DUP2 LT ISZERO PUSH2 0x2200 JUMPI PUSH1 0x20 DUP2 DUP6 ADD DUP2 ADD MLOAD DUP7 DUP4 ADD DUP3 ADD MSTORE ADD PUSH2 0x21E4 JUMP JUMPDEST DUP2 DUP2 GT ISZERO PUSH2 0x2211 JUMPI DUP3 PUSH1 0x20 DUP4 DUP8 ADD ADD MSTORE JUMPDEST POP PUSH1 0x1F ADD PUSH1 0x1F NOT AND SWAP3 SWAP1 SWAP3 ADD PUSH1 0x20 ADD SWAP3 SWAP2 POP POP JUMP JUMPDEST PUSH1 0x1 DUP1 PUSH1 0xA0 SHL SUB DUP2 MLOAD AND DUP3 MSTORE PUSH1 0x20 DUP2 ADD MLOAD PUSH1 0x20 DUP4 ADD MSTORE PUSH1 0x0 PUSH1 0x40 DUP3 ADD MLOAD PUSH1 0x60 PUSH1 0x40 DUP6 ADD MSTORE PUSH2 0x214B PUSH1 0x60 DUP6 ADD DUP3 PUSH2 0x21DB JUMP JUMPDEST PUSH1 0x1 DUP1 PUSH1 0xA0 SHL SUB DUP5 AND DUP2 MSTORE DUP3 PUSH1 0x20 DUP3 ADD MSTORE PUSH1 0x60 PUSH1 0x40 DUP3 ADD MSTORE PUSH1 0x0 PUSH2 0x227E PUSH1 0x60 DUP4 ADD DUP5 PUSH2 0x21DB JUMP JUMPDEST SWAP6 SWAP5 POP POP POP POP POP JUMP JUMPDEST PUSH1 0x0 PUSH1 0x20 DUP1 DUP4 ADD DUP2 DUP5 MSTORE DUP1 DUP6 MLOAD DUP1 DUP4 MSTORE PUSH1 0x40 DUP7 ADD SWAP2 POP PUSH1 0x40 DUP2 PUSH1 0x5 SHL DUP8 ADD ADD SWAP3 POP DUP4 DUP8 ADD DUP6 JUMPDEST DUP3 DUP2 LT ISZERO PUSH2 0x22DB JUMPI PUSH1 0x3F NOT DUP9 DUP7 SUB ADD DUP5 MSTORE PUSH2 0x22C9 DUP6 DUP4 MLOAD PUSH2 0x2226 JUMP JUMPDEST SWAP5 POP SWAP3 DUP6 ADD SWAP3 SWAP1 DUP6 ADD SWAP1 PUSH1 0x1 ADD PUSH2 0x22AD JUMP JUMPDEST POP SWAP3 SWAP8 SWAP7 POP POP POP POP POP POP POP JUMP JUMPDEST DUP7 ISZERO ISZERO DUP2 MSTORE PUSH1 0xC0 PUSH1 0x20 DUP3 ADD MSTORE PUSH1 0x0 PUSH2 0x2303 PUSH1 0xC0 DUP4 ADD DUP9 PUSH2 0x21DB JUMP JUMPDEST DUP7 PUSH1 0x40 DUP5 ADD MSTORE DUP6 PUSH1 0x60 DUP5 ADD MSTORE DUP3 DUP2 SUB PUSH1 0x80 DUP5 ADD MSTORE PUSH2 0x2321 DUP2 DUP7 PUSH2 0x21DB JUMP JUMPDEST SWAP2 POP POP PUSH1 0x1 DUP1 PUSH1 0xA0 SHL SUB DUP4 AND PUSH1 0xA0 DUP4 ADD MSTORE SWAP8 SWAP7 POP POP POP POP POP POP POP JUMP JUMPDEST PUSH1 0x20 DUP1 DUP3 MSTORE PUSH1 0x18 SWAP1 DUP3 ADD MSTORE PUSH32 0x4F6E6C79206F776E65722063616E2063616C6C20746869730000000000000000 PUSH1 0x40 DUP3 ADD MSTORE PUSH1 0x60 ADD SWAP1 JUMP JUMPDEST DUP3 DUP2 MSTORE PUSH1 0x40 PUSH1 0x20 DUP3 ADD MSTORE PUSH1 0x0 PUSH2 0x214B PUSH1 0x40 DUP4 ADD DUP5 PUSH2 0x21DB JUMP JUMPDEST DUP3 DUP2 MSTORE PUSH1 0x0 PUSH1 0x20 PUSH1 0x40 DUP2 DUP5 ADD MSTORE DUP2 DUP5 SLOAD DUP4 PUSH1 0x1 DUP3 DUP2 SHR SWAP2 POP DUP1 DUP4 AND DUP1 PUSH2 0x23B4 JUMPI PUSH1 0x7F DUP4 AND SWAP3 POP JUMPDEST DUP6 DUP4 LT DUP2 EQ ISZERO PUSH2 0x23D2 JUMPI PUSH4 0x4E487B71 PUSH1 0xE0 SHL DUP8 MSTORE PUSH1 0x22 PUSH1 0x4 MSTORE PUSH1 0x24 DUP8 REVERT JUMPDEST PUSH1 0x40 DUP9 ADD DUP4 SWAP1 MSTORE PUSH1 0x60 DUP9 ADD DUP2 DUP1 ISZERO PUSH2 0x23F1 JUMPI PUSH1 0x1 DUP2 EQ PUSH2 0x2402 JUMPI PUSH2 0x242C JUMP JUMPDEST PUSH1 0xFF NOT DUP7 AND DUP3 MSTORE DUP8 DUP3 ADD SWAP7 POP PUSH2 0x242C JUMP JUMPDEST PUSH1 0x0 DUP12 DUP2 MSTORE PUSH1 0x20 SWAP1 KECCAK256 DUP10 JUMPDEST DUP7 DUP2 LT ISZERO PUSH2 0x2426 JUMPI DUP2 SLOAD DUP5 DUP3 ADD MSTORE SWAP1 DUP6 ADD SWAP1 DUP10 ADD PUSH2 0x240D JUMP JUMPDEST DUP4 ADD SWAP8 POP POP JUMPDEST POP SWAP5 SWAP11 SWAP10 POP POP POP POP POP POP POP POP POP POP JUMP JUMPDEST DUP4 DUP2 MSTORE PUSH1 0x20 DUP1 DUP3 ADD DUP5 SWAP1 MSTORE PUSH1 0x60 PUSH1 0x40 DUP4 ADD DUP2 SWAP1 MSTORE PUSH1 0x0 SWAP2 PUSH1 0xC0 DUP5 ADD SWAP2 DUP5 ADD DUP6 DUP5 JUMPDEST PUSH1 0x3 DUP2 LT ISZERO PUSH2 0x248C JUMPI PUSH1 0x5F NOT DUP8 DUP7 SUB ADD DUP4 MSTORE PUSH2 0x247A DUP6 DUP4 MLOAD PUSH2 0x2226 JUMP JUMPDEST SWAP5 POP SWAP2 DUP4 ADD SWAP2 SWAP1 DUP4 ADD SWAP1 PUSH1 0x1 ADD PUSH2 0x245D JUMP JUMPDEST POP SWAP3 SWAP9 SWAP8 POP POP POP POP POP POP POP POP JUMP JUMPDEST PUSH1 0x0 DUP3 NOT DUP3 GT ISZERO PUSH2 0x24AD JUMPI PUSH2 0x24AD PUSH2 0x2575 JUMP JUMPDEST POP ADD SWAP1 JUMP JUMPDEST PUSH1 0x0 DUP3 PUSH2 0x24CD JUMPI PUSH4 0x4E487B71 PUSH1 0xE0 SHL DUP2 MSTORE PUSH1 0x12 PUSH1 0x4 MSTORE PUSH1 0x24 DUP2 REVERT JUMPDEST POP DIV SWAP1 JUMP JUMPDEST PUSH1 0x0 DUP2 PUSH1 0x0 NOT DIV DUP4 GT DUP3 ISZERO ISZERO AND ISZERO PUSH2 0x24EC JUMPI PUSH2 0x24EC PUSH2 0x2575 JUMP JUMPDEST POP MUL SWAP1 JUMP JUMPDEST PUSH1 0x0 DUP3 DUP3 LT ISZERO PUSH2 0x2503 JUMPI PUSH2 0x2503 PUSH2 0x2575 JUMP JUMPDEST POP SUB SWAP1 JUMP JUMPDEST PUSH1 0x0 DUP2 PUSH2 0x2517 JUMPI PUSH2 0x2517 PUSH2 0x2575 JUMP JUMPDEST POP PUSH1 0x0 NOT ADD SWAP1 JUMP JUMPDEST PUSH1 0x1 DUP2 DUP2 SHR SWAP1 DUP3 AND DUP1 PUSH2 0x2533 JUMPI PUSH1 0x7F DUP3 AND SWAP2 POP JUMPDEST PUSH1 0x20 DUP3 LT DUP2 EQ ISZERO PUSH2 0x2554 JUMPI PUSH4 0x4E487B71 PUSH1 0xE0 SHL PUSH1 0x0 MSTORE PUSH1 0x22 PUSH1 0x4 MSTORE PUSH1 0x24 PUSH1 0x0 REVERT JUMPDEST POP SWAP2 SWAP1 POP JUMP JUMPDEST PUSH1 0x0 PUSH1 0x0 NOT DUP3 EQ ISZERO PUSH2 0x256E JUMPI PUSH2 0x256E PUSH2 0x2575 JUMP JUMPDEST POP PUSH1 0x1 ADD SWAP1 JUMP JUMPDEST PUSH4 0x4E487B71 PUSH1 0xE0 SHL PUSH1 0x0 MSTORE PUSH1 0x11 PUSH1 0x4 MSTORE PUSH1 0x24 PUSH1 0x0 REVERT JUMPDEST PUSH4 0x4E487B71 PUSH1 0xE0 SHL PUSH1 0x0 MSTORE PUSH1 0x41 PUSH1 0x4 MSTORE PUSH1 0x24 PUSH1 0x0 REVERT JUMPDEST PUSH1 0x1 PUSH1 0x1 PUSH1 0xA0 SHL SUB DUP2 AND DUP2 EQ PUSH2 0x1F31 JUMPI PUSH1 0x0 DUP1 REVERT INVALID LOG2 PUSH5 0x6970667358 0x22 SLT KECCAK256 DUP4 CALLVALUE CALLDATACOPY PUSH26 0xD0704034008B4B4C4E3D95F28FA03CBC64ECFDAE0A1BA0B64DBF ORIGIN 0xF6 PUSH5 0x736F6C6343 STOP ADDMOD DIV STOP CALLER "
		},
		"gasEstimates": {
			"creation": {
				"codeDepositCost": "1941600",
				"executionCost": "infinite",
				"totalCost": "infinite"
			},
			"external": {
				"bidForBillboardAd(string)": "infinite",
				"boostNFT(uint256,uint256,uint256)": "infinite",
				"buyVideoAdSlots(uint256,string)": "infinite",
				"checkPendingWithdrawal(address)": "1299",
				"checkVideoAdAvailability(address)": "infinite",
				"claimBoostReward(uint256)": "infinite",
				"contractOwner()": "1148",
				"displayAdAndUpdateEarnings(address,uint256,uint256)": "infinite",
				"getCurrentBillboardDetails()": "infinite",
				"initiateNewBillboardAuction()": "infinite",
				"isNFTBoosted(uint256)": "2913",
				"listTodayTopBid()": "1103",
				"marketplaceContract()": "1082",
				"modifyStartingBidPrice(uint256)": "21110",
				"modifyVideoAdSpotPrice(uint256)": "21154",
				"nextAuctionEndTime()": "1084",
				"pendingWithdrawals(address)": "1257",
				"platformWallet()": "1125",
				"resetAuctionEarly()": "infinite",
				"retrieveActiveAds()": "infinite",
				"retrieveSpecificUserAds(address)": "infinite",
				"setMarketplaceContract(address)": "22073",
				"startingBidPrice()": "1040",
				"todayBillboard(uint256)": "infinite",
				"videoAdSpotPrice()": "1064",
				"videoAdsQueue(uint256)": "infinite",
				"withdrawMyEarnings()": "infinite",
				"yesterdayBillboard(uint256)": "infinite"
			},
			"internal": {
				"hasPremiumPass(address)": "infinite"
			}
		},
		"methodIdentifiers": {
			"bidForBillboardAd(string)": "45f9b515",
			"boostNFT(uint256,uint256,uint256)": "7aa440a2",
			"buyVideoAdSlots(uint256,string)": "3cf2707d",
			"checkPendingWithdrawal(address)": "78bc20a8",
			"checkVideoAdAvailability(address)": "b28802dd",
			"claimBoostReward(uint256)": "42a9026a",
			"contractOwner()": "ce606ee0",
			"displayAdAndUpdateEarnings(address,uint256,uint256)": "50281c78",
			"getCurrentBillboardDetails()": "e5f9fcc2",
			"initiateNewBillboardAuction()": "50da2244",
			"isNFTBoosted(uint256)": "0b32ba19",
			"listTodayTopBid()": "54e65837",
			"marketplaceContract()": "d1bb5cf1",
			"modifyStartingBidPrice(uint256)": "313ec04c",
			"modifyVideoAdSpotPrice(uint256)": "14b62c9b",
			"nextAuctionEndTime()": "b38884bc",
			"pendingWithdrawals(address)": "f3f43703",
			"platformWallet()": "fa2af9da",
			"resetAuctionEarly()": "0f6db440",
			"retrieveActiveAds()": "2cb71de7",
			"retrieveSpecificUserAds(address)": "01ca78f4",
			"setMarketplaceContract(address)": "1102610e",
			"startingBidPrice()": "7bf46f97",
			"todayBillboard(uint256)": "f90773f1",
			"videoAdSpotPrice()": "0833c2be",
			"videoAdsQueue(uint256)": "fbcdd297",
			"withdrawMyEarnings()": "5f8ff8ad",
			"yesterdayBillboard(uint256)": "ef296ff6"
		}
	},
	"abi": [
		{
			"inputs": [
				{
					"internalType": "address",
					"name": "_contractOwner",
					"type": "address"
				},
				{
					"internalType": "address",
					"name": "_marketplaceAddress",
					"type": "address"
				},
				{
					"internalType": "uint256",
					"name": "_startingBidPrice",
					"type": "uint256"
				},
				{
					"internalType": "uint256",
					"name": "_videoAdSpotPrice",
					"type": "uint256"
				}
			],
			"stateMutability": "nonpayable",
			"type": "constructor"
		},
		{
			"anonymous": false,
			"inputs": [],
			"name": "AuctionResetEarly",
			"type": "event"
		},
		{
			"anonymous": false,
			"inputs": [
				{
					"indexed": true,
					"internalType": "address",
					"name": "bidder",
					"type": "address"
				},
				{
					"indexed": false,
					"internalType": "uint256",
					"name": "bidAmount",
					"type": "uint256"
				},
				{
					"indexed": false,
					"internalType": "string",
					"name": "adDetailsURL",
					"type": "string"
				}
			],
			"name": "BillboardBidPlaced",
			"type": "event"
		},
		{
			"anonymous": false,
			"inputs": [
				{
					"indexed": true,
					"internalType": "uint256",
					"name": "tokenId",
					"type": "uint256"
				},
				{
					"indexed": false,
					"internalType": "address",
					"name": "claimer",
					"type": "address"
				},
				{
					"indexed": false,
					"internalType": "uint256",
					"name": "amount",
					"type": "uint256"
				}
			],
			"name": "BoostClaimed",
			"type": "event"
		},
		{
			"anonymous": false,
			"inputs": [
				{
					"indexed": true,
					"internalType": "uint256",
					"name": "tokenId",
					"type": "uint256"
				},
				{
					"indexed": false,
					"internalType": "uint256",
					"name": "totalBoostAmount",
					"type": "uint256"
				},
				{
					"indexed": false,
					"internalType": "uint256",
					"name": "viewsLeft",
					"type": "uint256"
				}
			],
			"name": "Boosted",
			"type": "event"
		},
		{
			"anonymous": false,
			"inputs": [
				{
					"indexed": true,
					"internalType": "address",
					"name": "advertiser",
					"type": "address"
				},
				{
					"indexed": false,
					"internalType": "uint256",
					"name": "spotsRemaining",
					"type": "uint256"
				},
				{
					"indexed": false,
					"internalType": "string",
					"name": "adDetailsURL",
					"type": "string"
				}
			],
			"name": "VideoAdPlayed",
			"type": "event"
		},
		{
			"anonymous": false,
			"inputs": [
				{
					"indexed": false,
					"internalType": "string",
					"name": "message",
					"type": "string"
				},
				{
					"indexed": true,
					"internalType": "address",
					"name": "contentCreator",
					"type": "address"
				}
			],
			"name": "VideoAdResult",
			"type": "event"
		},
		{
			"anonymous": false,
			"inputs": [
				{
					"indexed": true,
					"internalType": "address",
					"name": "advertiser",
					"type": "address"
				},
				{
					"indexed": false,
					"internalType": "uint256",
					"name": "spots",
					"type": "uint256"
				}
			],
			"name": "VideoAdSlotPurchased",
			"type": "event"
		},
		{
			"inputs": [
				{
					"internalType": "string",
					"name": "_adDetailsURL",
					"type": "string"
				}
			],
			"name": "bidForBillboardAd",
			"outputs": [],
			"stateMutability": "payable",
			"type": "function"
		},
		{
			"inputs": [
				{
					"internalType": "uint256",
					"name": "tokenId",
					"type": "uint256"
				},
				{
					"internalType": "uint256",
					"name": "totalBoostAmount",
					"type": "uint256"
				},
				{
					"internalType": "uint256",
					"name": "totalViews",
					"type": "uint256"
				}
			],
			"name": "boostNFT",
			"outputs": [],
			"stateMutability": "payable",
			"type": "function"
		},
		{
			"inputs": [
				{
					"internalType": "uint256",
					"name": "spots",
					"type": "uint256"
				},
				{
					"internalType": "string",
					"name": "_adDetailsURL",
					"type": "string"
				}
			],
			"name": "buyVideoAdSlots",
			"outputs": [],
			"stateMutability": "payable",
			"type": "function"
		},
		{
			"inputs": [
				{
					"internalType": "address",
					"name": "user",
					"type": "address"
				}
			],
			"name": "checkPendingWithdrawal",
			"outputs": [
				{
					"internalType": "uint256",
					"name": "",
					"type": "uint256"
				}
			],
			"stateMutability": "view",
			"type": "function"
		},
		{
			"inputs": [
				{
					"internalType": "address",
					"name": "contentCreator",
					"type": "address"
				}
			],
			"name": "checkVideoAdAvailability",
			"outputs": [
				{
					"internalType": "bool",
					"name": "canDisplay",
					"type": "bool"
				},
				{
					"internalType": "string",
					"name": "status",
					"type": "string"
				},
				{
					"internalType": "uint256",
					"name": "calculatedAdCost",
					"type": "uint256"
				},
				{
					"internalType": "uint256",
					"name": "spotsRemaining",
					"type": "uint256"
				},
				{
					"internalType": "string",
					"name": "adDetailsURL",
					"type": "string"
				},
				{
					"internalType": "address",
					"name": "advertiser",
					"type": "address"
				}
			],
			"stateMutability": "view",
			"type": "function"
		},
		{
			"inputs": [
				{
					"internalType": "uint256",
					"name": "tokenId",
					"type": "uint256"
				}
			],
			"name": "claimBoostReward",
			"outputs": [],
			"stateMutability": "nonpayable",
			"type": "function"
		},
		{
			"inputs": [],
			"name": "contractOwner",
			"outputs": [
				{
					"internalType": "address",
					"name": "",
					"type": "address"
				}
			],
			"stateMutability": "view",
			"type": "function"
		},
		{
			"inputs": [
				{
					"internalType": "address",
					"name": "contentCreator",
					"type": "address"
				},
				{
					"internalType": "uint256",
					"name": "passedAdCost",
					"type": "uint256"
				},
				{
					"internalType": "uint256",
					"name": "spotsRemaining",
					"type": "uint256"
				}
			],
			"name": "displayAdAndUpdateEarnings",
			"outputs": [],
			"stateMutability": "nonpayable",
			"type": "function"
		},
		{
			"inputs": [],
			"name": "getCurrentBillboardDetails",
			"outputs": [
				{
					"internalType": "uint256",
					"name": "auctionEndTime",
					"type": "uint256"
				},
				{
					"internalType": "uint256",
					"name": "baseBid",
					"type": "uint256"
				},
				{
					"components": [
						{
							"internalType": "address",
							"name": "bidderAddress",
							"type": "address"
						},
						{
							"internalType": "uint256",
							"name": "bidAmount",
							"type": "uint256"
						},
						{
							"internalType": "string",
							"name": "adDetailsURL",
							"type": "string"
						}
					],
					"internalType": "struct Adware.BillboardBidder[3]",
					"name": "topThreeBids",
					"type": "tuple[3]"
				}
			],
			"stateMutability": "view",
			"type": "function"
		},
		{
			"inputs": [],
			"name": "initiateNewBillboardAuction",
			"outputs": [],
			"stateMutability": "nonpayable",
			"type": "function"
		},
		{
			"inputs": [
				{
					"internalType": "uint256",
					"name": "tokenId",
					"type": "uint256"
				}
			],
			"name": "isNFTBoosted",
			"outputs": [
				{
					"internalType": "bool",
					"name": "",
					"type": "bool"
				},
				{
					"internalType": "uint256",
					"name": "",
					"type": "uint256"
				},
				{
					"internalType": "uint256",
					"name": "",
					"type": "uint256"
				}
			],
			"stateMutability": "view",
			"type": "function"
		},
		{
			"inputs": [],
			"name": "listTodayTopBid",
			"outputs": [
				{
					"internalType": "uint256",
					"name": "",
					"type": "uint256"
				}
			],
			"stateMutability": "view",
			"type": "function"
		},
		{
			"inputs": [],
			"name": "marketplaceContract",
			"outputs": [
				{
					"internalType": "contract IMarketplace",
					"name": "",
					"type": "address"
				}
			],
			"stateMutability": "view",
			"type": "function"
		},
		{
			"inputs": [
				{
					"internalType": "uint256",
					"name": "_newAmount",
					"type": "uint256"
				}
			],
			"name": "modifyStartingBidPrice",
			"outputs": [],
			"stateMutability": "nonpayable",
			"type": "function"
		},
		{
			"inputs": [
				{
					"internalType": "uint256",
					"name": "_newPrice",
					"type": "uint256"
				}
			],
			"name": "modifyVideoAdSpotPrice",
			"outputs": [],
			"stateMutability": "nonpayable",
			"type": "function"
		},
		{
			"inputs": [],
			"name": "nextAuctionEndTime",
			"outputs": [
				{
					"internalType": "uint256",
					"name": "",
					"type": "uint256"
				}
			],
			"stateMutability": "view",
			"type": "function"
		},
		{
			"inputs": [
				{
					"internalType": "address",
					"name": "",
					"type": "address"
				}
			],
			"name": "pendingWithdrawals",
			"outputs": [
				{
					"internalType": "uint256",
					"name": "",
					"type": "uint256"
				}
			],
			"stateMutability": "view",
			"type": "function"
		},
		{
			"inputs": [],
			"name": "platformWallet",
			"outputs": [
				{
					"internalType": "address",
					"name": "",
					"type": "address"
				}
			],
			"stateMutability": "view",
			"type": "function"
		},
		{
			"inputs": [],
			"name": "resetAuctionEarly",
			"outputs": [],
			"stateMutability": "nonpayable",
			"type": "function"
		},
		{
			"inputs": [],
			"name": "retrieveActiveAds",
			"outputs": [
				{
					"components": [
						{
							"internalType": "address",
							"name": "advertiser",
							"type": "address"
						},
						{
							"internalType": "uint256",
							"name": "spotsRemaining",
							"type": "uint256"
						},
						{
							"internalType": "string",
							"name": "adDetailsURL",
							"type": "string"
						}
					],
					"internalType": "struct Adware.VideoAdvertisement[]",
					"name": "",
					"type": "tuple[]"
				}
			],
			"stateMutability": "view",
			"type": "function"
		},
		{
			"inputs": [
				{
					"internalType": "address",
					"name": "user",
					"type": "address"
				}
			],
			"name": "retrieveSpecificUserAds",
			"outputs": [
				{
					"components": [
						{
							"internalType": "address",
							"name": "advertiser",
							"type": "address"
						},
						{
							"internalType": "uint256",
							"name": "spotsRemaining",
							"type": "uint256"
						},
						{
							"internalType": "string",
							"name": "adDetailsURL",
							"type": "string"
						}
					],
					"internalType": "struct Adware.VideoAdvertisement[]",
					"name": "",
					"type": "tuple[]"
				}
			],
			"stateMutability": "view",
			"type": "function"
		},
		{
			"inputs": [
				{
					"internalType": "address",
					"name": "_marketplaceAddress",
					"type": "address"
				}
			],
			"name": "setMarketplaceContract",
			"outputs": [],
			"stateMutability": "nonpayable",
			"type": "function"
		},
		{
			"inputs": [],
			"name": "startingBidPrice",
			"outputs": [
				{
					"internalType": "uint256",
					"name": "",
					"type": "uint256"
				}
			],
			"stateMutability": "view",
			"type": "function"
		},
		{
			"inputs": [
				{
					"internalType": "uint256",
					"name": "",
					"type": "uint256"
				}
			],
			"name": "todayBillboard",
			"outputs": [
				{
					"internalType": "address",
					"name": "bidderAddress",
					"type": "address"
				},
				{
					"internalType": "uint256",
					"name": "bidAmount",
					"type": "uint256"
				},
				{
					"internalType": "string",
					"name": "adDetailsURL",
					"type": "string"
				}
			],
			"stateMutability": "view",
			"type": "function"
		},
		{
			"inputs": [],
			"name": "videoAdSpotPrice",
			"outputs": [
				{
					"internalType": "uint256",
					"name": "",
					"type": "uint256"
				}
			],
			"stateMutability": "view",
			"type": "function"
		},
		{
			"inputs": [
				{
					"internalType": "uint256",
					"name": "",
					"type": "uint256"
				}
			],
			"name": "videoAdsQueue",
			"outputs": [
				{
					"internalType": "address",
					"name": "advertiser",
					"type": "address"
				},
				{
					"internalType": "uint256",
					"name": "spotsRemaining",
					"type": "uint256"
				},
				{
					"internalType": "string",
					"name": "adDetailsURL",
					"type": "string"
				}
			],
			"stateMutability": "view",
			"type": "function"
		},
		{
			"inputs": [],
			"name": "withdrawMyEarnings",
			"outputs": [],
			"stateMutability": "nonpayable",
			"type": "function"
		},
		{
			"inputs": [
				{
					"internalType": "uint256",
					"name": "",
					"type": "uint256"
				}
			],
			"name": "yesterdayBillboard",
			"outputs": [
				{
					"internalType": "address",
					"name": "bidderAddress",
					"type": "address"
				},
				{
					"internalType": "uint256",
					"name": "bidAmount",
					"type": "uint256"
				},
				{
					"internalType": "string",
					"name": "adDetailsURL",
					"type": "string"
				}
			],
			"stateMutability": "view",
			"type": "function"
		}
	]
}